:020000040800F2
:100000000009002025050008E1200008B1200008B3
:10001000CD200008B1200008C520000827050008F1
:10002000270500082705000827050008653C00088B
:100030002705000827050008270500087941000862
:1000400027050008270500082705000827050008E0
:100050002705000827050008A93E0008D53E00082E
:10006000013F00082D3F0008593F00082705000800
:1000700027050008270500082705000827050008B0
:10008000270500082705000827050008113100088A
:100090007D310008D131000825320008853F000875
:1000A0002705000827050008270500082705000880
:1000B0002705000827050008270500082705000870
:1000C0002705000827050008270500082705000860
:1000D0002705000827050008270500082705000850
:1000E000ED3F000827050008270500082705000840
:1000F0002705000827050008270500082705000830
:10010000270500082705000827050008270500081F
:10011000270500082705000827050008270500080F
:1001200027050008270500082705000827050008FF
:1001300027050008270500082705000827050008EF
:1001400027050008270500082705000827050008DF
:1001500027050008270500082705000827050008CF
:100160004FF0FF0C1CEAD0521EBF1CEAD15392EA9A
:100170000C0F93EA0C0F6FD01A4480EA010C400276
:1001800018BF5FEA41211ED04FF0006343EA5010D0
:1001900043EA5111A0FB01310CF00040B1F5000F12
:1001A0003EBF490041EAD3715B0040EA010062F1C1
:1001B0007F02FD2A1DD8B3F1004F40EBC25008BFAB
:1001C00020F00100704790F0000F0CF0004C08BFC9
:1001D00049024CEA502040EA51207F3AC2BFD2F196
:1001E000FF0340EAC250704740F400004FF00003A4
:1001F000013A5DDC12F1190FDCBF00F000407047DE
:10020000C2F10002410021FA02F1C2F1200200FA1B
:1002100002FC5FEA310040F1000053EA4C0308BFE2
:1002200020EADC70704792F0000F00F0004C02BF33
:10023000400010F4000F013AF9D040EA0C0093F0AE
:10024000000F01F0004C02BF490011F4000F013B08
:10025000F9D041EA0C018FE70CEAD15392EA0C0F76
:1002600018BF93EA0C0F0AD030F0004C18BF31F0E1
:10027000004CD8D180EA010000F00040704790F0B7
:10028000000F17BF90F0004F084691F0000F91F05B
:10029000004F14D092EA0C0F01D142020FD193EA21
:1002A0000C0F03D14B0218BF084608D180EA0100A9
:1002B00000F0004040F0FE4040F40000704740F085
:1002C000FE4040F44000704780F0004002E000BF74
:1002D00081F0004142001FBF5FEA410392EA030F31
:1002E0007FEA226C7FEA236C6AD04FEA1262D2EB7B
:1002F0001363C1BFD218414048404140B8BF5B4280
:10030000192B88BF704710F0004F40F4000020F018
:100310007F4018BF404211F0004F41F4000121F02E
:100320007F4118BF494292EA030F3FD0A2F1010278
:1003300041FA03FC10EB0C00C3F1200301FA03F1B6
:1003400000F0004302D5494260EB4000B0F5000FD9
:1003500013D3B0F1807F06D340084FEA310102F198
:100360000102FE2A51D2B1F1004F40EBC25008BF4A
:1003700020F0010040EA03007047490040EB000014
:10038000013A28BFB0F5000FEDD2B0FA80FCACF115
:10039000080CB2EB0C0200FA0CF0AABF00EBC25042
:1003A00052421843BCBFD0401843704792F0000F30
:1003B00081F4000106BF80F400000132013BB5E783
:1003C0004FEA41037FEA226C18BF7FEA236C21D0F9
:1003D00092EA030F04D092F0000F08BF084670475E
:1003E00090EA010F1CBF0020704712F07F4F04D12C
:1003F000400028BF40F00040704712F100723CBF3F
:1004000000F50000704700F0004343F0FE4040F468
:10041000000070477FEA226216BF08467FEA236326
:100420000146420206BF5FEA412390EA010F40F411
:10043000800070474FF0000304E000BF10F000435D
:1004400048BF40425FEA000C08BF704743F0964344
:1004500001464FF000001CE050EA010208BF70475F
:100460004FF000030AE000BF50EA010208BF7047E6
:1004700011F0004302D5404261EB41015FEA010CFB
:1004800002BF84460146002043F0B64308BFA3F1F3
:100490008053A3F50003BCFA8CF2083AA3EBC253D5
:1004A00010DB01FA02FC634400FA02FCC2F12002F4
:1004B000BCF1004F20FA02F243EB020008BF20F02B
:1004C0000100704702F1200201FA02FCC2F1200291
:1004D00050EA4C0021FA02F243EB020008BF20EA86
:1004E000DC70704742000ED2B2F1FE4F0BD34FF0DA
:1004F0009E03B3EB126209D44FEA002343F000439A
:1005000023FA02F070474FF00000704712F1610FBC
:1005100001D1420202D14FF0FF3070474FF000008E
:10052000704700BF02E000F000F8FEE772B6264810
:1005300080F30888254880F3098825482549086004
:10054000022080F31488BFF36F8F03F0DBFB03F00E
:100550003FFC4FF0553020491B4A91423CBF41F8C7
:10056000040BFAE71D49194A91423CBF41F8040BBC
:10057000FAE71B491B4A1C4B9A423EBF51F8040B39
:1005800042F8040BF8E700201849194A91423CBF91
:1005900041F8040BFAE703F0B9FB03F01BFC154C20
:1005A000154DAC4203DA54F8041B8847F9E700F014
:1005B000BDFB124C124DAC4203DA54F8041B8847C1
:1005C000F9E703F0A1BB00000009002000110020A2
:1005D0000000000808ED00E00001002000090020F4
:1005E00008420008001100202411002028110020DA
:1005F000D0250020600100086001000860010008AB
:10060000600100082DE9F04FC1F80CD0C3689D4689
:10061000BDE8F08F002383F311882846A04700200F
:1006200003F0A0F8FEE703F039F800DFFEE7000072
:1006300080EA0102844612F0030F4FD111F0030F3C
:1006400032D14DF8044D11F0040F51F8043B0BD09A
:10065000A3F101329A4312F0803F04BF4CF8043BEF
:1006600051F8043B16D100BF51F8044BA3F10132FD
:100670009A4312F0803FA4F101320BD14CF8043BB5
:10068000A24312F0803F04BF51F8043B4CF8044BE6
:10069000EAD023460CF8013B13F0FF0F4FEA332357
:1006A000F8D15DF8044B704711F0010F06D011F836
:1006B000012B0CF8012B002A08BF704711F0020F24
:1006C000BFD031F8022B12F0FF0F16BF2CF8022B0F
:1006D0008CF8002012F47F4FB3D1704711F8012B32
:1006E0000CF8012B002AF9D1704700BF01292DE930
:1006F000F0415AD901274FF0000E4FF0FF34BC46AD
:100700003B4607E09E464FF0010C1F1B0EEB0C030F
:1007100099420ED9051915F80C50C65CAE42F1D3BA
:1007200033D00127BC467446BE440EEB0C039942FD
:10073000F0D84FF001084FF0000E4FF0FF35C446DF
:100740004346176008E09E464FF0010CA3EB0508F6
:100750000EEB0C0399420FD9461916F80C60C75CD2
:10076000B742F0D819D04FF00108C4467546C644C8
:100770000EEB0C039942EFD80135601C854202D381
:100780002846C2F80080BDE8F081BC450ABFE644B7
:100790000CF1010C4FF0010CB8E7C4450ABFE64468
:1007A0000CF1010C4FF0010CD2E74FF001080025CD
:1007B000E6E700BF2DE9F04F164685B00D4603AAC7
:1007C0001946074630461C46FFF790FF8046DDF885
:1007D0000CA04246304606EB0A0100F079FA2A1BCB
:1007E000002852D101468446A4EB0A0BC8F1010946
:1007F000CDF804A08845434638BF0B469C4219D922
:100800005D1E03EB0C003544384402E001339C428A
:1008100010D010F801EB15F801AFF245F6D09C426C
:1008200008D90021CC449C449445E3D9002005B06C
:10083000BDE8F08F884508F1FF3368D908EB0C005C
:10084000384406EB0805CDF8008002E08B4212D058
:10085000534615F8018D10F801ED03F1FF3AF0450C
:10086000F4D0DDF8008001330131994208D8019BB2
:1008700059469C44D8E701319942DDF80080F6D909
:1008800007EB0C0005B0BDE8F08FA4EB0801414573
:1008900038BF414644454FF0000C01F1010132D907
:1008A00008F1FF3EC8F101090CEB0800434606EBD6
:1008B0000E05384402E001339C4224D010F801AB0D
:1008C00015F801BFD345F6D09C421CD9CC449C44BA
:1008D0009445ABD84445E7D806EB08090CEB08056E
:1008E00048463D4402E0013BB342C9D0034615F8F7
:1008F00001ED10F801ADF245F5D08C44944595D842
:100900004445CDD8EAE7B8F1000FE5D1B8E7434652
:10091000AAE700BF2DE9F04F1546ADF21C4D064683
:100920008A462846194605AA0093FFF7DFFE80464F
:10093000009B0DF2144142F8043F8A42FBD15C1E39
:10094000002B00F0D280691E04EB050C06AF11F8F5
:10095000010F5A1A013A2A44614547F82020F6D17E
:10096000DDF814B0424605EB0B012846009300F079
:10097000AFF9009B0146AAEB030A00285FD1A3EB65
:100980000B030093C8F101030293A9460346CDF877
:1009900004B009E021B101999142009988BF0A464B
:1009A00000211344534524D806EB030C1CF8042003
:1009B00057F82220002AEDD18845424638BF0A4622
:1009C000A2421BD2551ED0184D44304402E00132E1
:1009D000A24213D010F801EB15F801BFF345F6D091
:1009E000A2420BD202990B44134453454FF000012D
:1009F000DAD900200DF21C4DBDE8F08F884508F1D2
:100A0000FF3276D908EB0300304409EB0805CDF836
:100A10000C8002E08A4265D05A4615F8018D10F824
:100A200001ED02F1FF3BF045F4D0DDF80C8001321E
:100A3000013191425BD8019A00991344B2E7A3EBCC
:100A40000803434538BF43464FF0000C013306EB23
:100A50000C000193035D08F1FF3957F82330C8F10A
:100A6000010B4BB19C44D445C3D806EB0C00035D8D
:100A700057F82330002BF5D1A04517D208EB0C0214
:100A80004346324405EB0901CDF800C002E00133D2
:100A9000A34224D012F801CB11F801EFE645F6D0BD
:100AA000DDF800C0A34238BFDC44DBD3B8F1000F4F
:100AB000A0D008EB0C01314405EB0802CDF800C0D2
:100AC00002E0013BAB4295D0134611F801CD12F87C
:100AD00001EDE645F5D0DDE900C39C44C3E7DDF850
:100AE00000C0E3E7DDF80C80A2E706AF38E7604618
:100AF00080E742469CE700BF2DE9F0470446C0B0BE
:100B0000002B69D0012B90461F4600F086808B4257
:100B10005ED8CD1A022B00EB050661D0B3F5807FBD
:100B200000F283804FF48072002168465D1E00F061
:100B30009BFF0122404698F800100B4610F8011F59
:100B4000A1EBC303DBB20DF8032001329542F4D8C8
:100B50004FF0000A08EB070313F8022C18F80530D1
:100B6000A3EBC203DBB21DF803900DF80350A5EB15
:100B70000909B44201D92BE063B92C4414F8013CB3
:100B800094F800C0A642ACEBC30C5FFA8CFC1DF8D5
:100B90000C30F1D29D42A4EB0304EAD80F2D07D903
:100BA000042208EB0A0104EB0A0000F091F860B996
:100BB0002A464146204600F08BF868B1BAF1030F8F
:100BC0008CBFAAF1040AA7F1050A4C44B442D4D957
:100BD000002040B0BDE8F087204640B0BDE8F08777
:100BE00013785078217840EA0340234613F8012F08
:100BF0009E4242EA01421CD39042EDD0013601E010
:100C0000904208D013F8011F9E4241EA0242F7D1F8
:100C10008242DDD13346581EDBE70A4698F80010C1
:100C200040B0BDE8F04700F007B840B0BDE8F0477D
:100C300070E61E46ECE700BF5FFA81FC810744D0F6
:100C40000346511E22B909E09A0709D0013905D39C
:100C50001846027801336245F6D17047002070478C
:100C6000184603290CD80029F8D00346014401E0B6
:100C70008B42F3D0184613F8012B6245F8D1704728
:100C800010B50CEB0C24024604EB044402E00439DA
:100C9000032915D9104652F8043B6340A3F1013EE5
:100CA0002EEA030313F0803FF1D00346014401E034
:100CB0008B4208D0184613F8012B6245F8D110BDBD
:100CC00010460029F1D1002010BD1146C9E700BF30
:100CD000032A30B415D941EA0004A40784460B4620
:100CE00004D0541E0FE0043A032A08D9194660467E
:100CF00053F8044B5CF8045BA542F4D0F1E760467E
:100D00001946541E7AB1431E0139021901E09A4274
:100D100009D013F8010F11F801CF6045F7D0A0EB0F
:100D20000C0030BC7047002030BC7047F8B500F0B4
:100D300029FE02F035FF074602F080FF0646002834
:100D40003FD12A4B9F423CD001339F423CD0284B9D
:100D500027F0FF029A423AD1F8B200F005FC35467E
:100D600042F2107400F006FC08B10024254601F0A0
:100D700027F980B30024032000F040F8254636B15F
:100D80001C4B9F4203D0002402F050FF2546002058
:100D900002F010FF184B9E6816F0400603D00DB10C
:100DA00000F042F8264600F047FC01F09BF90446AB
:100DB000B6B101F097F9001BB04211D900F034F838
:100DC000F3E735460024CDE704460125CAE705468A
:100DD0004FF47A74C6E7B4F57A7F08BF0125CEE7F1
:100DE00000F0C8FC012002F0C3FCE1E7010007B0FD
:100DF000000008B0263A09B0000C0140084B1870FA
:100E000003280CD8DFE800F008050208022000F0F3
:100E100015BE022000F00ABE0022024B5A60704745
:100E2000301100202811002038B501F0C9F830B188
:100E300003221F4B1A7000221E4B5A6038BD1E4BF6
:100E40001E4A19680131F9D004339342F9D11C4C80
:100E5000194DD4F80424AA42F0D31A4B9B6803F12D
:100E6000006303F5C8439A42E8D202F0B3FE02F0F1
:100E7000C5FE002000F0A0FD0220FFF7BFFF124BCF
:100E8000DA690022DA61D96999699A619B6972B657
:100E90004FF0E023C3F8085D3021D4F80034D4F8D3
:100EA000042481F311889D4683F308881047C5E721
:100EB0003011002028110020006400082064000880
:100EC00000600008001100200010024049F2690093
:100ED000084A136899B21B0C00FB013344F25061BD
:100EE0001360054B186882B2000C01FB0200186009
:100EF00080B27047141100201011002010B5044674
:100F00000021102200F0B0FD034B03CB2060616094
:100F10001868A06010BD00BFE8F7FF1F70B50C4651
:100F200015461E4601F07EFB50B9022E10D1012D50
:100F30000ED112A3D3E900230120C4E9002307E066
:100F4000282D10D005D8012D09D0052D0FD0002057
:100F500070BD302DFBD10BA3D3E90023ECE70BA32D
:100F6000D3E90023E8E70BA3D3E90023E4E70BA3CD
:100F7000D3E90023E0E700BFAFF30080401DA120CC
:100F800026812A0B78F6339F93CACD8D9E6AC421A1
:100F9000818A46EE26417272DF25D7B7F017304AB4
:100FA00039059E56F0B5ADF54F7D6CAC4FF4C4726B
:100FB00007460D462046002100F056FD01F092F84C
:100FC0004FF47A72B0FBF2F0224B0DF2E326186078
:100FD00093E80700022384E807000DF5E9702382F7
:100FE000FFF78CFF4EF603031B4906A82384FFF787
:100FF0001FFB18230DF1300C84F832316B441A4674
:1010000003CA624530607160134606F10806F6D1E6
:101010000DAE31460122204600F072FD002380B261
:10102000CDE904600393AB7E3846029305F11903C2
:10103000019301230093E97E04A3D3E9002301F087
:1010400093FB0DF54F7DF0BDAFF300809E6AC42188
:10105000818A46EE38130020884100082DE9F041CE
:10106000264D80462B7A0C46DAB0FBB9204627A9DC
:1010700000F06CFE0746002836D19DF89D60C82E12
:1010800032D801464FF4FA72284600F0EDFC3246A1
:101090000DF19E0105F1090000F0DAFC9DF89C308D
:1010A0002E4477722B720BB9E37E2B7281220021C2
:1010B00006AD27A800F0D8FC0122294627A800F099
:1010C0008BFE002380B2CDE904500393A37E4046FB
:1010D000029304F11903019328230093E17E05A3F1
:1010E000D3E9002301F040FB5AB0BDE8F08100BF16
:1010F000AFF3008026417272DF25D7B73C11002084
:101100004FF48A73F0B50024234EF1B003FB006561
:1011100096F8D830D02221463CA885F8DC3085F8F6
:10112000E84000F0A1FC06F1090000F09BFCD5F8B6
:10113000E430C2B206AF8DF8F00006F109010DF1FE
:10114000F100CDE93A3400F083FC394601223AA897
:1011500000F076FE80B2CDE9047008230127CDE9C6
:10116000023706F1D803019330230093317A0B48FC
:1011700007A3D3E9002301F0F7FAA04206DD00F04F
:10118000B1FFC5F8E000384671B0F0BD2046FBE77E
:1011900078F6339F93CACD8D3C1100204823002060
:1011A000F0B51E4E1E4F1F4D85B0304601F008FBB6
:1011B000044660B310220021684600F055FC4FF051
:1011C0000003227B6068A16862F303038DF800309E
:1011D00002AB03C3019B2268384662F31C030193F0
:1011E0009DF800306A4643F020038DF8003000235C
:1011F000194602F08FF9044620B9304601F0E4FAAE
:101200002C70D2E72B78072B03D801332B7005B055
:10121000F0BD024801F0D8FAF9E700BF48230020EA
:10122000A82300203911002010B50446002100F049
:10123000E5FB601C0B4C80B2A4F8F00100F0C6FB8B
:1012400070B1B4F8F00100F0D1FB014640B9B4F838
:10125000F00100F0D3FBB4F8F001013080B2EBE70D
:1012600010BD00BF3C1100202DE9F04F8DB000AF44
:1012700005460C4601F0D6F9002848D1237E022B02
:101280001AD1E38A012B17D100F02CFF0646FFF795
:101290001DFE4FF4C873B0FBF3F202FB1303DFF83B
:1012A000A8829BB206F516763344C8F80030E37E78
:1012B00033B90022A54B1A703437BD46BDE8F08F14
:1012C000204607F11C0100F0F5FC0028F4D107F1DD
:1012D0000C00FFF713FEBC7F07F10C01224607F15B
:1012E0001F00FFF7F5FC0028E3D10F2C08D8974B1F
:1012F0001C70D8F80030A3F51673C8F80030DBE78F
:10130000397F0029D8D0284601F084F9D4E7E38A50
:10131000282B70D010D8012B68D0052BCCD1BFF36F
:101320004F8F8B498B4BCA6802F4E0621343CB604A
:10133000BFF34F8F00BFFDE7302BBDD1DFF818A200
:10134000E17E9AF808209142B6D19AF8DC10627ECC
:10135000914255D120460AF1EA0100F0A5FD05466B
:101360000028A9D101228AF8E82000F0BBFEDAF8B3
:10137000E020801A192840F6B83238BF1920904270
:1013800028BF1046FFF756F87449FEF7E9FE0446F9
:10139000DAF80000FFF74EF87149FEF7E1FE01466A
:1013A0002046FEF797FFFFF79DF8CAF800004FF4BC
:1013B0008A729AF8D930DAF804007B6053430AEB5A
:1013C000030292F8E81051B1D2F8E440E8468442B2
:1013D00022D0002182F8E810C2F8E010C546DAF801
:1013E0000430604A9B0A0133138165E72146284691
:1013F000FFF7D8FD60E721462846FFF72FFE5BE7A1
:1014000040F6B831DAF80020FA328A4294BFCAF8BE
:101410000020CAF800104FE7B2F8EC603B60F21C05
:101420004FEA920B22F003020732D208A8EBC20364
:101430009D46E94600214FEA8B02484600F014FB26
:101440003B68324603F1EE014846514400F000FB90
:1014500014B9012000F0B0FA9AF8D20000F0B6FA00
:10146000044638B98AF8080000F0D0FA204600F0A7
:10147000A3FAB3E7DAF8D4203AB99AF8D200BAF866
:10148000F021824201D8FFF7CFFEDAF8D4203244AF
:10149000944208D29AF8D200BAF8F0210130824280
:1014A00001D8FFF7C1FE4946DAF804005FFA8BF273
:1014B00000F0E2FA08B9C54679E7DAF804209AF8AC
:1014C000D2003244CAF80420DAF8D42006EB02092C
:1014D000CAF8D49000F07AFA814509D39AF8D2205C
:1014E00001328AF8D220DAF8D420121BCAF8D420AC
:1014F000FF2E10D800248AF8084000F087FA204612
:1015000000F05AFA00F05CFD164B188108B9FFF79D
:101510008BFCC546D0E64FF48A727B689AF8D900F6
:1015200002FB03A2D2F8E41082F8E85001F58071C2
:10153000C2F8E050C2F8E410FFF7E2FDFFF730FE1A
:101540008AF8D950B7E700BF3413002030130020C9
:1015500000ED00E00400FA053C110020CDCCCC3DAC
:101560006666663F38130020014B1870704700BF55
:101570004513002030B54FF00054264B226885B04B
:101580009A4217D1637DABB10025234A23481370DB
:10159000237DC92203722249C0F8E450093000F0CB
:1015A00057FA2046E022294600F05EFA0124204640
:1015B00005B030BD02F04CFB044608B90024F6E744
:1015C000184A194DD36943F00073D361AA6D174BC4
:1015D0009A42F3D12B6E013B7E2BEFD8144A01AB1C
:1015E00007CA83E807001846032100F0B9FC6B6DB9
:1015F00083424FF00003E1D12A6D8A4203BFAB65FD
:101600002A6E054B1C4601BF1A70EA6D094B1A6021
:10161000CDE700BF9AAD44C5451300203C11002022
:101620001600002000100240006600405041A0B0AB
:1016300058660040201100202DE9F34100F0C0FC65
:101640000223404C6371404B20811F68B7F57A7FBD
:1016500074D33E4E3E4AB6FBF7F1974294BF112237
:101660000A22B1FBF2F002FB1013002B63D1411EE2
:10167000B1F5806F63D24FF47A75013AD1B2C1EB04
:10168000C10C0CF103024FEAE20808FB0555C2F356
:10169000C7028B1ADBB208F1010E9E44B5FBFEF5C2
:1016A000B5F5617F81BF0CF1FF3CCCF3C702891A0D
:1016B000CBB2D51805FB0005B6FBF5F6591EB742AF
:1016C000C9B23BD1072939D880B2013A013B120493
:1016D000204942EA0352013802431F484A6001F0A0
:1016E00009FF002301931D4B1D4900934FF48052C5
:1016F0001C4B1D4800F066FF1C4B197811B11A48AD
:1017000000F088FF00F0EEFC0546FFF7DFFB4FF42A
:10171000C873B0FBF3F202FB130305F516759BB219
:101720001D44134B1D6002F089FA08B10F23238179
:1017300002B0BDE8F081013A022A92D100231A4694
:101740001846C2E73813002020110020005125025E
:101750003F420F0018110020A82300201D0F000891
:101760004813002069120008482300204513002078
:10177000341300202DE9F04F0FF20029D9E9008938
:10178000744C93B00CADFFF70BFD182200212846D6
:1017900000F06AF9704E714F00232A461946304610
:1017A00001F0E0FE0146002800F0A480204600F091
:1017B00039FF8246002841D100F094FC684E32681F
:1017C00090423BD300F08EFC8346FFF77FFB4FF443
:1017D000C872B0FBF2F101FB12000BF5167B80B270
:1017E0005844DFF880B130609BF800602846B6FAB4
:1017F00086F35B098DF82030FFF780FBC6F11002FD
:10180000D2B2062A28BF0622A9190DF1210007929B
:1018100000F01EF908AB039318230293524B079A6A
:10182000019301230132D2B204920093204647A3D0
:10183000D3E9002300F03AFF8BF800A000F052FC3F
:101840004A4ADFF82CA11368C31AB3F57A7F31D363
:10185000106000F049FC02460B46204600F0BEFF37
:10186000204600F0DFFE28B39AF80830DFF804B114
:10187000002B0CBF022303238BF8053000F032FC51
:101880004FF47A73B0FBF3F00122CBF80000294645
:10189000584600F0E7F918230293374B80B20193C2
:1018A00040F25513CDE90350009342464B46204683
:1018B00000F0FCFE9AF80830CBB100F013FC9AF867
:1018C000E8307BB9DAF8E0304BB1C01ADAF8003012
:1018D000FA2B38BFFA230533B0EB430F02D30020B5
:1018E000FFF70EFC9AF80830002B7FF44BAF13B0D3
:1018F000BDE8F08F102208A800F0B6F8FB6883F06E
:101900001003FB6000F0F0FB0DF1240C0B4612A954
:10191000024611E903008CE803009DF83410C1F37E
:101920000300890649BF0E99BDF83810C1F31C01A8
:1019300041F0004158BFC1F30A018DF82C00089115
:10194000204608A901F01CF926E700BF401DA12090
:1019500026812A0B48230020A823002000080140EC
:1019600034130020301300204413002034110020D1
:101970003C1100203813002038110020F1C6A7C107
:10198000D068080F70B501F0CBFF0025084E094C58
:10199000308020683388834208D901F0BDFF236876
:1019A00005440133B5F5C84F2360F2D370BD00BFC5
:1019B000A0230020A423002002F03CB800F1006026
:1019C000920000F5C84001F0E7BF0000054B1A681F
:1019D000054B1B889B1A834202D9104401F09CBF1F
:1019E00000207047A4230020A0230020024B1B6886
:1019F000184401F097BF00BFA4230020024B1B68CE
:101A0000184401F0A3BF00BFA4230020064991F8A9
:101A1000243033B100230822086A81F82430FFF70C
:101A2000CDBF0120704700BF78230020022802BFED
:101A30001022014B1A61704700080140022802BFC2
:101A40004FF48012014B1A61704700BF000801403B
:101A5000002310B5934200D110BDCC5CC4540133B7
:101A6000F8E70000FFF7FEBF03460244934200D1AF
:101A7000704703F8011BF9E72DE9F8431F4D1446A1
:101A800095F824200746884622B9DFF870906CB993
:101A9000012009E02B6A03EB82038342F5D0FFF7B4
:101AA000B5FF0028F1D10020BDE8F88395F8243077
:101AB0002BB92022FF2148462F62FFF7D5FF95F86A
:101AC00024004146C0F10802A24228BF224605EB8D
:101AD0008000D6B29200FFF7BBFF95F82430A41B1C
:101AE0001E44F6B2082E17449044E4B285F82460F0
:101AF000CDD1FFF78BFF0028C9D1D4E77823002090
:101B00002DE9F3470D46044600219046284640F251
:101B10007912FFF7A9FF234620220021284600F072
:101B2000CDFF022220212846231D00F0C7FF0322FB
:101B300022212846631D00F0C1FF032225212846EB
:101B4000A31D00F0BBFF10222821284604F1080342
:101B500000F0B4FF08223821284604F1100300F0F9
:101B6000ADFF08224021284604F1110300F0A6FF32
:101B700008224821284604F1120300F09FFF20228A
:101B80005021284604F1140300F098FF40227021F0
:101B9000284604F1180300F091FF0822B0212846DE
:101BA00004F1200300F08AFF0822B821284604F13E
:101BB000210300F083FFC02604F122073B46314693
:101BC00008222846083600F079FFB6F5A07F07F115
:101BD0000107F3D194F8323031468DF807300822EE
:101BE00028460DF1070300F069FF002604F1330ACF
:101BF0009DF807304FEAC6099E4209F5A47720D325
:101C000094F83231502B28BF50238DF80730B8F1AB
:101C1000000F08D13946072228460DF1070300F0CE
:101C20004DFF09F24F17002604F233149DF80730D8
:101C300007EBC6019E420DD30731C80802B0BDE8CC
:101C4000F0870AEB060308223946284600F036FFE3
:101C50000136CDE7A3190822284600F02FFF0136F0
:101C6000E4E7000038B50C46002105462160034634
:101C7000C4F803102046202200F020FF20462B1D30
:101C80000222202100F01AFF20466B1D0322222190
:101C900000F014FF2046AB1D0322252100F00EFFAB
:101CA00020461022282105F1080300F007FF072035
:101CB00038BD0000F7B5057F04460E462DB1838A76
:101CC000122B02D9012003B0F0BD002307221946D0
:101CD0002046009600F0BCFD731C009301220023F7
:101CE0000721204600F0B4FDD5B9B31C00930522AE
:101CF0002B460821204600F0ABFD0D25B378102BB4
:101D0000E0D83746B278BB1B934210D3237F073508
:101D1000A08AED08B3B9A8422CBF00200120D2E769
:101D2000A38A0825DB00083BDB08B370E6E7FB1C51
:101D30002946009308220023204600F089FD08353B
:101D40000137DFE7401B18BF0120BCE7F7B5047F70
:101D500005460E462CB1838ACA2B02D9012003B056
:101D6000F0BD0023082219462846009600F070FDB9
:101D7000DCB90822731C009311462346284600F064
:101D800067FD10247378C82BE8D8012372785F1C94
:101D9000013B934210D32B7F0734A88AE408B3B9E0
:101DA000A0422CBF00200120D9E7AB8A0824DB0029
:101DB000083BDB087370E5E7F3192146009308221E
:101DC0000023284600F044FD08343B46DEE7001BB4
:101DD00018BF0120C3E70000F7B50E4604460021F6
:101DE000154630468122FFF73FFE23460822002198
:101DF000304600F063FE63787F2B28BF7F238DF889
:101E000007309DB90722082130460DF1070300F085
:101E100055FE0F27002502349DF8073007EBC5015A
:101E20009D4205D30731C80803B0F0BD0827F1E78C
:101E300063190822304600F041FE0135ECE700004E
:101E4000F7B50E460546002114463046CE22FFF770
:101E50000BFE2B4628220021304600F02FFE2B7A65
:101E6000C82B28BFC8238DF807308CB90822282139
:101E700030460DF1070300F021FE30242F469DF877
:101E800007207B1B934205D3E01DC00803B0F0BDC3
:101E90002824F3E7214607F109030822304600F021
:101EA0000DFE08340137EAE7F7B5047F05460E4614
:101EB00034B1838AB3F5827F02D9012003B0F0BD2B
:101EC0000123102200212846009600F0C1FCDCB955
:101ED000B31C0093092223461021284600F0B8FCC9
:101EE00019247388B3F5807FE7D837467288BB1B07
:101EF000934210D32A7F0734AB8AE408B2B99C42DC
:101F000094BF00200120D9E7AB8A1024DB00103BEE
:101F1000DB087380E5E73B1D214600930822002380
:101F2000284600F095FC08340137DFE7E01A18BFB7
:101F30000120C3E730B5094D0A44914200D130BDBC
:101F400011F8013B5840082340F30004013B2C40AA
:101F500013F0FF0384EA5000F6D1EEE72083B8EDDA
:101F60004FF0FF33F7B500EB81061946DFF848C0A4
:101F7000DFF848E0B04203D1D843C94303B0F0BD15
:101F800050F8042B01AF0192042217F8014B81EAAB
:101F9000046108240D46DB184941013C002DBCBFFB
:101FA00083EA0C0381EA0E0114F0FF04F2D1013A36
:101FB00012F0FF02E9D1DDE79336EAA9EBE1F04246
:101FC000F7B56B46344A106851686A4603C3082364
:101FD00032493348FEF790FD044610B30369B3F568
:101FE000CE3F52D8428BB2F57A7F50D12D4A02446F
:101FF00002F110018B424CD3103B294900209D1A5D
:10200000FFF798FF06462A46002004F11801FFF763
:1020100091FFA3689E4202D1E368984231D00D251A
:1020200000E00A256B46204A106851686A4603C3DF
:1020300008231E491A48FEF75FFD044610B30369E2
:10204000B3F5CE3F1ED8B0F86620B2F57A7F19D12D
:10205000144A024402F15C018B4213D35C3B1049E9
:1020600000209E1AFFF766FF07463246002004F163
:102070006401FFF75FFFA3689F4203D1E3689842C2
:1020800000D10025284603B0F0BD0B25CAE70C257A
:10209000C8E71025C6E700BFA1410008DC9B01008E
:1020A00000640008089CFFF7AA410008909B01000B
:1020B000EFF30983EFF30583014B9B6BFEE700BF52
:1020C00000ED00E008B5FFF7F3FF0000EFF3098330
:1020D000EFF30583014B5B6BFEE700BF00ED00E013
:1020E000FEE7000001F00CBD01F0B8BC0E2809D8D5
:1020F000DFE800F01515151515151515150A0C0E48
:1021000010121400402070470C20704710207047B8
:1021100014207047182070472020704730207047E7
:102120002DE9F043456A35B94162BDE8F083CEF848
:1021300000100B60F9E74E68AE4626F0604CC6F31F
:102140008A4717EA260738BF67462B46C6F38078CA
:102150005C6894EA060F24F060420CD5002C1EDA6D
:10216000920CBA4201D0BA420FD99D42DFD10D6024
:10217000DAE71346ECE7944505D104F08049C4F34F
:102180008074444507D19445EFD31A689E46002ACF
:10219000EFD11960C9E7B9F1000FF6D0E5E7BA420F
:1021A000F3D0E0E72DE9F0474FF47F49089E01F0B6
:1021B00007054FEAD6082A4406F0070600EBD101CE
:1021C000954201D1BDE8F08705F0070C06F0070A3B
:1021D000D445674638BF5746501BC7F108078742AA
:1021E00028BF0746EC080C5D08EBD60013F800E0AA
:1021F00004FA0CF429FA07FC24FA0AF45FFA8CFCBE
:102200008EEA04044CFA0AFC04EA0C048EEA040E7A
:1022100003F800E03D443E44D2E70000082341F2C9
:10222000210280EA012001B24000002980B203F1BE
:10223000FF33B8BF504013F0FF03F4D170470000E4
:1022400038B50C468D18A54200D138BD14F8011BD5
:10225000FFF7E4FFF7E700000346406848B1026873
:1022600099895A605A89013292B291425A8138BF93
:102270009A81704770B504460D4688B0202200212F
:102280006846FFF7F1FB20460495FFF7E5FF02469D
:1022900058B16B46054608AE1C4603CCB4422860D4
:1022A0006960234605F10805F6D1104608B070BDF7
:1022B0002DE9F843078C0446072F1ED9D0E9029870
:1022C00000254FF6FF73C5F12006A5F1200029FA7D
:1022D00005F108FA06F628FA00F031430143C9B2C5
:1022E0001846FFF79BFF0835402D0346EBD13A46D1
:1022F000E169BDE8F843FFF7A3BF4FF6FF70BDE803
:10230000F883000010B54B6823B9CA8A63F3090249
:10231000CA8210BD04691A681C600361C38A013B4C
:10232000C3824A60EFE700002DE9F84F1C46CB8AD4
:102330008046C3F3090005280F46914603462ED078
:1023400000221A319DB2042D96B211D8B44203F185
:10235000010308D80444FB8AC4F3090464F30903A5
:102360000120FB8219E019F802500132CD54E9E74F
:10237000B442EFD91C23A0F1050ABAFBF3F203FB28
:1023800012AA7D681FFA8AF295BB4046FFF764FFE8
:10239000054630B978606FF00200BDE8F88F00267E
:1023A000E8E70022026078604FF0000AB44242D9A8
:1023B000D31C2B44901B25E01D46013189B22B68AC
:1023C000002BF9D1631F03441C20B3FBF0F301334E
:1023D0009BB29942E8D2BAF1000FE5D14046FFF72F
:1023E0003BFF38B1C0F800A0524628600546DBE745
:1023F0000121E4E7C5F800A0CDE719F80610013681
:1024000003F8011F1FFA86FB0BEB000189B21B29A1
:1024100003D85C45F1D85E46C8E75C45FBD9404629
:10242000FFF71AFF28B1C0F800A000222860054677
:10243000F1E72860AFE7FB8A1C448CE72DE9F74FF2
:102440001C465B69074688460092002B00F0B68068
:10245000238C2BB1E269002A00F0B080072B4AD808
:1024600007F10C00FFF7F8FE054620B96FF00200F7
:1024700003B0BDE8F08F14220021FFF7F5FA228C9B
:10248000E16905F10800FFF7E3FA208C013080B222
:1024900008280DD90C2824D9102824D9142824D987
:1024A000182824D9202824D9312834BF0E200F2001
:1024B000FFF71CFE013880B2208401302874636964
:1024C000228C1B782A4403F01F0363F03F0313722E
:1024D00048F00043384629466B60FFF721FE012093
:1024E000C6E70920E4E70A20E2E70B20E0E70C203A
:1024F000DEE70D20DCE7072202339BB20633B3FB95
:10250000F2F3C18A828A9BB2521A92B29342ADD838
:1025100000254FF08009AA462E4600F10C030193D6
:10252000238CB34201D128B2A2E70198FFF794FEB1
:10253000834600289AD014220021FFF795FA56B955
:102540000222009BABF808300BF1080C218CB14241
:1025500003D890B20BE00022F6E7E169895D01360D
:102560000CF80210013290B20728B6B2EED1013059
:1025700080B2FFF7BBFD228C6169B24208BF4FF009
:1025800040090978421E01F01F0192B241EA4A1146
:102590000BEB020049EA01010172013248F00041EF
:1025A000CBF80410384659468BF81020FFF7B8FDD9
:1025B0004FF000098AF0010A0135B1E76FF0010020
:1025C00056E70000F8B51546044630220E460021B5
:1025D0001F46FFF749FAB5F5001F28BF4FF6FF72F7
:1025E000069B38BF6A096360079B95B2A760A36228
:1025F000E66104F1100006EB4212964206D1002378
:102600000360A582E3822383E360F8BD0660304661
:102610002036F2E703781BB94BB2002BC8BF01701C
:102620007047000000787047F8B50C46C969074646
:1026300009B9238CB3BB257E1F2D33D83B7823BB30
:10264000228C072A2BD8268A032E2BD84FF6FF7010
:10265000FFF7F6FD4FF6FF7220F00100360240044E
:1026600046EA0566400C46EA402523462946384698
:10267000FFF7E4FE002807DD626913780133DBB25F
:102680001F2B88BF00231370F8BD228A2D0645EA50
:10269000022520461D43FFF70BFE0246E5E76FF0DB
:1026A0000300F1E76FF00100EEE7000070B50446AB
:1026B0001D4616468AB0282200216846FFF7D4F945
:1026C000BDF838306946ADF810300F9B20460593B1
:1026D0009DF84030CDE902658DF81830119B0793C5
:1026E000BDF84830ADF82030FFF79EFF0AB070BD4E
:1026F0002DE9F041D36905460C4616460BB9138CFB
:102700005BBB377E1F2F28D895F80080B8F1000FEB
:1027100026D03046FFF7CCFD3378210241EAC331A1
:1027200041EA0801338A41EA076141EA034102466E
:102730003346284641F08001FFF780FE00280ADD7D
:102740003378012B07D1726913780133DBB21F2B69
:1027500088BF00231370BDE8F0816FF00100FAE735
:102760006FF00300F7E70000F0B504460D461E4683
:1027700017468BB0282200216846FFF775F99DF8AF
:102780004C3029465A1E534253418DF800309DF873
:1027900040306A46ADF81030119B204605939DF8F5
:1027A0004830CDE902768DF81830149B0793BDF8B8
:1027B0005430ADF82030FFF79BFF0BB0F0BD0000A8
:1027C000406A00B104307047436A1A684262026985
:1027D0001A600361C38A013BC38270472DE9F84345
:1027E000D0F8209014461E4649464FF00008174F77
:1027F00009B9BDE8F883D1E90252651B66EB020214
:10280000AF4278EB02021ED2036A8B420DD1FFF772
:1028100079FD036A1B68036203690B60C38A016167
:10282000016A013B8946C382E2E7FFF76BFD0B6853
:10283000C9F8003003690B60C38A0161013BC382A0
:10284000D9F80010D4E789460968D1E780841E00D2
:102850002DE9F04F8BB00D4614468246DDF85080CE
:102860000493002800F01981B8F1000F00F01581E1
:10287000531E3F2B00F21181012A03D1049B002B30
:1028800040F00B810023BAF814B0CDE90833B5EB62
:10289000CB0F4FEACB0703D300200BB0BDE8F08F7E
:1028A0002B199F42DAF80C3036BF7F1B2746FFB248
:1028B00003931BB9DAF81030002B76D0272D4AD8B5
:1028C000C5F12806B7424FF0000334BF3E46F6B2CA
:1028D000009329463246DAF8080008ABFFF762FC9D
:1028E000A7EB060935445FFA89F928210BF1005B53
:1028F000ABF1050B4FEACB0B039B13B1B9F1000F02
:102900002CD1DAF8100040B1B9F1000F05D04A46D9
:10291000009608AB691AFFF745FC38B2002FBBD010
:1029200067070AD00AAB03EBD40111F8083C6242F6
:1029300002F00702134101F8083C082C3CD9102C86
:1029400040F2B680202C40F2AE80049B002B00F0B9
:102950009880082333E0B9460026C6E75B46E02BA3
:1029600028BFE02306930B44AB42059315D95A1BAD
:10297000914538BF4A46039828BFD2B20096691ADB
:1029800008AB04300792FFF70DFC079A1644154474
:10299000A9EB0202F6B25FFA82F9069B0599ABEB4E
:1029A000030B039B1B680393A6E700933A46294653
:1029B000DAF8080008ABAEE7049B93B10123B4EB4F
:1029C000C30F63D0082C11D89DF82030621E23FA63
:1029D00002F2D60705D54FF0FF32A24013438DF81F
:1029E00020309DF8203088F8003056E7102C11D8A0
:1029F000BDF82030621E23FA02F2D50705D54FF04C
:102A0000FF32A2401343ADF82030BDF82030A8F8C3
:102A1000003042E7202C0ED8089A631E22FA03F3F6
:102A2000D90704D54FF0FF33A34013430893089B05
:102A3000C8F8003031E7402C32D0DDE90851631E80
:102A4000C4F12106A4F1210225FA03F301FA06F6E6
:102A5000334321FA02F21343DB0712D50123A4F119
:102A60002002C4F1200603FA02F223FA06F6A3407C
:102A70005B4242EA060262EB42022B430A43CDE983
:102A80000832DDE90823C8E9002306E7082CA8D0AE
:102A9000102CBAD0202CF4D1C9E76FF00100FCE66D
:102AA0006FF00800F9E6049B002BC0D0042386E7F2
:102AB000049B002BA9D0022381E70000012A30B536
:102AC000144638BF01220025402A28BF402285B085
:102AD000012CCDE902550ED81B788DF8083004ABD7
:102AE00003EBD20515F8083C544204F00704A34058
:102AF00005F8083C06E0082C0CD81B788DF8083047
:102B00005307ECD10346009102A80021FFF74AFBCE
:102B100005B030BD102C03D81B88ADF80830EFE7A6
:102B2000202C02D81B680293EAE7D3E90045CDE9DF
:102B30000245E5E710B5CB681BB98B600B618B8252
:102B400010BD04691A681C600361C38A013BC3821B
:102B5000CA60F0E703064CBFC0F3C03002207047E4
:102B600008B50246FFF7F6FF022806D15306C2F366
:102B70000F2001D100F0030008BDC2F30740FBE7BE
:102B80002DE9F04FD1F8008095B004464046CDE9DC
:102B90000323FFF7DFFF02280CBF0025C8F306253B
:102BA000B8F1000F0E46029080F2EF8118F0C04A93
:102BB00040F0EB81097B002900F0E781029B022BAA
:102BC00003D02378AB4240F0E38108F07F03404616
:102BD0000693FFF7C5FF08F07F034FEA8349029B86
:102BE000002249EA03490023314491F803B049EA3D
:102BF00045695FEADB15CDE90A23059049EA00093A
:102C000076D008F07F030093024667682046029B57
:102C10000AA9B847002800F0BE81276A002F55D1C5
:102C2000494604F10C00FFF725FB0746002800F099
:102C3000E2802762737B0BF01F090893BB7ED7E904
:102C400002120993FB7DD7F804E0C3F38403A3EBDE
:102C500009001FFA80FC0028B8BF0CF1200CA9EB7A
:102C60000303B8BF0FFA8CF01FFA83FC002BB8BF28
:102C70000CF1200C0793BCBF0FFA8CF3079351EAB9
:102C8000020C00F0A2810023DDF80CC0BCEB0101B6
:102C9000DDF810C06CEB0202DFF8B4C28C45934142
:102CA000C0F09381DDE908C39C4540F080815DB3AD
:102CB000012800F38A81BEF1000F40F08681A5480B
:102CC00088427EEB0202C0F07C8126E03B69994598
:102CD000B0D03F68002FF9D1494604F10C00FFF74E
:102CE000C9FA0746002800F08680236A3B60A0E707
:102CF000276A27B96FF00C0015B0BDE8F08F3B696B
:102D0000994597D03F68F4E7924B8B4275EB0202EE
:102D100003D2727BBB7E9A4239D1C8F30468002D7E
:102D200037D01BF0400F34D0039B1422BB60049BB0
:102D30000021FB600FA8FEF797FE039B20460C9333
:102D4000049B8DF849900D93331D0E93337B8DF8C2
:102D50004A80013BDBB2ADF84430059B0CA9ADF8CD
:102D60004630029B8DF84830069B8DF84B3094F826
:102D70002C3083F001038DF84C30A3689847FB7D1D
:102D8000C3F38403013303F01F039B02FB82002083
:102D9000B2E7FB7DCBF34012B2EBD31F40F0FE80D5
:102DA000C3F384034B4540F0FC80337B002D51D0AE
:102DB000032B40F2F980039BB51DBB60049B2A46A0
:102DC000FB60FB8A39466FF30903FB82337B04F116
:102DD0000C00033BDBB2FFF7A7FA00280EDA3946F6
:102DE0002046FFF78FFAFB7DC3F38403013303F022
:102DF0001F039B02FB826FF002007DE7B388DDE9D1
:102E00000A843B834FF6FF73CAF12000AAF1200227
:102E100028FA0AF104FA00F0014324FA02F21143FD
:102E20001846C9B2FFF7FAF90AF1080ABAF1400FD9
:102E30000346E9D12946B882327B033AD2B2FFF782
:102E4000FFF9FB7DB882DA43C2F3C01262F3C71305
:102E5000FB759CE7013B5FEA9B1BDBB20ED1351D86
:102E60002A46394604F10C00FFF75EFA0028B6DB6B
:102E7000327B2946013AB88AD2B2E0E7FA8AC2F335
:102E80000902042A5ED86BB1F11C07F11B0011F88E
:102E900001CF013500F802C00132052AEDB201D0A0
:102EA0009D42F4D39D4228BF0025039A38BF0435C4
:102EB0000C92049A38BFEDB20D9207F11B020E92EC
:102EC0007A6838BFAD190F921095FA8A8DF849903B
:102ED000C2F309021344ADF84430059B8DF84A80D3
:102EE000ADF84630029B311D8DF84830069B8DF8B9
:102EF0004B3094F82C3083F001038DF84C300023D4
:102F00007B60327BB88A013AFFF79AF93B8BB88233
:102F1000834203D12046A3680CA9984720460CA9F8
:102F2000FFF708FEFB7DBA8AC3F38403013303F085
:102F30001F039B02FB823B8B9A4214BF6FF0100071
:102F40000020D9E678680028ACD0052106E000BF53
:102F500080841E0040420F0028461C310568002D69
:102F6000FAD1521AD11C06F1030C014402EB0A00FB
:102F70001B285FFA8AF595D89D4293D21CF8010F61
:102F80000AF1010A01F8010FF0E76FF00900B3E65A
:102F90006FF00A00B0E66FF00B00ADE66FF00D00C9
:102FA000AAE66FF00E00A7E66FF00F00A4E600237C
:102FB0001348884273EB0202BFF4E9AE002D3FF4E0
:102FC000A8AE079B0F2B3FF7A4AEFA7D4FEA8B0309
:102FD00002F0030203F07C031343FB7539462046DD
:102FE000FFF790F9737BBB76002D7FF492AEFB7DEB
:102FF000C3F38402013262F38603FB757AE600BFF5
:1030000040420F00F0B53F4D3F4EEB6943F0007377
:10301000EB61EB693D4B9B6AD3F80042344044F0CE
:103020000104C3F80042D3F80042344044EA0024CB
:1030300044F00104C3F80042002955D000200646A0
:10304000C3F81C02C3F80402C3F80C02C3F814024C
:1030500003EBC00401300E28C4F84062C4F8446297
:10306000F6D100274FF0010C9678148816F0010F66
:1030700018BFD3F804E20CFA04F01CBF40EA0E0EAD
:10308000C3F804E216F0020F18BFD3F80CE203EB0A
:10309000C4041CBF40EA0E0EC3F80CE2760748BF1A
:1030A000D3F8146207F1010744BF0643C3F8146262
:1030B0005668B942C4F84062966802F10C02C4F83E
:1030C0004462D3F81C4240EA0400C3F81C02CBD18E
:1030D000D3F8002222F00102C3F80022EB6923F0AA
:1030E0000073EB61EB69F0BD0122C3F84012C3F835
:1030F0004412C3F80412C3F81412C3F80C22C3F824
:103100001C22E5E7001002400000FFFFA82300207A
:10311000184A08B5916A8B688B6013F0010104D0DE
:1031200013F00C0F18BF4FF48031D80506D513F4F7
:10313000406F14BF41F4003141F00201D80306D5BD
:1031400013F4402F14BF41F4802141F00401D369EE
:103150000BB108489847302383F3118800210648B3
:1031600000F022FB002383F31188BDE8084000F043
:10317000A7BD00BFA8230020B023002038B5124C03
:10318000A36ADD68AA0712D05A6922F002025A61C6
:10319000A36913B1012120469847302383F3118896
:1031A00000210A4800F000FB002383F31188EB069E
:1031B00006D51021A36AD960236A0BB1024898474B
:1031C000BDE8384000F07CBDA8230020B8230020D3
:1031D00038B5124CA36A1D69AA0712D05A6922F0A9
:1031E00010025A61A36913B1022120469847302387
:1031F00083F3118800210A4800F0D6FA002383F3F4
:103200001188EB0606D51021A36A1961236A0BB158
:1032100002489847BDE8384000F052BDA82300207E
:10322000B823002038B50F4CA36A5D682A075D609B
:103230000AD5042222701A6822F002021A60636A18
:1032400013B10021204698476B0706D5A36A9969F8
:10325000236A13B1034809049847BDE8384000F0D9
:103260002FBD00BFA823002010B50E4C204600F053
:103270002FF90D4B0B211320A36200F009F90B214C
:10328000142000F005F90B21152000F001F90B21A5
:10329000162000F0FDF8BDE8104000220E20114677
:1032A000FFF7B0BEA8230020006400400F4B10B50C
:1032B0009842044605D10E4BDA6942F00072DA6199
:1032C000DB690122A36A1A60A36A5A68D20707D58C
:1032D000626851681268D9611A60064A5A6110BD65
:1032E0000121082000F0B0F9EEE700BFA82300207C
:1032F000001002405B87010003291AD8DFE801F0C3
:10330000020A0F14836A9B6813F0E05F14BF012068
:1033100000207047836A9868C0F380607047836AB2
:103320009868C0F3C0607047836A9868C0F3007003
:10333000704700207047000010B5032927D8DFE848
:1033400001F002272B2F836A9968C1F301611831BC
:1033500003EB01131078840648BF5468C0F30011D2
:1033600058BF94884FEA410148BF41EAC40100F0C8
:103370000F00586048BF41F00401906858BF41EA0F
:103380004451D26841F001019860DA60196010BDC3
:10339000836A03F5C073DDE7836A03F5C873D9E771
:1033A000836A03F5D073D5E701290AD002290FD02B
:1033B00081B9836ADA68920701D1186903E00120B4
:1033C0007047836AD86810F0030018BF0120704767
:1033D000836AF2E70020704710B539B9836AD9686B
:1033E00089071BD11B699B0704D110BD012915D08A
:1033F0000229FAD1816AD1F8C031D1F8C401D1F8DB
:10340000C8411461D1F8CC41546120240C610C698D
:10341000A40717D14C6944F0100412E0816AD1F876
:10342000B031D1F8B401D1F8B8411461D1F8BC4140
:1034300054612024CC60CC68A40703D14C6944F0CB
:1034400002044C61C3F34001C3F38004090141EA63
:103450004411147924F030042143117189064BBFC3
:1034600091681189DB085B0D4CBF63F31C0163F3AA
:103470000A01137948BF916060F3030313714FEAA7
:1034800010234FEA104058BF118113705080ACE7F1
:103490000122090100F1604303F56143C9B283F8D9
:1034A000001300F01F039A4043099B0003F160439F
:1034B00003F56143C3F880211A607047090100F1E8
:1034C0006040C9B200F56D4001767047FFF7CCBE91
:1034D00001230370002300F10802C0E9022200F179
:1034E0001002C0E90422C0E90633C0E90833436092
:1034F0007047000010B53023044683F3118802237F
:1035000041600370FFF7D2FE04230020237080F394
:10351000118810BD2DE9F0411F4604460D461646A0
:10352000302383F3118800F108082378052B0DD090
:1035300029462046FFF7E0FE40B1204632462946A4
:10354000FFF7FAFE002080F3118808E03946404674
:1035500000F01AF90028E8D0002383F31188BDE8B1
:10356000F08100002DE9F0411F4604460D46164645
:10357000302383F3118800F110082378052B0DD038
:1035800029462046FFF710FF40B120463246294623
:10359000FFF722FF002080F3118808E039464046FB
:1035A00000F0F2F80028E8D0002383F31188BDE88A
:1035B000F081000000238268037503691B68996825
:1035C0009142FBD25A6803604260106058607047B5
:1035D00000238268037503691B6899689142FBD8D0
:1035E0005A680360426010605860704708B508462A
:1035F000302383F311880B7D032B05D0042B0DD0D2
:103600002BB983F3118808BD00228B691A604FF033
:10361000FF338361FFF7CEFF0023F2E7D1E90032E9
:1036200013605A60F3E70000FFF7C4BF054BD96889
:1036300008751868026853601A6001220275D86024
:10364000FCF7E0BFD824002030B50C4B0446DD6801
:103650004B1C87B00FD02B466846094A00F0CAF8C9
:103660002046FFF7E3FF009B13B1684600F0CAF85D
:10367000A86907B030BDFFF7D9FFF9E7D8240020CB
:10368000ED350008044B1A68DB6890689B68984227
:1036900094BF002001207047D8240020084B10B5AB
:1036A0001C68D868226853601A6001222275DC60A9
:1036B000FFF78EFF01462046BDE81040FCF7A2BF91
:1036C000D824002038B501230025064C06490748B8
:1036D0002370656000F03AFB0223237085F31188A4
:1036E00038BD00BF30250020C0410008D82400208C
:1036F00000F09AB88B60022308618B8208467047FD
:103700008368A3F1440243F8142C026943F8442C63
:10371000426943F8402C094A43F8242CC268A3F1BB
:10372000200043F8182C022203F80C2C002203F886
:103730000B2C034A43F8102C704700BF15060008F5
:10374000D824002008B5FFF7DBFFBDE80840FFF7ED
:103750006BBF0000024BDB6898610F20FFF766BF6C
:10376000D8240020302383F31188FFF7F3BF000033
:1037700008B50146302383F311880820FFF764FF62
:10378000002383F3118808BD064BDB6839B142681A
:1037900018605A60136043600420FFF755BF4FF074
:1037A000FF307047D824002038B504460D46206805
:1037B000844200D138BD036823605C608561FFF7F7
:1037C00033FFF4E710B50A4C23699A6891420CD88C
:1037D0005A6881600360426010609A685860521AAB
:1037E0009A604FF0FF33A36110BD1B68891AECE7A4
:1037F000D8240020C0E90323002310B410BC436187
:10380000FFF7E0BF036881689A680A449A604268DB
:1038100013605A6000234FF0FF320360014B9A613E
:10382000704700BFD824002070B5124D2A46EB69BE
:103830000133EB6152F8103F934206D030269A686C
:10384000013A9A602C69A36803B170BDD4E90021E4
:103850000A605160236083F311882046D4E9033164
:10386000984786F3118861690029EBD02046FFF75D
:10387000A9FFE7E7D8240020054A30B5D369D2E98B
:1038800008451B1B181945F10001C2E9080130BDAC
:10389000D824002000207047FEE700007047000099
:1038A0004FF0FF3070470000BFF34F8F024AD368DC
:1038B000DB07FCD4704700BF0020024008B5074B6F
:1038C0001B7853B9FFF7F0FF054B1A69120641BF89
:1038D000044A5A6002F188325A6008BD4825002027
:1038E000002002402301674508B5054B1B7833B91A
:1038F000FFF7DAFF034A136943F08003136108BD41
:1039000048250020002002407F289ABF00F50030A3
:1039100080020020704700004FF480607047000074
:10392000802070477F2808B50ED8FFF7EDFF0368A9
:10393000013309D100F580630430834201D10120B5
:1039400008BD02680132F7D00020F9E77F2810B5E2
:1039500004461CD8FFF7A8FFFFF7B0FFF3220D4B7A
:103960004FF48061DA6002221A61FFF7CDFF5861DF
:103970001A6942F040021A61FFF796FF00F028F939
:10398000FFF7B2FF2046BDE81040FFF7CBBF002095
:1039900010BD00BF00200240D3072DE9F0411446BE
:1039A00006D54FF451721D4B1A600020BDE8F0811E
:1039B0001B4B82189A4203D940F24932174BF3E766
:1039C000FFF77CFF4FF00108FFF76EFF154F401A1D
:1039D000012C0E4600EB010503D8FFF785FF0120FF
:1039E000E4E73388C7F810802B80FFF75DFF0023E2
:1039F0003B612B8831F8022B9BB29A420CD04FF4DA
:103A00005872064B1A60084B1D60084B1C60084B2F
:103A10001E60FFF769FFC8E7023CD9E74425002094
:103A20000000020800200240402500203C25002024
:103A300038250020084908B50B7828B11BB9FFF7D5
:103A40003DFF01230B7008BD002BFCD0BDE80840F2
:103A50000870FFF749BF00BF4825002038B5EFF3D5
:103A60001185BDBBEFF30584C4F308043023C4B152
:103A700083F31188FFF700FF44014B01241A43EA46
:103A8000D06363EB0103A2009B00121843EA947316
:103A900041EB0301C900D00041EA527185F311885E
:103AA00038BD83F31188FFF7E7FE45014B012D1A5E
:103AB00043EAD06363EB0103AA009B00121843EAB8
:103AC000957341EB0301C900D00041EA527184F3C0
:103AD000118838BDFFF7D0FE44014B01241A43EA98
:103AE000D06363EB0103A2009B00121843EA9473B6
:103AF00041EB0301C900D00041EA527138BD00BF5B
:103B000038B5FFF7ABFF00230F4A104CC00840EA5E
:103B10004170A0FB025EA0FB040CC9081CEB050071
:103B2000A1FB04455B410019A1FB021043EB050317
:103B300011EB0E0140F100005B1840F100001B0981
:103B400043EA007038BD00BFA59BC420CFF753E304
:103B500010B5094C013AD2B2FF2A00D110BD53086A
:103B60009800043054F8233000599BB243EA0043D4
:103B700041F8043BEEE700BF046C004030B5074855
:103B8000013AD2B2FF2A00D130BD0D88540840F866
:103B90002450A3004C8804331C50F1E7046C00400F
:103BA00007B50122002001A9FFF7D2FF019803B059
:103BB0005DF804FB13B50446FFF7F2FFA04205D001
:103BC0000122002001A90194FFF7D8FF02B010BD27
:103BD0007047000045F25552064B1A6003225A60A6
:103BE00040F2FF729A604CF6CC421A600122024BFE
:103BF0001A7070470030004049250020034B1B78A5
:103C00001BB14AF6AA22024B1A60704749250020D0
:103C100000300040044B1A682AB902F1804202F5D4
:103C20000432526A1A6070474C2500204FF08072AF
:103C3000014B5A62704700BF0010024008B5FFF701
:103C4000E9FF024B1868C0F3407008BD4C25002006
:103C500008B5FFF7DFFF024B1868C0F3007008BD1E
:103C60004C250020EFF30983203383F309880023D8
:103C700083F3118870470000302080F3118862B60A
:103C80000C4B0D4AD96821F4E0610904090C0A4380
:103C9000DA60D3F8FC20094942F08072C3F8FC20B6
:103CA0000A6842F001020A602022DA7783F82200D3
:103CB000704700BF00ED00E00003FA05001000E0CF
:103CC000302310B583F311880B4B5B6813F400634A
:103CD0000FD0EFF309844FF08073203CE36184F34D
:103CE0000988FFF7CFFC10B1044BA36110BD044B52
:103CF000FBE783F31188F9E700ED00E027060008F1
:103D00002A06000870470000FEE700000A4B0B4837
:103D10000B4A90420BD30B4BC11EDA1C121A22F035
:103D20000302994288BF00220021FDF79DBE53F88F
:103D3000041B40F8041BECE72C420008D0250020AF
:103D4000D0250020D0250020FEE7000070B500251A
:103D500004461A4B86B0856201630E465860FFF731
:103D60008BFF04F11003C4E904334FF0FF33A36168
:103D7000134BE561D9692B460A462046C4E908235E
:103D800004F134018023C4E900440E4AA560E562D1
:103D90002565FFF7AFFC01230B4AE0600375009235
:103DA000726868460192B268CDE90223074BCDE9FB
:103DB0000435FFF7C7FC06B070BD00BF30250020FA
:103DC000D8240020B6410008BB410008493D000846
:103DD00000F030B808B500F063F9FFF773FCBDE8F8
:103DE0000840FFF717BF0000704700004FF0FF3199
:103DF0000E4B1A6919611A6900221A611869D8688C
:103E0000D960D968DA60DA68DA6942F08052DA613A
:103E1000DA69DA6942F00062DA61054ADB6913683F
:103E200043F48073136000F01BB900BF0010024020
:103E300000700040194B1A6842F001021A601A68BB
:103E40009007FCD51A6802F0F9021A6000225A6045
:103E50005A6812F00C0FFBD11A6842F480321A60D3
:103E60001A689103FCD55A6842F4E8125A601A683D
:103E700042F080721A601A689201FCD51221084A39
:103E80005A60084A11605A6842F002025A605A6841
:103E900002F00C02082AFAD1704700BF001002405D
:103EA00000641D0000200240084A08B551691368EB
:103EB0000B4003F00103536123B1054A13680BB1B2
:103EC00050689847BDE80840FFF7FABE000401407B
:103ED00050250020084A08B5516913680B4003F0CB
:103EE0000203536123B1054A93680BB1D068984728
:103EF000BDE80840FFF7E4BE000401405025002063
:103F0000084A08B5516913680B4003F00403536174
:103F100023B1054A13690BB150699847BDE80840C1
:103F2000FFF7CEBE0004014050250020084A08B526
:103F3000516913680B4003F00803536123B1054A2C
:103F400093690BB1D0699847BDE80840FFF7B8BE48
:103F50000004014050250020084A08B55169136843
:103F60000B4003F01003536123B1054A136A0BB1F0
:103F7000506A9847BDE80840FFF7A2BE0004014020
:103F800050250020174B10B55A691C68144004F4E2
:103F900078725A61A30604D5134A936A0BB1D06AAA
:103FA0009847600604D5104A136B0BB1506B9847C5
:103FB000210604D50C4A936B0BB1D06B9847E205F0
:103FC00004D5094A136C0BB1506C9847A30504D56E
:103FD000054A936C0BB1D06C9847BDE81040FFF7D1
:103FE0006FBE00BF00040140502500201A4B10B5E1
:103FF0005A691C68144004F47C425A61620504D575
:10400000164A136D0BB1506D9847230504D5134A1A
:10401000936D0BB1D06D9847E00404D50F4A136E31
:104020000BB1506E9847A10404D50C4A936E0BB1A6
:10403000D06E9847620404D5084A136F0BB1506FD5
:104040009847230404D5054A936F0BB1D06F984766
:10405000BDE81040FFF734BE0004014050250020A9
:10406000062108B50846FFF713FA06210720FFF7D7
:104070000FFA06210820FFF70BFA06210920FFF7A7
:1040800007FA06210A20FFF703FA06211720FFF797
:10409000FFF9BDE8084006212820FFF7F9B9000024
:1040A00008B5FFF7A3FE054800F00CF8FFF70EFA7D
:1040B000FFF79AFEBDE8084000F002B8CC410008C6
:1040C00000F042B8002319461C4A0133102BC2E904
:1040D000001102F10802F8D1194B9A6942F07D02F1
:1040E0009A619B690268174BDA6082685A6042687D
:1040F0001A60C26803F58063DA6042695A60026937
:104100001A608269C3F80C24026AC3F80424C269E5
:10411000C3F80024426AC3F80C28C26AC3F8042812
:10412000826AC3F80028026BC3F80C2C826BC3F8B8
:10413000042C426BC3F8002C704700BF50250020B0
:1041400000100240000801404FF0E023044A08211B
:104150005A6100229A6107220B201A61FFF7AEB95B
:104160003F19010008B5302383F31188FFF7C0FA27
:10417000002383F3118808BD08B5FFF7F3FFBDE8FE
:104180000840FFF79DBD00006F72672E6172647575
:1041900070696C6F742E663130332D52454C415925
:1041A0000040A2E4F1646891060041A3E5F265696C
:1041B0009207006330006D61696E0069646C650090
:1041C000B3410008D8230020D824002000180000A4
:1041D000444441444454494401000000424444449E
:1041E000444444440000000044444444444444449F
:1041F000000000004444444444444444000000009F
:104200004444444444444444E803000000000000A3
:10421000009C010000000000FE2A0100D204000002
:0C422000640000000000000040420F009D
:00000001FF
