:020000040800F2
:1000000000090020B1010008C12A0008792A00086F
:10001000A12A0008792A0008992A0008B3010008DB
:10002000B3010008B3010008B3010008693B0008F0
:10003000B3010008B3010008B3010008B3010008D0
:10004000B3010008B3010008B3010008B3010008C0
:10005000B3010008B3010008B9480008E1480008EE
:10006000094900083149000859490008B30100084E
:10007000B3010008B3010008B3010008B301000890
:10008000B3010008B3010008B30100082D2A0008DD
:10009000592A0008692A0008B301000881490008AC
:1000A000B3010008B3010008B3010008B301000860
:1000B000554A0008B3010008B3010008B301000865
:1000C000B3010008B3010008B3010008B301000840
:1000D000B3010008B3010008B3010008B301000830
:1000E000E5490008B3010008B3010008B3010008A6
:1000F000B3010008B3010008B3010008B301000810
:10010000B3010008B3010008B3010008B3010008FF
:10011000B3010008B3010008B3010008B3010008EF
:10012000B3010008B3010008B3010008B3010008DF
:10013000B3010008B3010008B3010008B3010008CF
:10014000B3010008B3010008B3010008B3010008BF
:10015000B3010008B3010008B3010008B3010008AF
:10016000B3010008B3010008B3010008B30100089F
:10017000B3010008B3010008B3010008B30100088F
:10018000B3010008B3010008B3010008B30100087F
:10019000B3010008B3010008B3010008B30100086F
:1001A00061160008000000000000000000000000D0
:1001B00002E000F000F8FEE772B6374880F30888E6
:1001C000364880F3098836483649086040F2000016
:1001D000CCF200004EF63471CEF200010860BFF39D
:1001E0004F8FBFF36F8F40F20000C0F2F0004EF669
:1001F0008851CEF200010860BFF34F8FBFF36F8FBD
:100200004FF00000E1EE100A4EF63C71CEF2000114
:100210000860062080F31488BFF36F8F04F068F93C
:1002200004F0EAF94FF055301F491B4A91423CBF98
:1002300041F8040BFAE71D49184A91423CBF41F8C6
:10024000040BFAE71A491B4A1B4B9A423EBF51F86E
:10025000040B42F8040BF8E700201849184A9142B1
:100260003CBF41F8040BFAE704F046F904F016FA33
:10027000144C154DAC4203DA54F8041B8847F9E7D7
:1002800000F0E8FB114C124DAC4203DA54F8041BA9
:100290008847F9E704F02EB900090020001100207A
:1002A0000000000808ED00E0000100200009002027
:1002B000B04B0008001100206811002068110020D8
:1002C000E83A0020A0010008A4010008A4010008E9
:1002D000A40100082DE9F04F2DED108AC1F80CD0D3
:1002E000C3689D46BDEC108ABDE8F08F002383F300
:1002F00011882846A047002003F0A6FDFEE703F082
:100300002FFD00DFFEE7000080EA0102844612F0C4
:10031000030F4FD111F0030F32D14DF8044D11F0FE
:10032000040F51F8043B0BD0A3F101329A4312F0B1
:10033000803F04BF4CF8043B51F8043B16D100BF8A
:1003400051F8044BA3F101329A4312F0803FA4F11B
:1003500001320BD14CF8043BA24312F0803F04BFA2
:1003600051F8043B4CF8044BEAD023460CF8013B0F
:1003700013F0FF0F4FEA3323F8D15DF8044B7047B9
:1003800011F0010F06D011F8012B0CF8012B002AF7
:1003900008BF704711F0020FBFD031F8022B12F0E6
:1003A000FF0F16BF2CF8022B8CF8002012F47F4FA1
:1003B000B3D1704711F8012B0CF8012B002AF9D1A9
:1003C000704700BF10B4044C03460A4620685DF82D
:1003D000044B194603F0A2BF0011002010B5054CD4
:1003E00034B113460A4601460220AFF3008010BD27
:1003F000204610BD00000000024B0146186803F0C3
:1004000091BF00BF00110020024B0146186803F0A5
:100410008DBF00BF0011002001292DE9F0415BD9FB
:100420004FF00108C64600244FF0FF35434608E070
:10043000A3EB05081C464FF0010E04EB0E03994296
:1004400010D900EB050CC75C1CF80E60B742EFD367
:1004500032D04FF001082546C646444404EB0E0353
:100460009942EED80127C2F80080BE4600244FF022
:10047000FF363B4607E09F1B1C464FF0010E04EB86
:100480000E03994210D900EB060C10F803801CF8FB
:100490000EC0E045EFD817D001272646BE463C44A3
:1004A00004EB0E039942EED80136681C864201D354
:1004B00017603046BDE8F081C6450ABF74440EF1AE
:1004C000010E4FF0010EB8E7BE450ABF74440EF1AD
:1004D000010E4FF0010ED2E701270026E8E700BF2A
:1004E0002DE9F04F164685B003AA0D46074619467A
:1004F00030461C46FFF790FFDDF80CA00246804610
:1005000006EB0A01304600F027FA2A1B002852D1D8
:1005100001468446A4EB0A0BC8F10109CDF804A0FA
:100520008845434638BF0B469C4219D95D1E03EBF4
:100530000C003544384402E001339C4210D010F8DE
:1005400001EB15F801AFF245F6D09C4208D9CC4436
:100550009C4400219445E3D9002005B0BDE8F08F0C
:10056000884508F1FF3367D908EB0C00384406EBE7
:100570000805CDF8008002E08B4212D0534615F8F2
:10058000018D10F801EDF04503F1FF3AF4D0DDF8EC
:10059000008001330131994208D8019B59469C449F
:1005A000D8E701319942DDF80080F6D907EB0C005D
:1005B00005B0BDE8F08FA4EB0801414538BF4146C6
:1005C000444501F101014FF0000C31D908F1FF3E23
:1005D000C8F101090CEB080006EB0E053844434650
:1005E00002E001339C4223D010F801AB15F801BFA3
:1005F000D345F6D09C421BD9CC449C449445ABD8FF
:100600004445E7D806EB08090CEB08053D4448468D
:1006100001E0B342CAD010F801AD15F801EDF24582
:100620000346F6D08C44944596D84445CED8EBE7A3
:10063000B8F1000FE6D1B9E74346ABE72DE9F04F3B
:100640001546ADF21C4D06468A4605AA19462846AF
:100650000093FFF7E1FE009B80460DF2144142F843
:10066000043F8A42FBD15C1E002B00F0CE80691E45
:1006700004EB050C06AF11F8010F5A1A013A2A448F
:10068000614547F82020F6D1DDF814B0009305EB62
:100690000B014246284600F05FF9009B0146AAEB99
:1006A000030A00285CD1A3EB0B03C8F101020093FD
:1006B000CDE901B20346A9460AE021B10199914270
:1006C000009988BF0A46134453454FF0000142D8B1
:1006D00006EB030C1CF8042057F82220002AECD16A
:1006E0008845424638BF0A46A24212D2551ED0184B
:1006F0004D44304402E00132A2420AD010F801EB2E
:1007000015F801BFF345F6D0A24202D202990B447C
:10071000D9E7884508F1FF327BD908EB0300304464
:1007200009EB0805CDF80C8002E08A426AD05A46EF
:1007300015F8018D10F801EDF04502F1FF3BF4D002
:10074000DDF80C8001320131914260D8019A0099A4
:1007500013445345BCD900200DF21C4DBDE8F08F69
:10076000A3EB080343454FF0000C38BF434606EBAC
:100770000C0001330193035D57F8233008F1FF3972
:10078000C8F1010B4BB19C44D445E4D806EB0C00F6
:10079000035D57F82330002BF5D1A04517D208EBA5
:1007A0000C02324405EB09014346CDF800C002E0DB
:1007B0000133A34223D012F801CB11F801EFE64533
:1007C000F6D0DDF800C0A34238BFDC44DBD3B8F17B
:1007D000000FC1D008EB0C01314405EB0802CDF845
:1007E00000C001E0AB42B7D012F801ED11F801CD25
:1007F000E6451346F6D0DDE900C39C44C4E7DDF8C6
:1008000000C0E4E7DDF80C809DE706AF3CE76046FA
:10081000A2E7424697E700BF2DE9F0470446C0B083
:10082000002B6AD0012B0D4690461F4600F08680B3
:100830008B425ED8CD1A022B00EB050661D0B3F5D2
:10084000807F00F282804FF48072002168465D1E36
:1008500000F08AFF98F80010012240460B4610F87D
:10086000011FA1EBC303DBB20DF803200132954257
:10087000F4D808EB07034FF0000A13F8022C18F81D
:100880000530A3EBC203DBB21DF803900DF8035053
:10089000A5EB0909B44201D92BE063B92C44A64267
:1008A00014F8013C94F800C0ACEBC30C5FFA8CFC6C
:1008B0001DF80C30F1D29D42A4EB0304EAD80F2DB1
:1008C00007D9042208EB0A0104EB0A0000F044F8FF
:1008D00060B92A464146204600F03EF868B1BAF1B8
:1008E000030F8CBFAAF1040AA7F1050A4C44B442D5
:1008F000D4D9002040B0BDE8F087204640B0BDE824
:10090000F08713785078217840EA0340234613F8A3
:10091000012F9E4242EA01421BD39042EDD00136A4
:1009200001E0904208D013F8011F9E4241EA0242C2
:10093000F7D18242DDD13346581EDBE711782A46D3
:1009400040B0BDE8F04700F035B840B0BDE8F04732
:1009500074E61E46EDE700BF032A30B415D941EA1C
:100960000004A40784460B4604D0541E0FE0043A4A
:10097000032A08D91946604653F8044B5CF8045B17
:10098000A542F4D0F1E760461946541E7AB1431EE1
:100990000139021901E09A4209D013F8010F11F848
:1009A00001CF6045F7D0A0EB0C0030BC70470020B1
:1009B00030BC704701F0FF01102A2BDB10F0070F4D
:1009C00008D010F8013B013A8B422DD010F0070FF0
:1009D00042B3F6D1F0B441EA012141EA014122F0EB
:1009E00007047FF000070023F0E80256083C85EA80
:1009F000010586EA010685FA47F5A3FA87F586FA26
:100A000047F6A5FA87F68EB9EED1F0BC01F0FF01EA
:100A100002F0070232B110F8013B013A83EA010308
:100A200013B1F8D10020704701387047002D06BF80
:100A300035460338073815F0010F07D1013015F49A
:100A4000807F02BF013015F4C03F0130F0BC013897
:100A5000704700BFF8B500F015FE03F0EBFC074649
:100A600003F03CFD0646C0BB274B9F4235D0013307
:100A70009F4235D0254B27F0FF029A4233D1F8B27E
:100A800000F044FC354642F2107400F045FC08B119
:100A90000024254601F0E4F848B3032000F03AF8BA
:100AA0000024254636B11A4B9F4203D003F00EFDB9
:100AB00000242546002003F0C7FC0DB100F040F8EB
:100AC00000F05EFC02F004F80546ACB900F0A0FCB2
:100AD0004FF47A7003F0BEF9F7E735460024D4E707
:100AE00004460125D1E705464FF47A74CDE7B4F505
:100AF0007A7F08BF0125D5E701F0EAFF431BA34237
:100B0000E4D900F01DF8DDE7010007B0000008B0EF
:100B1000263A09B0084B187003280CD8DFE800F01B
:100B200008050208022000F00BBE022000F0FEBD06
:100B3000024B00225A60704770110020681100209B
:100B400010B501F08DF830B1234B03221A70234BFE
:100B500000225A6010BD224B224A1C4619680131FE
:100B6000F8D004339342F9D16268A242F2D31E4B0B
:100B70009B6803F1006303F520439A42EAD203F035
:100B800077FC03F089FC002000F096FD0220FFF7BF
:100B9000C1FF164B9A6D00229A65996F9A67996FFB
:100BA000D96DDA65D96FDA67D96F196E1A66D3F81D
:100BB0008010C3F88020D3F8803072B64FF0E02365
:100BC0003021C3F8084DD4E9003281F311889D46E5
:100BD00083F308881047BDE77011002068110020DA
:100BE00000A0000820A000085011002000100240C2
:100BF000094A136849F2690099B21B0C00FB0133E2
:100C00001360064B186844F2506182B2000C01FB7D
:100C10000200186080B2704764110020601100204B
:100C200070B50C4615461E4602F0B4FA50B9022EB5
:100C300010D1012D0ED112A3D3E90023C4E9002362
:100C4000012007E0282D10D005D8012D09D0052D51
:100C50000FD0002070BD302DFBD10BA3D3E90023B2
:100C6000ECE70BA3D3E90023E8E70BA3D3E90023C8
:100C7000E4E70BA3D3E90023E0E700BFAFF3008074
:100C8000401DA12026812A0B78F6339F93CACD8D73
:100C90009E6AC421818A46EE26417272DF25D7B74B
:100CA000F017304A39059E5610B50021102204462F
:100CB00000F05AFD034B03CB206061601868A06010
:100CC00010BD00BF9075FF1FF0B5ADF5517D6EAC46
:100CD0004FF4C47207460D462046002100F044FD43
:100CE00001F0F6FE264B4FF47A72B0FBF2F018607A
:100CF00093E80700022384E807000DF5ED702382D6
:100D0000FFF7D2FF42F204631E49238407A8FFF7CE
:100D1000FBFA1D2384F832310DF2EB2207AB0DF103
:100D2000340C1E4603CE664510605160334602F116
:100D30000802F6D130681060337913710FAE314676
:100D40000122204600F05CFD80B2CDE90460002362
:100D50000393AB7E029305F11903019301230093E2
:100D6000E97E05A3D3E90023384602F0B5FA0DF574
:100D7000517DF0BDAFF300809E6AC421818A46EEAA
:100D8000B4160020EC4A00082DE9F0412C4C237ADF
:100D9000DAB080460D465BBB27A9284600F056FE18
:100DA0000746002842D19DF89D60C82E3ED80146D6
:100DB0004FF4A662204600F0D7FC4FF48073C4F8CD
:100DC000F8314FF40073C4F80C3332464FF44073DB
:100DD0000DF19E0104F10900C4F82034264400F00E
:100DE000B7FC9DF89C30777223720BB9EB7E2372AF
:100DF0008122002106AC27A800F0B6FC0122214682
:100E000027A800F069FE80B2CDE9044000230393D7
:100E1000AB7E029305F11903019328230093E97E29
:100E200005A3D3E90023404602F056FA5AB0BDE8C4
:100E3000F08100BFAFF3008026417272DF25D7B783
:100E40007C110020F0B5254E4FF48A73F1B003FBFE
:100E50000065002496F8D83085F8DC30D022214691
:100E60003CA885F8E84000F07FFC06F1090000F09E
:100E700079FCD5F8E4308DF8F000C2B206AF06F187
:100E800009010DF1F100CDE93A3400F061FC394679
:100E900001223AA800F054FE80B2CDE90470082384
:100EA0000127CDE9023706F1D803019330230093DF
:100EB000317A0B4807A3D3E9002302F00DFAA042D0
:100EC00006DD01F005FEC5F8E000384671B0F0BD62
:100ED0002046FBE778F6339F93CACD8D7C11002026
:100EE000B43700202DE9F0411D4D1E4E1E4F86B037
:100EF000284602F01DFA034658B30024CDE9034406
:100F0000ADF814401A7B8DF8142058689968029443
:100F100003AA03C21B68DFF8548043F00043029326
:100F200001F0D8FD821941F10003009402A938466E
:100F300001F07AF8A04205DD284602F0FDF988F8B4
:100F40000040D5E798F80030072B05D8013388F822
:100F5000003006B0BDE8F081014802F0EDF9F8E795
:100F6000B437002040420F00C8160020791100203D
:100F700010B50021044600F0C1FB601C0B4C80B290
:100F8000A4F82C0500F0A2FB70B1B4F82C0500F019
:100F9000ADFB014640B9B4F82C0500F0AFFBB4F846
:100FA0002C05013080B2EBE710BD00BF7C110020A2
:100FB00010B50A4B0A4A1A6003F5805393F8702063
:100FC0003AB9DC6E2CB1204600F0C4FE204601F098
:100FD00001F8BDE81040034800F0BCBEC816002070
:100FE000484B0008202700202DE9F04F8FB000AFBC
:100FF00005460C4602F0CEF800284AD1237E022B8B
:101000001AD1E38A012B17D101F062FD0646FFF7E2
:10101000EFFD4FF4C873DFF8EC82B0FBF3F206F596
:10102000167602FB130316FA83F3C8F80030E37E4A
:1010300033B9AE4B00221A703C37BD46BDE8F08F85
:1010400007F12401204600F0B5FC0028F4D107F197
:101050001400FFF729FE97F8264007F114012246F5
:1010600007F12700FFF778FC0028E2D10F2C08D801
:101070009E4B1C70D8F80030A3F51673C8F80030EA
:10108000DAE797F824100029D6D0284602F07AF83B
:10109000D2E7E38A282B38D010D8012B30D0052B8B
:1010A000CAD1BFF34F8F9249924BCA6802F4E062F3
:1010B0001343CB60BFF34F8F00BFFDE7302BBBD195
:1010C000DFF844B2E17E9BF808209142B4D1607E03
:1010D0005946002291F8DC50854200F0B48001327C
:1010E000042A01F58A71F5D1DBF8002040F6B83109
:1010F000FA328A4294BFCBF80020CBF800109BE76D
:1011000021462846FFF7E0FD96E721462846FFF7EF
:101110003BFE91E7B2F8EC507B60EA1C930822F0AA
:1011200003020732D208BB60A8EBC2039D46BB682E
:10113000EA469A000021504600F016FB7B6803F156
:10114000EE012A465944504600F002FB14B9012032
:1011500000F0B2FA9BF8D20000F0B8FA044638B9B1
:101160008BF8080000F0D2FA204600F0A5FAB4E0AF
:10117000DBF8D4203AB99BF8D200BBF82C25824288
:1011800001D8FFF7F5FEDBF8D4202A44944208D2B8
:101190009BF8D200BBF82C250130824201D8FFF722
:1011A000E7FE3A7ADBF80400514600F0E5FA08B9A8
:1011B000C5467BE0DBF804209BF8D2002A44CBF83C
:1011C0000420DBF8D42005EB020ACBF8D4A000F011
:1011D0007DFA824509D39BF8D22001328BF8D220C8
:1011E000DBF8D420121BCBF8D420FF2D10D800241C
:1011F0008BF8084000F08AFA204600F05DFA00F013
:101200002FFD3D4B188108B9FFF79AFCC54613E73F
:10121000FB689BF8D90009FB03B2D2F8E41082F80E
:10122000E86001F58061C2F8E060C2F8E410FFF701
:1012300009FEFFF757FE9BF8D920013202F00302A6
:101240008BF8D920B4E74FF48A7909FB02F505F150
:10125000EA015944204600F0A7FC064600287FF426
:10126000EBAE5D44012285F8E82001F031FCD5F8B1
:10127000E020DBED007ADFED216A801A192838BF03
:10128000192040F6B832904228BF1046B8EE677A6F
:1012900007EE900AF8EEE77A67EEA67ADFED186AB5
:1012A000E7EE267AFCEEE77ACBED007A9BF8D930B0
:1012B000FB6009FB03F30BEB0302DBF8040092F87D
:1012C000E81059B1D2F8E4408442E8463FF422AF36
:1012D000002182F8E810C2F8E010C546DBF80430BF
:1012E000054A9B0A01331381A6E600BFAC16002015
:1012F00000ED00E00400FA05B4160020CDCCCC3D92
:101300006666663FB01600207C110020014B187005
:10131000704700BFB027002038B54FF00054144B81
:1013200022689A4221D1607DF0B1124B12491870A7
:101330001248237D03724FF48073C0F8F8314FF4E4
:101340000073C0F80C3300254FF44073C0F820340C
:10135000C0F8E450C922093000F0FAF9E022294629
:10136000204600F001FA012038BD0020FCE700BF54
:101370009AAD44C5B0270020160000207C11002043
:1013800037B500F06DFC194D19492881022301225F
:1013900018486B7101F03CFA00230193164B174972
:1013A00000931748174B4FF4805201F0C3FE164BC1
:1013B000197811B1124801F0E5FE01F089FB0446ED
:1013C000FFF716FC4FF4C87304F51674B0FBF3F284
:1013D00002FB13000D4B14FA80F0186003F07EF846
:1013E00008B10F232B8103B030BD00BFB41600201D
:1013F00040420F00C8160020210C0008B42700202E
:10140000B4370020E90F0008B0270020B0160020F4
:101410002DE9F04F2DED028B0FF23829D9E9008923
:10142000834C93B00BAD9FED7E8BFFF75BFD814F3F
:10143000DFF828A200230A93ADF834300B936B60D9
:101440004FF0000B5B468DED008B01260DF11D0268
:1014500007A938468DF81C608DF81DB001F088F999
:101460009DF81C30002B40F0A380204601F092FE36
:101470000546002843D1704F01F02AFB3B68984293
:101480003DD301F025FB8246FFF7B2FB4FF4C87352
:101490000AF5167AB0FBF3F202FB13001AFA80F099
:1014A0003860664F97F800B0BBFA8BF3CBF1100AA7
:1014B0005FFA8AFA5B090EA88DF82830FFF7F4FB73
:1014C000BAF1060F28BF4FF0060A0EAB03EB0B0173
:1014D00052460DF1290000F03BF90AAB03931823A3
:1014E00002930AF10102564BD2B2CDE90063049295
:1014F00020464DA3D3E9002301F090FE3D7001F09A
:10150000E7FA504A504D1368C31AB3F57A7F2ED3C9
:10151000106001F0DFFA02460B46204601F016FF8C
:10152000204601F037FE10B32B7A484E002B0CBF3B
:1015300002230323737101F0CBFA0EAF4FF47A73D9
:101540000122B0FBF3F039463060304600F00AFA71
:10155000182302933E4B019380B240F25513CDE91C
:101560000370009342464B46204601F057FE2B7A0B
:1015700093B101F0ADFA002607464FF48A7A95F848
:10158000D900304400F003000AFB005393F8E82030
:1015900092B30136042EF2D1C82002F05BFC2B7A04
:1015A000002B7FF43FAF13B0BDEC028BBDE8F08F92
:1015B000DAF8143083F00803CAF8143059461022C0
:1015C0000EA800F0D1F80DF11E0308AA0AA93846AA
:1015D00000F030FE95E803000FAB83E803009DF8B0
:1015E00034308DF844300A9B0E930EA9DDE90823B0
:1015F000204602F07BF823E7D3F8E02042B12B68C5
:10160000FA2B38BFFA23BA1A0533B2EB430FC0D313
:10161000FFF718FC0028BCD1BEE700BFAFF3008085
:101620000000000000000000401DA12026812A0BC0
:10163000B4370020C8160020B0160020AC160020D9
:10164000C0160020741100207C110020B416002068
:1016500078110020F1C6A7C1D068080F0004004827
:1016600008B5054800F080FEBDE80840034A04497B
:10167000002003F035BA00BFC81600201C38002037
:10168000B10F000870B502F07FFD094E094C3080A3
:10169000002520683388834208D902F071FD236851
:1016A00005440133B5F5204F2360F2D370BD00BF70
:1016B0000C3800201038002002F014BE00F1006049
:1016C000920000F5204002F09DBD0000054B1A6815
:1016D000054B1B889B1A834202D9104402F050BD6F
:1016E00000207047103800200C380020024B1B6887
:1016F000184402F04BBD00BF10380020024B1B689D
:10170000184402F057BD00BF10380020064991F878
:10171000243033B10023086A81F824300822FFF70F
:10172000CDBF0120704700BFE4370020022802BF70
:10173000024B4FF400229A61704700BF000400483A
:10174000022802BF014B08229A617047000400483A
:1017500010B50023934200D110BDCC5CC4540133BA
:10176000F8E70000FFF7FEBF02440346934200D1B2
:10177000704703F8011BF9E72DE9F8431F4D1446A4
:1017800095F824200746884622B9DFF870906CB996
:10179000012009E02B6A03EB82038342F5D0FFF7B7
:1017A000B5FF0028F1D10020BDE8F88395F824307A
:1017B0002BB92022FF2148462F62FFF7D5FF95F86D
:1017C0002400C0F10802A24228BF2246D6B24146F8
:1017D000920005EB8000FFF7BBFF95F82430A41BB7
:1017E0001E44F6B2082E17449044E4B285F82460F3
:1017F000CDD1FFF78BFF0028C9D1D4E7E437002013
:101800002DE9F3470D46044600219046284640F254
:101810007912FFF7A9FF234620220021284601F074
:1018200003FF231D02222021284601F0FDFE631D37
:1018300003222221284601F0F7FEA31D03222521C1
:10184000284601F0F1FE04F1080310222821284661
:1018500001F0EAFE04F1100308223821284601F0C5
:10186000E3FE04F1110308224021284601F0DCFECA
:1018700004F1120308224821284601F0D5FE04F1A4
:10188000140320225021284601F0CEFE04F1180353
:1018900040227021284601F0C7FE04F120030822EF
:1018A000B021284601F0C0FE04F121030822B8212E
:1018B000284601F0B9FE04F12207C0263B46314616
:1018C00008222846083601F0AFFEB6F5A07F07F1E2
:1018D0000107F3D194F832308DF8073031460DF11D
:1018E00007030822284601F09FFE002604F1330A70
:1018F0009DF807304FEAC6099E4209F5A47720D328
:1019000094F83231502B28BF50238DF80730B8F1AE
:10191000000F08D139460DF107030722284601F0D0
:1019200083FE09F24F17002604F233149DF80730A6
:101930009E4207EBC6010DD30731C80802B0BDE8CF
:10194000F0870AEB060308223946284601F06CFEB0
:101950000136CDE7A3190822284601F065FE0136BD
:10196000E4E7000038B50C46002105462160034637
:10197000C4F803102046202201F056FE2B1D2046FD
:101980000222202101F050FE6B1D2046032222215D
:1019900001F04AFEAB1D20460322252101F044FE42
:1019A000204605F108031022282101F03DFE072002
:1019B00038BD0000F7B5057F04460E462DB1838A79
:1019C000122B02D9012003B0F0BD002319460722D3
:1019D0000096204601F0F4FC731C009301220023C2
:1019E0000721204601F0ECFCD5B9B31C0093052279
:1019F0002B460821204601F0E3FC0D25B378102B7F
:101A0000E0D83746B278BB1B934210D3237FA08A1D
:101A10000735ED08B3B9A8422CBF00200120D2E75A
:101A2000A38ADB00083BDB08B3700825E6E7FB1C54
:101A30000093294600230822204601F0C1FC083506
:101A40000137DFE7401B18BF0120BCE7F7B5047F73
:101A500005460E462CB1838ACA2B02D9012003B059
:101A6000F0BD0023009608221946284601F0A8FC84
:101A7000DCB9731C0822009311462346284601F066
:101A80009FFC10247378C82BE8D8012372785F1C60
:101A9000013B934210D32B7FA88A0734E408B3B9E3
:101AA000A0422CBF00200120D9E7AB8ADB00083B15
:101AB000DB0873700824E5E7F3190093214600233F
:101AC0000822284601F07CFC08343B46DEE7001B78
:101AD00018BF0120C3E70000F7B50E4604460021F9
:101AE000154630468122FFF73FFE2346082200219B
:101AF000304601F099FD63787F2B28BF7F238DF856
:101B000007309DB90DF1070307220821304601F087
:101B10008BFD0F27002502349DF807309D4207EB0F
:101B2000C50105D30731C80803B0F0BD0827F1E7A8
:101B300063190822304601F077FD0135ECE700001B
:101B4000F7B50E460546002114463046CE22FFF773
:101B50000BFE2B4628220021304601F065FD2B7A32
:101B6000C82B28BFC8238DF807308CB90DF10703A7
:101B700008222821304601F057FD30242F469DF8D9
:101B800007207B1B934205D3E01DC00803B0F0BDC6
:101B90002824F3E707F1090321460822304601F023
:101BA00043FD08340137EAE7F7B5047F05460E46E2
:101BB00034B1838AB3F5827F02D9012003B0F0BD2E
:101BC0000096012310220021284601F0F9FBDCB920
:101BD000B31C0093092223461021284601F0F0FB94
:101BE00019247388B3F5807FE7D837467288BB1B0A
:101BF000934210D32A7FAB8A0734E408B2B99C42DF
:101C000094BF00200120D9E7AB8ADB00103BDB0842
:101C100073801024E5E73B1D009321460023082232
:101C2000284601F0CDFB08340137DFE7E01A18BF82
:101C30000120C3E730B5094D0A44914200D130BDBF
:101C400011F8013B5840082340F30004013B2C40AD
:101C500013F0FF0384EA5000F6D1EEE72083B8EDDD
:101C6000F7B5364A106851686B4603C36A46344973
:101C700034480823FEF7D0FD044618B30369B3F5D2
:101C8000583F54D8418B40F22642914251D12E4ABE
:101C9000024402F110018B424DD3103B2949002030
:101CA0009D1AFFF7C7FF2A46064604F118010020D7
:101CB000FFF7C0FFA3689E4202D1E368984232D08A
:101CC0000D2500E00A25214A106851686B4603C3C0
:101CD0006A461F491B480823FEF79EFD044618B3B9
:101CE0000369B3F5583F1FD8B0F8661040F226429A
:101CF000914219D1144A024402F15C018B4213D380
:101D00005C3B104900209E1AFFF794FF32460746BD
:101D100004F164010020FFF78DFFA3689F4203D107
:101D2000E368984200D10025284603B0F0BD0B259A
:101D3000C9E70C25C7E71025C5E700BF0A4B000817
:101D4000DC5F030000A000080860FFF7134B0008E9
:101D5000905F030010B5037C044613B90068FEF7DA
:101D600053FB204610BD00000023BFF35B8FC36010
:101D7000BFF35B8FBFF35B8F8360BFF35B8F7047F5
:101D8000BFF35B8F0068BFF35B8F704770B505468C
:101D90000C30FFF7F5FF05F1080604463046FFF763
:101DA000EFFFA04206D930466D68FFF7E9FF2544F2
:101DB000281A70BD3046FFF7E3FF201AF9E700004C
:101DC00070B50546406898B105F10800FFF7D8FFE7
:101DD00005F10C0604463046FFF7D2FF8442304638
:101DE00094BF6D680025FFF7CBFF013C2C44201AFF
:101DF00070BD000038B50C460546FFF7C7FFA0428E
:101E000010D305F10800FFF7BBFF6B68BFF35B8FD2
:101E10000444B4FBF3F203FB1244AC600120BFF3B3
:101E20005B8F38BD0020FCE72DE9F04114460746E2
:101E30000D46FFF7C5FF844228BF0446D4B1B8461B
:101E400058F80C6B4046FFF79BFF06442E60404657
:101E50007E68FFF795FF331A9C4203D86C6001201F
:101E6000BDE8F0816B60A61B3B68AB603044E86066
:101E70000220F5E72046F3E738B50C460546FFF7A4
:101E80009FFFA04210D305F10C00FFF779FF6B68AC
:101E9000BFF35B8F0444B4FBF3F203FB1244EC602A
:101EA0000120BFF35B8F38BD0020FCE72DE9F04334
:101EB00085B0884669460746FFF7B6FF6C4606B20E
:101EC00004EBC6060025B44207D129463846FFF781
:101ED000D3FF284605B0BDE8F083D4F8049054F849
:101EE000080B08EB05014A46FFF732FC4D44EAE7D0
:101EF000F8B505460C300F46FFF742FF05F108061E
:101F000004463046FFF73CFFA042304688BF6C686D
:101F1000FFF736FF201A386020B130462C68FFF7F3
:101F20002FFF2044F8BD000073B5144606460D4649
:101F3000FFF72CFF844228BF0446DCB101A93046DC
:101F4000FFF7D6FF019B3BB93268C5E90233C5E90B
:101F50000024012002B070BD9C4238BF0194019B57
:101F600028609C426B60F4D93268AA60E41AEC6085
:101F70000220EFE72046EDE72DE9FF410F466946D5
:101F8000FFF7D2FF6C4605B204EBC5050026AC4254
:101F900003D1304604B0BDE8F081D4F8048054F891
:101FA000081BB8194246FFF7D3FB4644EFE7000091
:101FB00038B50546FFF7E0FF044601462846FFF71F
:101FC00019FF204638BD00000121884238BF08466D
:101FD000FEF7F8B908B1FEF717BA704710B40268F7
:101FE00054681A4623465DF8044B18470020704792
:101FF0000020704770470000002070470E20704797
:1020000000F5805090F8D800C0F340007047000001
:1020100000F5805090F9E0007047000000F5805016
:10202000C0F8DC1001207047F7B50C68BDF82070CF
:1020300014F0005473D10D7B082D70D8302585F332
:102040001188456AAE6876010CD4AC68240108D4C6
:10205000AC6814F0805460D184F31188204603B03A
:10206000F0BD01240E6804F1180C002EB8BFF60074
:102070004FEA0C1CB4BF46F00406760545F80C6028
:102080000E680FFA84FC16F0804F18BF05EB0C1E8B
:1020900005EB0C1C1EBFDEF8806146F00206CEF890
:1020A00080610E7BCCF8846105EB04158E68C5F861
:1020B0008C614E68C5F88861DCF8805145F00105F7
:1020C000CCF8805141F2780500EB441C660105EB29
:1020D0004414AC440444CCE900230D46083401F117
:1020E0000C0C55F804EB44F804EB6545F9D12D8848
:1020F0002580841904F5805407F0030594F8946052
:1021000026F00B06354384F89450002484F311889C
:10211000009700F031FD0120A1E70224A2E74FF073
:10212000FF309CE738B500F580540D46E06EFFF7B0
:1021300047FE1F2809D9E06E20222946FFF7B6FE88
:10214000A0F120035842584138BD0020FCE70000B0
:1021500008B5302383F3118800F58050C06EFFF777
:1021600003FE002383F3118808BD000000220260F3
:10217000828142608260704710B500220023C0E96E
:1021800000230023044603810C30FFF7EFFF2046B5
:1021900010BD0000F0B5054600F580500C4690F8E3
:1021A000D83013F0040FC3F3800108BF114661F368
:1021B000820380F8D83005EB441303F584531033C1
:1021C00089B01B79D8074FEA44162FD582B3190777
:1021D0002ED46846FFF7D0FF05EB441303F5845374
:1021E00003AA03F1080718685968144603C40833A2
:1021F000BB422246F7D1186820609B88A380DDE9A6
:102200000E23CDE900230123ADF808302B68694681
:102210001B6C28469847354405F5845510352B79B5
:102220001A075CBF43F008032B7101E0002AF2D1CA
:1022300009B0F0BD2DE9F0479A4688B007468846B8
:102240009146302383F3118807F580546846FFF7E1
:1022500093FFE06EFFF79AFD1F282AD9E06E202237
:102260006946FFF7A5FE202823D103AD444605AB00
:102270002E4603CE9E4220606160354604F108047C
:10228000F6D130682060B388A380DDE90023C9E976
:102290000023BDF80830AAF80030002383F311882A
:1022A00053464A464146384608B0BDE8F04700F07C
:1022B0001DBC002080F3118808B0BDE8F087000045
:1022C0002DE9F84F182204460F4604300021FFF78D
:1022D0004BFA2046214B40F8283BFFF747FF04F11B
:1022E0003800FFF749FF04F1580804F582554646C7
:1022F000183530462036FFF73FFFAE42F9D104F5DE
:1023000080554FF48053C5F858804FF00008C5E958
:1023100017380123EE66C5F8648085F8683085F8C3
:10232000703004F5845604F587594FF0000A4FF0D9
:10233000000B46E902AB3046FFF718FF203646F89F
:10234000108C4E45F5D185F8E07017B1044800F0C7
:10235000B9FB044B63622046BDE8F88F484B000888
:102360001C4B00080064004010B5044B197804466B
:102370004A1C1A70FFF7A4FF204610BD1438002035
:102380002DE9F04711B90020BDE8F087274B284E12
:10239000B6FBF1F4994294BF11230A23013BDBB24F
:1023A000581CB4FBF0FC00FB1C405FFA83FEC0BB72
:1023B0000CF1FF37B7F5806FE5D2C3EBC303D81C30
:1023C0004FEAE009C0F3C700AEEB000809F1010ACB
:1023D0004FF47A755FFA88F409FB05555AFA88F8C4
:1023E000B5FBF8F5B5F5617FC1BF03F1FF33C3F36A
:1023F000C700AEEB0003DCB2431C54FA83F30CFBC2
:1024000003F3B6FBF3F68E42BDD1013CE4B2072CD8
:10241000B9D801380023D07017809370147101204F
:10242000B2E7BEF1020FAED0013BB9E73F420F0069
:1024300000B4C40470B505460E464FF47A746B6A56
:102440005B6803F00103B34207D04FF47A7001F0E8
:1024500001FD013CF3D1204670BD0120FCE70000E6
:1024600030B5426A936913F0700F17D0002393615F
:1024700041F2900400EB4312224411794D070AD532
:10248000890708D5064D416A55F823508D601179AA
:1024900041F0040111710133032BEBD130BD00BFBA
:1024A0008C4B000873B51D46436A16469A68D207DE
:1024B000044609D59A6801219960C2F34002CDE92A
:1024C00000650021FFF766FE636A9A68D1050BD5A7
:1024D0009A684FF480719960C2F34022CDE900659B
:1024E00001212046FFF756FE636A9A68D2030BD596
:1024F0009A684FF480319960C2F34042CDE900659B
:1025000002212046FFF746FE04F58053D3F8DC0095
:1025100010B103681B699847204602B0BDE87040BF
:10252000FFF79EBFF8B50446466A002977D106F149
:102530000C073868800775D006EB01153868D5F8A8
:10254000B00110F0040FD5F8B0011ABFC00840F078
:102550000040400DA062D5F8B0C11CF0020F1CBFB6
:1025600040F08040A062D5F8B40106EB011100F004
:102570000F0084F83400D1F8B80184F82C00D1F8A9
:10258000B801000A84F82D00D1F8B801000C84F8D5
:102590002E00D1F8B801000E84F82F00D1F8BC014C
:1025A00084F83000D1F8BC01000A84F83100D1F879
:1025B000BC01000C84F83200D1F8BC11090E84F87B
:1025C00033103821396004F1440004F1280104F18A
:1025D000340551F8046B40F8046BA942F9D109881D
:1025E0000180C4E90E2321460023A4F8403051F8AD
:1025F000383B20461B6C984704F5805393F8D8204D
:10260000D3F8DC0042F0040283F8D82010B103684C
:102610001B6998472046BDE8F840FFF721BF06F147
:10262000100786E7F8BD000010B5044600F052FA26
:1026300002460B4652EA030102D0013A63F100035D
:102640000449086820B12146BDE81040FFF76ABF81
:1026500010BD00BF18380020F0B5302181F311887B
:1026600000F583511831002441F2900C00EB441521
:1026700065442E7977070FD4F6060DD5D1E900769B
:1026800097429E4108D2094F466A57F82470B760B6
:102690002E7946F004062E710134032C01F120013D
:1026A000E4D1002383F31188F0BD00BF8C4B0008F8
:1026B00008B5302383F31188FFF7D2FE002383F39C
:1026C000118808BD2DE9F041436A0446986800F07E
:1026D000E050B0F1E05F0E4622D0B0B1302383F37A
:1026E0001188002504F5845741F2900804EB451346
:1026F00043441B791A070AD50135032D07F120073A
:10270000F4D10120002383F31188BDE8F0815B0739
:10271000F2D43946304600F07DFA0028ECD1F1E7DA
:102720000120F2E708B5302383F3118800F58050CB
:10273000C06EFFF72BFB002383F3118840090CBF09
:102740000120184608BD0000F8B51D46002313708F
:102750000F4606461446FFF7E5FF80F0010038708B
:1027600025B129463046FFF7ADFF2070F8BD0000C7
:10277000F8B50C4615461E46074600F0ABF90B4669
:102780002178024609B9287850B13846FFF764FF2E
:10279000FFF78EFF33462A462146FFF7D5FF01207B
:1027A000F8BD000070B5302686F31188174B9A6D7E
:1027B00042F000729A659A6B42F000729A639A6BCB
:1027C00022F000729A63002383F3118800F580548D
:1027D00094F8D83013F0010516D1A9B186F3118809
:1027E0000321132001F032FA0321142001F02EFA04
:1027F0000321152001F02AFA94F8D83043F00103A0
:1028000084F8D83085F3118870BD00BF00100240F5
:102810002DE9F04700F5805588B095F8E030012BA0
:102820000446884616467AD8DFF8FC9159F82320EA
:102830000AB949F82300D9F800A0C4F81C8084F82C
:102840002060BAF1000F0BD141F2E800FFF7BCFBAA
:102850000746002861D05146FFF732FDC9F80070E5
:1028600095F8E030012B5ED001212046FFF79AFF5A
:10287000302383F31188626A136823F00203136024
:10288000626A136843F001031360636A00275F61A3
:1028900087F3118801212046FFF7CCFD002800F0C6
:1028A0008480E86EFFF760FA04F5835909F118098E
:1028B000202200216846FEF757FF02A8FFF756FCCA
:1028C0006A4609EB07030DF1180E9446BCE80300B5
:1028D000F44518605960624603F10803F5D1DCF84D
:1028E0000000186020379CF804201A71602FDFD197
:1028F00095F8D83023F0040385F8D83000276A46CD
:102900004146204600978DF80470FFF739FD636A51
:10291000F8B94FF400421A6001E0C9F80000002045
:1029200008B0BDE8F087D9F8000003681B6B984732
:102930000146002898D1D9F80000FFF733FFD9F8F5
:102940000000036832465B684146984700288BD1F7
:10295000E5E761221A609DF802309DF80320616A64
:102960001B06120402F4702203F040731343BDF8F7
:102970000020C2F3090213439DF80420120502F45B
:10298000E0021343B21E5642564143EAC673CB617E
:10299000636A13225A61626A136823F001031360A9
:1029A00039462046FFF746FD08B9636AB1E795F856
:1029B000E02092BB616AD1F8003243F00103C1F814
:1029C0000032616AD1F8003223F47C5323F00E0305
:1029D000C1F80032616AD1F8003243F46063C1F893
:1029E0000032636AC3F81422636AC3F80422636A7C
:1029F00041F6FF71C3F80C12636AC3F84022636AA0
:102A0000C3F84422636A0122C3F81C22626AD2F826
:102A1000003223F00103C2F8003295F8D83043F0B9
:102A2000020385F8D8307BE71838002008B500F09D
:102A300051F802460B4652EA030102D0013A63F113
:102A400000030449086808B1FFF72CFDBDE8084001
:102A500001F0BEB81838002008B50020FFF7E4FDEB
:102A6000BDE8084001F0B4B808B50120FFF7DCFD6F
:102A7000BDE8084001F0ACB800B59BB0EFF30981A8
:102A800068226846FEF764FEEFF30583014B9B6BFB
:102A9000FEE700BF00ED00E008B5FFF7EDFF000026
:102AA00000B59BB0EFF3098168226846FEF750FE3F
:102AB000EFF30583014B5B6BFEE700BF00ED00E029
:102AC000FEE700000FB408B5029801F073F9FEE7C5
:102AD00001F04CBC01F02EBC0139C9B202299EBFE5
:102AE00000EBC1000023C0E9013370472DE9F84332
:102AF0001E461B885B070546884605D400F10C047A
:102B000000F12409A14502D10120BDE8F88354F861
:102B1000083C13B954F8043C6BB12B682846DB6BB6
:102B20009847338854F8047CC1B243F0040354F846
:102B3000080C4246B8470834E4E7000073B56C4619
:102B400084E80600014600224E68551C66B98E686E
:102B500056B900EBC200021D94E8030082E80300AE
:102B60001D70012002B070BD032D2A4601F108013D
:102B7000EAD10020F6E700002DE9F04F89B00446C5
:102B8000BDF848808B4600F10C0500F124090027B0
:102B900008F0040AA94503D1012009B0BDE8F08F6F
:102BA00055F8083C13B955F8043C63B1BAF1000F6D
:102BB0000BD123682046DB6B98474346C1B25A4687
:102BC00055E90206B0470835E4E70FBB00220023B1
:102BD000CDE90023ADF808705B4603AA0BF1080CA1
:102BE00018685968174603C7083363453A46F7D152
:102BF000186838609B88BB80FFF76CFF0423ADF832
:102C000008302368CDE900011B6C694620469847CF
:102C10000127D8E710B50368086893EA000F23F08E
:102C2000604420F060420DD5002BB8BFA40C0028F2
:102C3000B8BF920C944201D1C00F10BD34BF012027
:102C40000020FAE7944205D1C0F38070C3F380738B
:102C50008342F2D194422CBF00200120EDE7000016
:102C60000E2809D8DFE800F01515151515151515EE
:102C7000150A0C0E10121400402070470C207047EB
:102C8000102070471420704718207047202070478C
:102C9000302070472DE9F043456A35B94162BDE8FF
:102CA000F083CEF800100B60F9E74E6826F0604C18
:102CB000C6F38A47C6F3807817EA260738BF674607
:102CC000AE462B465C6894EA060F24F060420CD5B1
:102CD000002C1EDA920CBA4201D0BA420FD99D42A2
:102CE000DFD10D60DAE71346ECE7944505D104F037
:102CF0008049C4F38074444507D19445EFD31A68E2
:102D00009E46002AEFD11960C9E7B9F1000FF6D04D
:102D1000E5E7BA42F3D0E0E72DE9F047089E01F07D
:102D200007054FEAD6082A4406F0070600EBD10152
:102D30004FF47F49954201D1BDE8F08705F0070CBB
:102D400006F0070AD445674638BF5746C7F108075B
:102D5000501BEC08874228BF07460C5D08EBD600E5
:102D600004FA0CF413F800E029FA07FC24FA0AF438
:102D70005FFA8CFC8EEA04044CFA0AFC04EA0C04A8
:102D80008EEA040E03F800E03D443E44D2E7000022
:102D900080EA0120082341F2210201B2400000290B
:102DA00080B203F1FF33B8BF504013F0FF03F4D1FA
:102DB0007047000038B50C468D18A54200D138BDCB
:102DC00014F8011BFFF7E4FFF7E700000346406833
:102DD00048B102685A605A899989013292B2914287
:102DE0005A8138BF9A81704770B588B02022044656
:102DF0000D4668460021FEF7B7FC20460495FFF714
:102E0000E5FF024658B16B46054608AE1C4603CCAA
:102E1000B44228606960234605F10805F6D11046E2
:102E200008B070BD2DE9F843078C072F04461ED962
:102E3000D0E9029800254FF6FF73C5F12006A5F1F1
:102E4000200029FA05F108FA06F628FA00F03143C5
:102E50000143C9B21846FFF79BFF0835402D0346D2
:102E6000EBD1E1693A46BDE8F843FFF7A3BF4FF65F
:102E7000FF70BDE8F883000010B54B6823B9CA8A1B
:102E800063F30902CA8210BD04691A681C600361F9
:102E9000C38A013BC3824A60EFE700002DE9F84F87
:102EA0001C46CB8A8046C3F3090005280F4691468D
:102EB00003462ED000221A319DB2042D96B211D8AD
:102EC000B44203F1010308D80444FB8AC4F30904A3
:102ED00064F30903FB82012019E019F80250CD5474
:102EE0000132E9E7B442EFD9A0F1050A1C237D685D
:102EF000BAFBF3F203FB12AA1FFA8AF295BB404613
:102F0000FFF764FF054630B978606FF00200BDE856
:102F1000F88F0026E8E70022026078604FF0000A90
:102F2000B44242D9D31C2B44901B25E0013189B215
:102F30001D462B68002BF9D1631F03441C20B3FBF3
:102F4000F0F301339BB29942E8D2BAF1000FE5D118
:102F50004046FFF73BFF38B1C0F800A0524628605A
:102F60000546DBE70121E4E7C5F800A0CDE719F845
:102F7000061003F8011F013610FA86F189B21B29E9
:102F80001FFA86FB03D85C45F1D85E46C8E75C456E
:102F9000FBD94046FFF71AFF28B1C0F800A0002275
:102FA00028600546F1E72860AFE7FB8A1C448CE700
:102FB0002DE9F74F1C465B69009207468846002BB7
:102FC00000F0B580238C2BB1E269002A00F0AF80BD
:102FD000072B4AD807F10C00FFF7F8FE054620B989
:102FE0006FF0020003B0BDE8F08F14220021FEF75D
:102FF000BBFB228CE16905F10800FEF7A9FB208CE0
:10300000013080B208280DD90C2824D9102824D9E1
:10301000142824D9182824D9202824D9312834BFA9
:103020000E200F20FFF71CFE013880B220840130F3
:1030300028746369228C1B782A4403F01F0363F011
:103040003F03137248F0004338466B602946FFF790
:1030500021FE0120C6E70920E4E70A20E2E70B2071
:10306000E0E70C20DEE70D20DCE702339BB207220D
:10307000C18A0633B3FBF2F3828A521A9BB292B230
:103080009342ADD8002500F10C034FF08009AA4609
:103090002E460193238CB34201D128B2A2E70198B6
:1030A000FFF794FE834600289AD014220021FEF7F1
:1030B0005BFB56B9009BABF8083002220BF1080C01
:1030C000218CB14203D890B20BE00022F6E7E1690F
:1030D000895D0CF80210013290B201360728B6B2B1
:1030E000EED1228C013080B2FFF7BAFDB24208BFA8
:1030F0004FF0400962691278013802F01F021BFA92
:1031000080F142EA4A1249EA02020A72013048F0AA
:1031100000428BF81000CBF8042059463846FFF7E0
:10312000B9FD8AF0010A01354FF00009B2E76FF0EE
:10313000010057E7F8B515460E4630220021044637
:103140001F46FEF711FBB5F5001F069B636034BFF9
:103150006A094FF6FF72079BA76095B2A362E6610A
:1031600004F1100006EB4212964206D100230360E0
:10317000A582E3822383E360F8BD066030462036F3
:10318000F2E7000003781BB94BB2002BC8BF0170F7
:103190007047000000787047F8B50C46C9690746CB
:1031A00009B9238CB3BB257E1F2D33D83B7823BBB5
:1031B000228C072A2BD8268A032E2BD84FF6FF7095
:1031C000FFF7F8FD20F001003602400446EA0566EC
:1031D000400C46EA40254FF6FF7223462946384602
:1031E000FFF7E6FE002807DD626913780133DBB2E2
:1031F0001F2B88BF00231370F8BD228A2D0645EAD5
:10320000022520461D43FFF70DFE0246E5E76FF05D
:103210000300F1E76FF00100EEE7000070B58AB03F
:10322000044616460021282268461D46FEF79CFAF1
:10323000BDF83830ADF810300F9B05939DF8403045
:103240008DF81830119B07936946BDF84830ADF8EA
:1032500020302046CDE90265FFF79EFF0AB070BD21
:103260002DE9F041D36905460C4616460BB9138C7F
:103270005BBB377E1F2F28D895F80080B8F1000F70
:1032800026D03046FFF7CEFD3378210241EAC33124
:1032900041EA0801338A41EA076141EA03410246F3
:1032A000334641F080012846FFF782FE00280ADD00
:1032B0003378012B07D1726913780133DBB21F2BEE
:1032C00088BF00231370BDE8F0816FF00100FAE7BA
:1032D0006FF00300F7E70000F0B58BB004460D4631
:1032E00017460021282268461E46FEF73DFA9DF843
:1032F0004C305A1E534253418DF800309DF84030F7
:10330000ADF81030119B05939DF848308DF81830BA
:10331000149B07936A46BDF85430ADF82030294617
:103320002046CDE90276FFF79BFF0BB0F0BD000011
:10333000406A00B104307047436A1A684262026909
:103340001A600361C38A013BC38270472DE9F843C9
:10335000D0F82090194F14461E4649464FF00008F9
:1033600009B9BDE8F883D1E90252651B66EB020298
:10337000AF4278EB02021ED2036A8B420DD1FFF7F7
:103380007BFD036A1B68036203690B60C38A0161EA
:10339000016A013BC3828946E2E7FFF76DFD0B68D6
:1033A000C9F8003003690B60C38A0161013BC38225
:1033B000D9F80010D4E789460968D1E780841E0057
:1033C0002DE9F04F8BB00D46DDF850800493144684
:1033D0008246002800F01881B8F1000F00F0148137
:1033E000531E3F2B00F21081012A03D1049B002BB6
:1033F00040F00A81BAF814B00023B5EBCB0FCDE949
:1034000008334FEACB0703D300200BB0BDE8F08FA1
:103410002B199F42DAF80C3003933ABF7F1BFFB29F
:1034200027461BB9DAF81030002B75D0272D4AD863
:10343000C5F12806B7424FF000032CBFF6B23E4656
:1034400000932946DAF8080008AB3246FFF764FC1F
:10345000A7EB060935445FFA89F90BF1005BABF184
:10346000050B4FEACB0B2821039B13B1B9F1000FD9
:103470002CD1DAF8100040B1B9F1000F05D0009658
:1034800008AB4A46691AFFF747FC38B2002FBBD099
:1034900067070AD00AAB03EBD401624211F8083C7B
:1034A00002F00702134101F8083C082C3BD9102C0C
:1034B00040F2B580202C40F2AD80049B002B00F040
:1034C0009780082332E0B9460026C6E75B46E02B2A
:1034D00028BFE02306930B44AB42059314D95A1B33
:1034E00003980096914534BF4A46D2B2691A08AB98
:1034F00004300792FFF710FC079A16441544A9EB15
:103500000202F6B25FFA82F9069B0599ABEB030B58
:10351000039B1B680393A7E70093DAF8080008AB46
:103520003A462946AFE7049B93B10123B4EBC30F9E
:1035300063D0082C11D89DF82030621E23FA02F2C5
:10354000D60705D54FF0FF32A24013438DF8203047
:103550009DF8203088F8003057E7102C11D8BDF8BE
:103560002030621E23FA02F2D50705D54FF0FF3254
:10357000A2401343ADF82030BDF82030A8F8003049
:1035800043E7202C0ED8089A631E22FA03F3D907CA
:1035900004D54FF0FF33A34013430893089BC8F8AA
:1035A000003032E7402C32D0DDE90851631EC4F10F
:1035B0002106A4F1210225FA03F301FA06F63343AA
:1035C00021FA02F21343DB0712D50123A4F12002F2
:1035D000C4F1200603FA02F223FA06F6A3405B4286
:1035E00042EA060262EB42022B430A43CDE908326B
:1035F000DDE90823C8E9002307E7082CA8D0102C30
:10360000BAD0202CF4D1C9E76FF00100FDE66FF0CD
:103610000800FAE6049B002BC0D0042386E7049B35
:10362000002BA9D0022381E730B5012A144638BF08
:103630000122402A85B028BF40220025012CCDE977
:1036400002550ED81B788DF8083004AB03EBD20579
:10365000544215F8083C04F00704A34005F8083C60
:1036600006E0082C0CD81B788DF808305307ECD1F5
:1036700000910346002102A8FFF74EFB05B030BDC4
:10368000102C03D81B88ADF80830EFE7202C8DBF35
:10369000D3E900451B680293CDE90245E6E7000047
:1036A00010B5CB681BB98B600B618B8210BD0469B0
:1036B0001A681C600361C38A013BC382CA60F0E7D9
:1036C00003064CBFC0F3C0300220704708B5024665
:1036D000FFF7F6FF022806D15306C2F30F2001D1EF
:1036E00000F0030008BDC2F30740FBE72DE9F04FEF
:1036F000D1F8008097B004464046CDE90423FFF797
:10370000DFFF022814BFC8F306260026B8F1000F19
:103710000D46039080F2ED8118F0C04A40F0E98137
:10372000097B002900F0E581039B022B03D023785D
:10373000B34240F0E18108F07F0340460693FFF773
:10374000C5FF069B079029444FEA8349039B91F8E4
:1037500003B049EA034949EA4669002200235FEAC7
:10376000DB16CDE90C2349EA000977D0069B0093CC
:1037700002466768039B0CA92046B847002800F062
:10378000BE81276A002F57D1494604F10C00FFF78C
:103790002BFB0746002800F0E48027626B7B0A932E
:1037A000BB7E0B93FB7DD7F804E00BF01F09C3F33E
:1037B0008403A3EB09001FFA80FC0028B8BF0CF1BA
:1037C000200C0890A9EB0303B8BF0FFA8CF0D7E9DF
:1037D00002121FFA83FCB8BF0890002BB8BF0CF18F
:1037E000200C0993BCBF0FFA8CF3099351EA020C29
:1037F00000F09E81049B591A059B63EB0202AE4BBD
:103800004FF0000C8B427CEB0203C0F09181DDE9AC
:103810000A30834240F07F8166B3089B012B00F39E
:103820008781BEF1000F40F08381A44888427EEB7F
:103830000202C0F0798126E03B699945AED03F682D
:10384000002FF9D1494604F10C00FFF7CDFA0746E5
:10385000002800F08680236A3B609EE7276A27B92C
:103860006FF00C0017B0BDE8F08F3B69994595D01B
:103870003F68F4E7914B8B4276EB020203D26A7BFE
:10388000BB7E9A4239D1C8F30468002E37D01BF0B2
:10389000400F34D0049BBB60059BFB6014220021C9
:1038A00011A8FDF761FF049B0E93059B0F932B1D41
:1038B00010932B7B8DF85190013BDBB2ADF84C306F
:1038C000079BADF84E30039B8DF85030069B8DF86A
:1038D000533094F82C308DF8528083F001038DF82A
:1038E00054300EA9A36820469847FB7DC3F3840398
:1038F000013303F01F039B02FB820020B2E7FB7D34
:10390000CBF34012B2EBD31F40F0FC80C3F384032F
:103910004B4540F0FA802B7B002E51D0032B40F218
:10392000F780049BBB60059BFB60FB8A6FF3090378
:10393000FB822B7BAE1D033BDBB23246394604F1E2
:103940000C00FFF7ABFA00280EDA39462046FFF7E5
:1039500093FAFB7DC3F38403013303F01F039B023F
:10396000FB826FF002007DE7DDE90C84AB883B83CE
:103970004FF6FF73CAF12000AAF1200228FA0AF1DB
:1039800004FA00F0014324FA02F211431846C9B2C6
:10399000FFF7FEF90AF1080ABAF1400F0346E9D130
:1039A000B8822A7B033AD2B23146FFF703FAFB7D95
:1039B000B882DA43C2F3C01262F3C713FB759CE707
:1039C000013B5FEA9B1BDBB20ED12E1D324639460E
:1039D00004F10C00FFF762FA0028B6DB2A7BB88AF4
:1039E000013AD2B23146E0E7FA8AC2F30902042A68
:1039F0005CD86BB1E91C07F11B0011F801CF00F88E
:103A000002C001320136052AF6B201D09E42F4D33B
:103A1000049A0E92059A0F929E4207F11B02109291
:103A200038BF04367A68119234BF55FA86F60026FC
:103A30001296FA8A8DF85190C2F309021344ADF838
:103A40004C30079BADF84E30039B8DF85030069BF1
:103A50008DF8533094F82C308DF8528083F00103A8
:103A60008DF8543000237B602A7BB88A013A291DE7
:103A7000FFF7A0F93B8BB882834203D1A3680EA95C
:103A80002046984720460EA9FFF70AFEFB7DBA8A1A
:103A9000C3F38403013303F01F039B02FB823B8BC0
:103AA0009A4214BF6FF010000020DBE6786800280F
:103AB000AED0052106E000BF80841E0040420F000A
:103AC0001C3130460668002EFAD1521AD11C05F17D
:103AD000030C014402EB0A001B285FFA8AF697D810
:103AE0009E4295D21CF8010F01F8010F0AF1010A5C
:103AF000F0E76FF00900B5E66FF00A00B2E66FF08C
:103B00000B00AFE66FF00D00ACE66FF00E00A9E61B
:103B10006FF00F00A6E6134888427CEB0202BFF468
:103B2000ECAE002E3FF4ABAE099B0F2B3FF7A7AED8
:103B3000FA7D4FEA8B0302F0030203F07C03134388
:103B4000FB7539462046FFF797F96B7BBB76002E55
:103B50007FF495AEFB7DC3F38402013262F38603EA
:103B6000FB757DE640420F00EFF3098305494A6B80
:103B700022F001024A63683383F30988002383F348
:103B80001188704700EF00E0302080F3118862B6A2
:103B90000C4B0D4AD96821F4E0610904090C0A4371
:103BA000DA60D3F8FC20094942F08072C3F8FC20A7
:103BB0000A6842F001020A602022DA7783F82200C4
:103BC000704700BF00ED00E00003FA05001000E0C0
:103BD00010B5302383F311880E4B5B6813F4006338
:103BE00014D0F1EE103AEFF30984683C4FF0807383
:103BF000E361094BDB6B236684F3098800F0A4F8CA
:103C000010B1064BA36110BD054BFBE783F3118890
:103C1000F9E700BF00ED00E000EF00E0FF02000860
:103C2000020300084FF0E023002258684FF0FF31F4
:103C3000930003F1604303F5614301329042C3F8FE
:103C40008010C3F88011F3D27047000000F1604388
:103C500003F561430901C9B283F80013012200F0A2
:103C60001F039A4043099B0003F1604303F561433E
:103C7000C3F880211A6070470023037582680369C6
:103C80001B6899689142FBD25A68036042601060D9
:103C90005860704700230375826803691B68996840
:103CA0009142FBD85A6803604260106058607047C8
:103CB00008B50846302383F311880B7D032B05D00C
:103CC000042B0DD02BB983F3118808BD8B6900221A
:103CD0001A604FF0FF338361FFF7CEFF0023F2E756
:103CE000D1E9003213605A60F3E70000FFF7C4BF68
:103CF000054BD9680875186802681A60536001227C
:103D00000275D860FCF7E6BAF039002030B50C4BEC
:103D1000DD684B1C87B004460FD02B46094A684625
:103D200000F02AF92046FFF7E3FF009B13B1684635
:103D300000F02CF9A86907B030BDFFF7D9FFF9E70B
:103D4000F0390020B13C0008044B1A68DB68906829
:103D50009B68984294BF002001207047F0390020F2
:103D6000084B10B51C68D86822681A60536001229D
:103D70002275DC60FFF78EFF01462046BDE810404B
:103D8000FCF7A8BAF039002038B5074C07490848B5
:103D9000012300252370656000F0E6FB02232370F9
:103DA00085F3118838BD00BF483A0020984B0008C1
:103DB000F039002008B572B6044B186500F0A6FA79
:103DC00000F054FB024B03221A70FEE7F03900208A
:103DD000483A002000F010B98B60022308618B8202
:103DE000084670478368A3F1840243F8142C0269E3
:103DF00043F8442C426943F8402C094A43F8242CE8
:103E0000C26843F8182C022203F80C2C002203F895
:103E10000B2C044A43F8102CA3F12000704700BF7C
:103E2000ED020008F039002008B5FFF7DBFFBDE820
:103E30000840FFF75BBF0000024BDB6898610F2072
:103E4000FFF756BFF0390020302383F31188FFF7C6
:103E5000F3BF000008B50146302383F31188082022
:103E6000FFF754FF002383F3118808BD10B50368E2
:103E70009C68A2420CD85C688A600B604C60216030
:103E800059609968891A99604FF0FF33836010BDBB
:103E90001B68121BECE700000A2938BF0A2170B525
:103EA00004460D460A26601900F058FB00F044FB5A
:103EB000041BA54203D8751C2E460446F3E70A2EC0
:103EC00004D9BDE87040012000F08EBB70BD000039
:103ED000F8B5144B1446D961826003F110024260B8
:103EE0000A2C1A69026038BF0A2450601861081948
:103EF0000D4600F025FB0A2700F01EFB431BA342E2
:103F0000064606D37C1C281900F028FB27463546B8
:103F1000F2E70A2F04D9BDE8F840012000F064BBA5
:103F2000F8BD00BFF039002070B50D46064600F020
:103F300003FB0F490B4653F8102F9A4206D12A462D
:103F400001463046BDE87040FFF7C2BFCB69C41AD6
:103F50002C19936828BF2C46A34202D92946FFF7A3
:103F60009BFF224631460348BDE87040FFF77EBF05
:103F7000F0390020003A002010B4C0E903230023E8
:103F80005DF8044B4361FFF7CFBF000010B5194C3B
:103F9000236998420DD0D0E90032816813605A60DD
:103FA0009A680A449A60002303604FF0FF33A361CC
:103FB00010BD2346026843F8102F536000220260B0
:103FC00022699A4203D1BDE8104000F0C1BA93685B
:103FD00081680B44936000F0AFFA2269E16992684E
:103FE000441AA242E4D91144BDE81040091AFFF76F
:103FF00053BF00BFF03900202DE9F047DFF8B8804B
:1040000008F110072B4ED8F8105000F095FAD8F8A8
:104010001C40AA68011B8A423DD81444D5E90032ED
:10402000C8F81C4013605A6000232B60D8F8102099
:10403000B242994601D100F08BFA89F31188D5E993
:10404000033128469847302383F311886B69002B8E
:10405000D9D000F071FA6A69A0EB04094A4582469A
:104060000DD2022000F0C0FA0022D8F81030B3427E
:1040700008D151462846BDE8F047FFF729BF224442
:10408000121AF2E712EB090938BF4A4629463846A8
:10409000FFF7ECFEB6E7D8F81010B14208D0144490
:1040A000211AC8F81C00A960BDE8F047FFF7F4BE6C
:1040B000BDE8F087003A0020F039002038B500F064
:1040C0003BFA054AD2E90845031B181945F10001DE
:1040D000C2E9080138BD00BFF03900200020704758
:1040E000FEE70000704700004FF0FF30704700000F
:1040F000BFF34F8F024A1369DB03FCD4704700BF44
:104100000020024008B5094B1B7873B9FFF7F0FF98
:10411000074B5A69002ABFBF064A9A6002F18832EB
:104120009A601A6822F480621A6008BD603A002022
:10413000002002402301674508B50B4B1B7893B95B
:10414000FFF7D6FF094B5A6942F000425A611A68DC
:1041500042F480521A601A6822F480521A601A6877
:1041600042F480621A6008BD603A002000200240DC
:104170007F289ABF00F58030C00200207047000001
:104180004FF4006070470000802070477F2808B51A
:104190000ED8FFF7EDFF0368013309D100F5006386
:1041A0000430834201D1012008BD02680132F7D0FA
:1041B0000020F9E77F2810B504461FD8FFF798FFC5
:1041C000FFF7A0FF0E4BF3221A6102225A615A69CF
:1041D00042EAC0025A615A6942F480325A61FFF7DA
:1041E00087FF4FF40061FFF7C3FF00F03BF9FFF7D3
:1041F000A3FF2046BDE81040FFF7C8BF002010BD58
:104200000020024040EA02035B072DE9F04114461A
:1042100006D02E4B40F282321A600020BDE8F081B9
:104220002B4B82189A420FD9284B40F28732F3E782
:1042300002680B689A420AD1031D1B684A689342C0
:1042400005D1083C08300831072CF1D864B1FFF7DC
:1042500059FFFFF74DFF1F4E083101274FF00008AF
:10426000012C03D8FFF768FF0120D7E777610546E7
:1042700051F8083C45F8043B51F8043C4360FFF713
:1042800037FF336943F001033361C6F814800268D5
:1042900051F8083C9A420DD00C4B40F2AF321A60F4
:1042A0000D4B18600D4B1C600D4B08391960FFF762
:1042B00043FFB2E72D6851F8042C954201F1080341
:1042C000EAD1083C08301946CAE700BF5C3A002032
:1042D0000000040800200240583A0020543A002010
:1042E000503A0020084908B50B7828B11BB9FFF7F0
:1042F00009FF01230B7008BD002BFCD0BDE808406E
:104300000870FFF719BF00BF603A002002484FF461
:104310007F4100F0A9B800BF000100200846114607
:10432000FCF750B80120FCF74DB800000846FCF738
:104330006BB8000038B5EFF311859DB9EFF3058434
:10434000C4F30804302334B183F31188FFF7B6FEB9
:1043500085F3118838BD83F31188FFF7AFFE84F32E
:10436000118838BDBDE83840FFF7A8BE38B5FFF763
:10437000E1FF104C104AC00840EA4170A0FB025E09
:10438000C908A0FB040C1CEB05004FF00003A1FBC7
:1043900004455B410019A1FB021043EB050311EB3F
:1043A0000E0140F100005B1840F100001B0943EAD8
:1043B000007038BDCFF753E3A59BC42010B502446D
:1043C000064BD2B2904200D110BD441C00B253F84B
:1043D000200041F8040BE0B2F4E700BF5028004091
:1043E000114B30B5D3F89040240409D4D3F8904051
:1043F000C3F89040D3F8904044F40044C3F8904090
:104400000A4C236843F4807323600244084BD2B201
:10441000904200D130BD441C00B251F8045B43F817
:104420002050E0B2F4E700BF0010024000700040EE
:104430005028004007B5012201A90020FFF7BEFF68
:10444000019803B05DF804FB13B50446FFF7F2FFD3
:10445000A04205D0012201A900200194FFF7C0FF6E
:1044600002B010BD704700007047000070470000A8
:10447000074B45F255521A6003225A6040F2FF7210
:104480009A604CF6CC421A60024B01221A707047B7
:1044900000300040613A0020034B1B781BB1034BF6
:1044A0004AF6AA221A607047613A002000300040A4
:1044B000054B1A6832B902F1804202F50432D2F893
:1044C00094201A60704700BF643A0020024B4FF4FA
:1044D0000002C3F8942070470010024008B5FFF7AF
:1044E000E7FF024B1868C0F3407008BD643A002033
:1044F00070470000FEE700000A4B0B480B4A904251
:104500000BD30B4BDA1C121AC11E22F00302994284
:1045100088BF00220021FDF727B953F8041B40F89B
:10452000041BECE7184C0008E83A0020E83A0020A9
:10453000E83A002000F0BEB84FF08043586A704758
:104540004FF08043002258631A610222DA607047FC
:104550004FF080430022DA60704700004FF0804344
:1045600058637047FEE7000070B51B4B01630025E0
:10457000044686B085620E465860FFF705FB04F1DD
:104580001003C4E904334FF0FF33C4E90635C4E92E
:104590000044A560E562FFF7CFFF2B460246C4E961
:1045A000082304F134010D4A256580232046FFF7D6
:1045B00013FC0123E0600A4A0375009272680192BD
:1045C000B268CDE90223074B6846CDE90435FFF711
:1045D0002BFC06B070BD00BF483A0020334B0008EA
:1045E000384B000865450008024AD36A0343D3628A
:1045F000704700BFF0390020244B2548DA6A42F0AA
:10460000070210B4DA62DA6A224C22F00702DA6298
:10461000DA6ADA6C42F00702DA64DA6E42F0070214
:10462000DA664FF09042DB6E4FF0AA310023536000
:104630009160D0604FF6FF70506113625362146056
:104640001024C2F80434C2F80814C2F80C444FF61F
:10465000F774C2F814449924C2F82034C2F82444F0
:104660000D4CC2F80044C2F80438C2F80818C2F869
:104670000C38C2F81408C2F82038C2F82438C2F83E
:1046800000385DF8044B00F055B800BF0010024040
:10469000000100240001002850000A0008B500F0C5
:1046A00005FAFFF771FBBDE80840FFF701BF000006
:1046B000704700000F4B9A6D42F001029A659A6FA5
:1046C00042F001029A670C4A9B6F936843F0010322
:1046D00093604FF080434F229A624FF0FF32DA62CC
:1046E00000229A615A63DA605A6001225A611A60A4
:1046F000704700BF00100240002004E04FF08042ED
:1047000008B51169D3680B40D9B2C9439B07116141
:1047100007D5302383F31188FFF75CFB002383F375
:10472000118808BD08B5FFF77DFABDE8084000F024
:1047300099B900005A4B4FF0FF319A6A99629A6A10
:1047400000229A62986AD86A60F00700D862D86A34
:1047500000F00700D862D86A186B1963186B1A63E7
:10476000186B986B9963986B9A63986BD86BD96345
:10477000D86BDA63D86B186C1964196C1A641A6CEC
:10478000484A4FF4E06111601A6E474942F0010255
:104790001A66D3F8802022F00102C3F88020D3F8F3
:1047A00080209A6D42F080529A659A6F22F0805272
:1047B0009A679A6F4FF440720A604A6912F48062F5
:1047C000FBD14A601A6822F0F00242F060021A60DF
:1047D0001A6842F001021A601A689107FCD500229B
:1047E0009A609A6812F00C02FBD1D3F8901011F481
:1047F000407F1EBF4FF48031C3F89010C3F8902063
:1048000061221A601A689207FCD500229A609A68A1
:1048100012F00C0FFBD169221A60D3F8942022F415
:10482000706242F4C062C3F894201A6842F4803285
:104830001A601A689003FCD5D3F8902022F0032266
:10484000C3F89020194ADA601A6842F080721A6040
:104850001A689101FCD5164A1A611A6842F0806202
:104860001A601A681201FCD500229A600D49114A9B
:10487000C3F888200A6822F0070242F004020A60A6
:104880000A6802F00702042AFAD19A6842F0030289
:104890009A609A6802F00C020C2AFAD1704700BFA5
:1048A000001002400020024000700040031400018C
:1048B000000C100055550134074A08B5536903F040
:1048C0000103536123B1054A13680BB1506898473F
:1048D000BDE80840FFF77CB900040140683A0020B9
:1048E000074A08B5536903F00203536123B1054A2F
:1048F00093680BB1D0689847BDE80840FFF768B9E6
:1049000000040140683A0020074A08B5536903F0E3
:104910000403536123B1054A13690BB150699847E9
:10492000BDE80840FFF754B900040140683A002090
:10493000074A08B5536903F00803536123B1054AD8
:1049400093690BB1D0699847BDE80840FFF740B9BB
:1049500000040140683A0020074A08B5536903F093
:104960001003536123B1054A136A0BB1506A98478B
:10497000BDE80840FFF72CB900040140683A002068
:10498000164B10B55C6904F478725A61A30604D51D
:10499000134A936A0BB1D06A9847600604D5104A4F
:1049A000136B0BB1506B9847210604D50C4A936BDF
:1049B0000BB1D06B9847E20504D5094A136C0BB1D3
:1049C000506C9847A30504D5054A936C0BB1D06C85
:1049D0009847BDE81040FFF7FBB800BF0004014056
:1049E000683A0020194B10B55C6904F47C425A61A6
:1049F000620504D5164A136D0BB1506D9847230517
:104A000004D5134A936D0BB1D06D9847E00404D5DB
:104A10000F4A136E0BB1506E9847A10404D50C4A8F
:104A2000936E0BB1D06E9847620404D5084A136F99
:104A30000BB1506F9847230404D5054A936F0BB10F
:104A4000D06F9847BDE81040FFF7C2B8000401409E
:104A5000683A002008B5FFF751FEBDE80840FFF7AF
:104A6000B7B80000062108B50846FFF7EFF80621A1
:104A70000720FFF7EBF806210820FFF7E7F80621EB
:104A80000920FFF7E3F806210A20FFF7DFF80621E7
:104A90001720FFF7DBF806212820FFF7D7F8BDE83D
:104AA000084007211C20FFF7D1B8000008B5FFF728
:104AB00039FE00F007F8FFF7FBFDBDE80840FFF7FF
:104AC00039BD00000023054A19460133102BC2E905
:104AD000001102F10802F8D1704700BF683A0020C7
:104AE0000B4601461846FBF779BC00006F72672E33
:104AF0006172647570696C6F742E4D6174656B4C76
:104B00003433312D52454C41590040A2E4F16468E0
:104B100091060041A3E5F2656992070042616420B5
:104B200043414E496661636520696E6465782E0075
:104B30006330006D61696E0069646C65000000009F
:104B40000000000000000000DD1F00081128000820
:104B5000712700081D2000082920000835220008C0
:104B6000ED1F0008FD1F0008F11F0008F91F0008D5
:104B7000F51F000851210008012000083D2B000806
:104B8000D92A000811200008252100088000000013
:104B90000080000000008000304B0008203800201A
:104BA000F039002010BEFF7F01000000000000006F
:104BB0000411002000000000000000006800000058
:104BC000D000000000000000000000000000000015
:104BD00000000000000000000000000000000000D5
:104BE00000000000000000000000000000000000C5
:104BF00000000000000000000000000000000000B5
:104C00002604000000000000006003000000000017
:084C1000FE2A0100D20400009D
:00000001FF
