:020000040800F2
:100000000007002035050008852E0008552E000841
:10001000712E0008552E0008692E000837050008CB
:100020003705000837050008370500083D3F000880
:100030003705000837050008370500084D4B000854
:1000400037050008370500083705000837050008A0
:10005000370500083705000881480008AD4800084A
:10006000D94800080549000831490008370500084B
:100070003705000837050008370500083705000870
:10008000370500083705000837050008092E000865
:10009000352E0008452E0008370500085D49000888
:1000A0003705000837050008370500083705000840
:1000B0003705000837050008370500083705000830
:1000C0003705000837050008370500083705000820
:1000D0003705000837050008370500083705000810
:1000E000C54900083705000837050008370500082E
:1000F00037050008370500083705000837050008F0
:1001000037050008370500083705000837050008DF
:1001100037050008370500083705000837050008CF
:1001200037050008370500083705000837050008BF
:1001300037050008370500083705000837050008AF
:10014000370500083705000837050008370500089F
:10015000370500083705000837050008370500088F
:10016000FD19000800000000000000000000000071
:100170004FF0FF0C1CEAD0521EBF1CEAD15392EA8A
:100180000C0F93EA0C0F6FD01A4480EA010C400266
:1001900018BF5FEA41211ED04FF0006343EA5010C0
:1001A00043EA5111A0FB01310CF00040B1F5000F02
:1001B0003EBF490041EAD3715B0040EA010062F1B1
:1001C0007F02FD2A1DD8B3F1004F40EBC25008BF9B
:1001D00020F00100704790F0000F0CF0004C08BFB9
:1001E00049024CEA502040EA51207F3AC2BFD2F186
:1001F000FF0340EAC250704740F400004FF0000394
:10020000013A5DDC12F1190FDCBF00F000407047CD
:10021000C2F10002410021FA02F1C2F1200200FA0B
:1002200002FC5FEA310040F1000053EA4C0308BFD2
:1002300020EADC70704792F0000F00F0004C02BF23
:10024000400010F4000F013AF9D040EA0C0093F09E
:10025000000F01F0004C02BF490011F4000F013BF8
:10026000F9D041EA0C018FE70CEAD15392EA0C0F66
:1002700018BF93EA0C0F0AD030F0004C18BF31F0D1
:10028000004CD8D180EA010000F00040704790F0A7
:10029000000F17BF90F0004F084691F0000F91F04B
:1002A000004F14D092EA0C0F01D142020FD193EA11
:1002B0000C0F03D14B0218BF084608D180EA010099
:1002C00000F0004040F0FE4040F40000704740F075
:1002D000FE4040F44000704780F0004002E000BF64
:1002E00081F0004142001FBF5FEA410392EA030F21
:1002F0007FEA226C7FEA236C6AD04FEA1262D2EB6B
:100300001363C1BFD218414048404140B8BF5B426F
:10031000192B88BF704710F0004F40F4000020F008
:100320007F4018BF404211F0004F41F4000121F01E
:100330007F4118BF494292EA030F3FD0A2F1010268
:1003400041FA03FC10EB0C00C3F1200301FA03F1A6
:1003500000F0004302D5494260EB4000B0F5000FC9
:1003600013D3B0F1807F06D340084FEA310102F188
:100370000102FE2A51D2B1F1004F40EBC25008BF3A
:1003800020F0010040EA03007047490040EB000004
:10039000013A28BFB0F5000FEDD2B0FA80FCACF105
:1003A000080CB2EB0C0200FA0CF0AABF00EBC25032
:1003B00052421843BCBFD0401843704792F0000F20
:1003C00081F4000106BF80F400000132013BB5E773
:1003D0004FEA41037FEA226C18BF7FEA236C21D0E9
:1003E00092EA030F04D092F0000F08BF084670474E
:1003F00090EA010F1CBF0020704712F07F4F04D11C
:10040000400028BF40F00040704712F100723CBF2E
:1004100000F50000704700F0004343F0FE4040F458
:10042000000070477FEA226216BF08467FEA236316
:100430000146420206BF5FEA412390EA010F40F401
:10044000800070474FF0000304E000BF10F000434D
:1004500048BF40425FEA000C08BF704743F0964334
:1004600001464FF000001CE050EA010208BF70474F
:100470004FF000030AE000BF50EA010208BF7047D6
:1004800011F0004302D5404261EB41015FEA010CEB
:1004900002BF84460146002043F0B64308BFA3F1E3
:1004A0008053A3F50003BCFA8CF2083AA3EBC253C5
:1004B00010DB01FA02FC634400FA02FCC2F12002E4
:1004C000BCF1004F20FA02F243EB020008BF20F01B
:1004D0000100704702F1200201FA02FCC2F1200281
:1004E00050EA4C0021FA02F243EB020008BF20EA76
:1004F000DC70704742000ED2B2F1FE4F0BD34FF0CA
:100500009E03B3EB126209D44FEA002343F0004389
:1005100023FA02F070474FF00000704712F1610FAC
:1005200001D1420202D14FF0FF3070474FF000007E
:10053000704700BF02E000F000F8FEE772B6264800
:1005400080F30888254880F30988254825490860F4
:10055000022080F31488BFF36F8F04F0BFF804F01B
:1005600023F94FF0553020491B4A91423CBF41F8D6
:10057000040BFAE71D49194A91423CBF41F8040BAC
:10058000FAE71B491B4A1C4B9A423EBF51F8040B29
:1005900042F8040BF8E700201849194A91423CBF81
:1005A00041F8040BFAE704F09DF804F0FFF8154C4D
:1005B000154DAC4203DA54F8041B8847F9E700F004
:1005C000E5FB124C124DAC4203DA54F8041B884789
:1005D000F9E704F085B800000007002000230020A0
:1005E0000000000808ED00E00001002000070020E6
:1005F000584C0008002300206C23002070230020AA
:10060000204C00206001000864010008640100081B
:10061000640100082DE9F04FC1F80CD0C3689D4675
:10062000BDE8F08F002383F311882846A0470020FF
:1006300003F0DAFDFEE703F063FD00DFFEE70000F4
:1006400080EA0102844612F0030F4FD111F0030F2C
:1006500032D14DF8044D11F0040F51F8043B0BD08A
:10066000A3F101329A4312F0803F04BF4CF8043BDF
:1006700051F8043B16D100BF51F8044BA3F10132ED
:100680009A4312F0803FA4F101320BD14CF8043BA5
:10069000A24312F0803F04BF51F8043B4CF8044BD6
:1006A000EAD023460CF8013B13F0FF0F4FEA332347
:1006B000F8D15DF8044B704711F0010F06D011F826
:1006C000012B0CF8012B002A08BF704711F0020F14
:1006D000BFD031F8022B12F0FF0F16BF2CF8022BFF
:1006E0008CF8002012F47F4FB3D1704711F8012B22
:1006F0000CF8012B002AF9D1704700BF03460A46C7
:1007000002490868194603F0D5BE00BF0023002047
:1007100010B5054C34B113460A4601460220AFF32A
:10072000008010BD204610BD00000000024B0146B5
:10073000186803F0C3BE00BF00230020024B01462F
:10074000186803F0BFBE00BF0023002001292DE977
:10075000F0415AD901274FF0000E4FF0FF34BC464C
:100760003B4607E09E464FF0010C1F1B0EEB0C03AF
:1007700099420ED9051915F80C50C65CAE42F1D35A
:1007800033D00127BC467446BE440EEB0C0399429D
:10079000F0D84FF001084FF0000E4FF0FF35C4467F
:1007A0004346176008E09E464FF0010CA3EB050896
:1007B0000EEB0C0399420FD9461916F80C60C75C72
:1007C000B742F0D819D04FF00108C4467546C64468
:1007D0000EEB0C039942EFD80135601C854202D321
:1007E0002846C2F80080BDE8F081BC450ABFE64457
:1007F0000CF1010C4FF0010CB8E7C4450ABFE64408
:100800000CF1010C4FF0010CD2E74FF0010800256C
:10081000E6E700BF2DE9F04F164685B00D4603AA66
:100820001946074630461C46FFF790FF8046DDF824
:100830000CA04246304606EB0A0100F079FA2A1B6A
:10084000002852D101468446A4EB0A0BC8F10109E5
:10085000CDF804A08845434638BF0B469C4219D9C1
:100860005D1E03EB0C003544384402E001339C422A
:1008700010D010F801EB15F801AFF245F6D09C420C
:1008800008D90021CC449C449445E3D9002005B00C
:10089000BDE8F08F884508F1FF3368D908EB0C00FC
:1008A000384406EB0805CDF8008002E08B4212D0F8
:1008B000534615F8018D10F801ED03F1FF3AF045AC
:1008C000F4D0DDF8008001330131994208D8019B52
:1008D00059469C44D8E701319942DDF80080F6D9A9
:1008E00007EB0C0005B0BDE8F08FA4EB0801414513
:1008F00038BF414644454FF0000C01F1010132D9A7
:1009000008F1FF3EC8F101090CEB0800434606EB75
:100910000E05384402E001339C4224D010F801ABAC
:1009200015F801BFD345F6D09C421CD9CC449C4459
:100930009445ABD84445E7D806EB08090CEB08050D
:1009400048463D4402E0013BB342C9D0034615F896
:1009500001ED10F801ADF245F5D08C44944595D8E1
:100960004445CDD8EAE7B8F1000FE5D1B8E74346F2
:10097000AAE700BF2DE9F04F1546ADF21C4D064623
:100980008A462846194605AA0093FFF7DFFE8046EF
:10099000009B0DF2144142F8043F8A42FBD15C1ED9
:1009A000002B00F0D280691E04EB050C06AF11F895
:1009B000010F5A1A013A2A44614547F82020F6D11E
:1009C000DDF814B0424605EB0B012846009300F019
:1009D000AFF9009B0146AAEB030A00285FD1A3EB05
:1009E0000B030093C8F101030293A9460346CDF817
:1009F00004B009E021B101999142009988BF0A46EB
:100A000000211344534524D806EB030C1CF80420A2
:100A100057F82220002AEDD18845424638BF0A46C1
:100A2000A2421BD2551ED0184D44304402E0013280
:100A3000A24213D010F801EB15F801BFF345F6D030
:100A4000A2420BD202990B44134453454FF00001CC
:100A5000DAD900200DF21C4DBDE8F08F884508F171
:100A6000FF3276D908EB0300304409EB0805CDF8D6
:100A70000C8002E08A4265D05A4615F8018D10F8C4
:100A800001ED02F1FF3BF045F4D0DDF80C800132BE
:100A9000013191425BD8019A00991344B2E7A3EB6C
:100AA0000803434538BF43464FF0000C013306EBC3
:100AB0000C000193035D08F1FF3957F82330C8F1AA
:100AC000010B4BB19C44D445C3D806EB0C00035D2D
:100AD00057F82330002BF5D1A04517D208EB0C02B4
:100AE0004346324405EB0901CDF800C002E0013372
:100AF000A34224D012F801CB11F801EFE645F6D05D
:100B0000DDF800C0A34238BFDC44DBD3B8F1000FEE
:100B1000A0D008EB0C01314405EB0802CDF800C071
:100B200002E0013BAB4295D0134611F801CD12F81B
:100B300001EDE645F5D0DDE900C39C44C3E7DDF8EF
:100B400000C0E3E7DDF80C80A2E706AF38E76046B7
:100B500080E742469CE700BF2DE9F0470446C0B05D
:100B6000002B69D0012B90461F4600F086808B42F7
:100B70005ED8CD1A022B00EB050661D0B3F5807F5D
:100B800000F283804FF48072002168465D1E00F001
:100B9000B9FF0122404698F800100B4610F8011FDB
:100BA000A1EBC303DBB20DF8032001329542F4D868
:100BB0004FF0000A08EB070313F8022C18F8053071
:100BC000A3EBC203DBB21DF803900DF80350A5EBB5
:100BD0000909B44201D92BE063B92C4414F8013C53
:100BE00094F800C0A642ACEBC30C5FFA8CFC1DF875
:100BF0000C30F1D29D42A4EB0304EAD80F2D07D9A3
:100C0000042208EB0A0104EB0A0000F091F860B935
:100C10002A464146204600F08BF868B1BAF1030F2E
:100C20008CBFAAF1040AA7F1050A4C44B442D4D9F6
:100C3000002040B0BDE8F087204640B0BDE8F08716
:100C400013785078217840EA0340234613F8012FA7
:100C50009E4242EA01421CD39042EDD0013601E0AF
:100C6000904208D013F8011F9E4241EA0242F7D198
:100C70008242DDD13346581EDBE70A4698F8001061
:100C800040B0BDE8F04700F007B840B0BDE8F0471D
:100C900070E61E46ECE700BF5FFA81FC810744D096
:100CA0000346511E22B909E09A0709D0013905D33C
:100CB0001846027801336245F6D17047002070472C
:100CC000184603290CD80029F8D00346014401E056
:100CD0008B42F3D0184613F8012B6245F8D17047C8
:100CE00010B50CEB0C24024604EB044402E004397A
:100CF000032915D9104652F8043B6340A3F1013E85
:100D00002EEA030313F0803FF1D00346014401E0D3
:100D10008B4208D0184613F8012B6245F8D110BD5C
:100D200010460029F1D1002010BD1146C9E700BFCF
:100D3000032A30B415D941EA0004A40784460B46BF
:100D400004D0541E0FE0043A032A08D9194660461D
:100D500053F8044B5CF8045BA542F4D0F1E760461D
:100D60001946541E7AB1431E0139021901E09A4214
:100D700009D013F8010F11F801CF6045F7D0A0EBAF
:100D80000C0030BC7047002030BC7047F8B500F054
:100D900047FE03F03DFC074603F08CFC05460028A7
:100DA0003FD12B4B9F423CD001339F423CD0294B3B
:100DB00027F0FF029A423AD1F8B200F047FC2E46E3
:100DC00042F2107400F048FC08B10024264601F0FD
:100DD00045F980B30024032000F042F8264635B1DF
:100DE0001D4B9F4203D0002403F05CFC26460020EC
:100DF00003F018FC194B9D6815F0400503D00EB1A7
:100E000000F044F8254600F095FC02F043F8044653
:100E1000C5B102F03FF8001BA84213D900F036F824
:100E2000F3E72E460024CDE704460126CAE706462E
:100E30004FF4FA74C6E7B4F5FA7F04BF4FF47A743E
:100E40000126CCE700F0BEFC012003F0D3F9DFE778
:100E5000010007B0000008B0263A09B0000C0140BC
:100E6000084B187003280CD8DFE800F008050208CA
:100E7000022000F033BE022000F026BE0022024B0A
:100E80005A607047782300207023002038B501F0A5
:100E9000E5F830B103221F4B1A7000221E4B5A6036
:100EA00038BD1E4B1E4A19680131F9D004339342F4
:100EB000F9D11C4C194DD4F80424AA42F0D31A4B92
:100EC0009B6803F1006303F5C8439A42E8D203F03C
:100ED000BDFB03F0CFFB002000F0BCFD0220FFF7BC
:100EE000BFFF124BDA690022DA61D96999699A6108
:100EF0009B6972B64FF0E023C3F8085D3021D4F847
:100F00000034D4F8042481F311889D4683F30888C3
:100F10001047C5E7782300207023002000640008F4
:100F200020640008006000085023002000100240E8
:100F300049F26900084A136899B21B0C00FB01339F
:100F400044F250611360054B186882B2000C01FB3B
:100F50000200186080B270476423002060230020E4
:100F600010B504460021102200F0CCFD034B03CB4A
:100F7000206061601868A06010BD00BFE8F7FF1F27
:100F800070B50C4615461E4602F0E8FA50B9022E1E
:100F900010D1012D0ED112A3D3E900230120C4E901
:100FA000002307E0282D10D005D8012D09D0052DEC
:100FB0000FD0002070BD302DFBD10BA3D3E900234F
:100FC000ECE70BA3D3E90023E8E70BA3D3E9002365
:100FD000E4E70BA3D3E90023E0E700BFAFF3008011
:100FE000401DA12026812A0B78F6339F93CACD8D10
:100FF0009E6AC421818A46EE26417272DF25D7B7E8
:10100000F017304A39059E56F0B5ADF54F7D6CAC02
:101010004FF4C47207460D462046002100F072FDD1
:1010200001F038FF4FF47A72B0FBF2F0244B1860F5
:1010300093E80700022384E807000DF5E970238296
:10104000FFF78EFF4EF603031E4906A82384FFF721
:10105000F7FA1B230DF2E32284F832310DF1300C44
:1010600006AB1E4603CE664510605160334602F162
:101070000802F6D13188B3780DAE118093703146F5
:101080000122204600F08AFD002380B2CDE90460F1
:101090000393AB7E3846029305F1190301930123B4
:1010A0000093E97E04A3D3E9002302F0F9FA0DF5D9
:1010B0004F7DF0BDAFF300809E6AC421818A46EE69
:1010C000BC280020684B00082DE9F0412C4C8046DC
:1010D000237A0D46DAB05BBB284627A900F084FED0
:1010E0000746002842D19DF89D60C82E3ED8014693
:1010F0004FF4A662204600F005FD4FF48073C4F85B
:10110000F8314FF40073C4F80C334FF44073324697
:101110000DF19E0104F10900C4F8203400F0E6FC52
:101120009DF89C302644777223720BB9EB7E2372B4
:101130008122002106AC27A800F0E4FC0122214610
:1011400027A800F097FE002380B2CDE90440039366
:10115000AB7E4046029305F11903019328230093C7
:10116000E97E05A3D3E9002302F09AFA5AB0BDE85C
:10117000F08100BFAFF3008026417272DF25D7B740
:10118000842300204FF48A73F0B50024234EF1B07D
:1011900003FB006596F8D830D02221463CA885F89C
:1011A000DC3085F8E84000F0ADFC06F1090000F005
:1011B000A7FCD5F8E430C2B206AF8DF8F00006F116
:1011C00009010DF1F100CDE93A3400F08FFC394608
:1011D00001223AA800F082FE80B2CDE90470082313
:1011E0000127CDE9023706F1D8030193302300939C
:1011F000317A0B4807A3D3E9002302F051FAA04249
:1012000006DD01F047FEC5F8E000384671B0F0BDDC
:101210002046FBE778F6339F93CACD8D84230020C8
:10122000BC4900202DE9F0411D4D1E4E1E4F86B0D9
:10123000284602F061FA034658B30024CDE903447E
:10124000ADF814401A7B02948DF814205868996800
:1012500003AA03C21B68DFF8548043F000430293E3
:1012600001F01AFE821941F100033846009402A9E8
:1012700001F0D4F8A04205DD284602F041FA88F8D2
:101280000040D5E798F80030072B05D8013388F8DF
:10129000003006B0BDE8F081014802F031FAF8E70D
:1012A000BC49002040420F00D028002081230020AC
:1012B00010B50446002100F0EFFB601C0B4C80B21F
:1012C000A4F82C0500F0D0FB70B1B4F82C0500F0A8
:1012D000DBFB014640B9B4F82C0500F0DDFBB4F8A7
:1012E0002C05013080B2EBE710BD00BF8423002045
:1012F00010B50A4B0A4A1A6003F5805393F8702020
:101300003AB9DC6E2CB1204600F020FF204601F0F7
:101310005BF8BDE81040034800F018BFD02800205B
:10132000C04B0008283900202DE9F04F8FB000AFE6
:1013300005460C4602F012F900284AD1237E022B02
:101340001AD1E38A012B17D101F0A4FD0646FFF75D
:10135000EFFD4FF4C873B0FBF3F202FB1303DFF8A9
:10136000CC829BB206F516763344C8F80030E37E93
:1013700033B90022AE4B1A703C37BD46BDE8F08F42
:10138000204607F1240100F0E3FC0028F4D107F126
:101390001400FFF7E5FD97F8264007F114012246F7
:1013A00007F12700FFF7C4FC0028E2D10F2C08D872
:1013B0009F4B1C70D8F80030A3F51673C8F80030A6
:1013C000DAE797F824100029D6D0284602F0BEF8B4
:1013D000D2E7E38A282B38D010D8012B30D0052B48
:1013E000CAD1BFF34F8F9349934BCA6802F4E062AE
:1013F0001343CB60BFF34F8F00BFFDE7302BBBD152
:10140000DFF838B2E17E9BF808209142B4D159460A
:101410000022607E91F8DC50854200F0B4800132F9
:10142000042A01F58A71F5D140F6B831DBF80020C5
:10143000FA328A4294BFCBF80020CBF800109BE729
:1014400021462846FFF7E0FD96E721462846FFF7AC
:101450003BFE91E7B2F8EC507B60EA1C930822F067
:1014600003020732D208BB60A8EBC2039D46EA46DE
:10147000BB6800219A00504600F044FB7B682A4676
:1014800003F1EE015046594400F030FB14B901203D
:1014900000F0E0FA9BF8D20000F0E6FA044638B912
:1014A0008BF8080000F000FB204600F0D3FAB5E00E
:1014B000DBF8D4203AB99BF8D200BBF82C25824245
:1014C00001D8FFF7F5FEDBF8D4202A44944208D275
:1014D0009BF8D200BBF82C250130824201D8FFF7DF
:1014E000E7FE51463A7ADBF8040000F013FB08B936
:1014F000C5467CE0DBF804209BF8D2002A44CBF8F8
:101500000420DBF8D42005EB020ACBF8D4A000F0CD
:10151000ABFA824509D39BF8D22001328BF8D22056
:10152000DBF8D420121BCBF8D420FF2D10D80024D8
:101530008BF8084000F0B8FA204600F08BFA00F073
:101540008DFD3F4B188108B9FFF7A0FCC54613E796
:10155000FB689BF8D90009FB03B2D2F8E41082F8CB
:10156000E86001F58061C2F8E060C2F8E410FFF7BE
:1015700009FEFFF757FE9BF8D920013202F0030263
:101580008BF8D920B4E74FF48A7909FB02F505F10D
:10159000EA012046594400F0D5FC064600287FF4B5
:1015A000EBAE01225D4485F8E82001F073FCD5F82C
:1015B000E020801A192840F6B83238BF192090422E
:1015C00028BF1046FEF73EFF1E49FEF7D1FD044638
:1015D000DBF80000FEF736FF1B49FEF7C9FD0146A8
:1015E0002046FEF77FFEFEF785FFCBF800009BF854
:1015F000D930DBF80400FB6009FB03F30BEB0302BB
:1016000092F8E81059B1D2F8E440E84684423FF439
:1016100021AF002182F8E810C2F8E010C546DBF8DF
:101620000430074A9B0A01331381A5E6B82800203D
:10163000B428002000ED00E00400FA058423002017
:10164000BC280020CDCCCC3D6666663F014B1870AF
:10165000704700BFB839002030B54FF000542C4B14
:10166000226885B09A4223D1637D0BB3294A2A4868
:101670001370237D002503724FF48073C0F8F83196
:101680004FF40073C0F80C334FF44073C922C0F814
:1016900020342249C0F8E450093000F027FA2046EF
:1016A000E022294600F02EFA0124204605B030BD84
:1016B00003F00AF8044608B90024F6E7184A194D61
:1016C000D36943F00073D361AA6D174B9A42F3D1EB
:1016D0002B6E013B7E2BEFD8144A01AB07CA83E87F
:1016E00007001846032100F089FC6B6D83424FF020
:1016F0000003E1D12A6D8A4203BFAB652A6E054B18
:101700001C4601BF1A70EA6D094B1A60CDE700BF95
:101710009AAD44C5B839002084230020160000206B
:1017200000100240006600405041A0B058660040E2
:101730006823002037B500F091FC0223184D0122E8
:101740006B71184B28811968174801F04FFA002374
:101750000193164B164900934FF48052154B1648CF
:1017600001F0CCFE154B197811B1134801F0EEFED3
:1017700001F090FB0446FFF7DBFB4FF4C873B0FBAE
:10178000F3F202FB130304F516749BB21C440C4BDA
:101790001C6002F08FFF08B10F232B8103B030BD16
:1017A000BC28002068230020D0280020810F0008DA
:1017B000BC39002029130008BC490020B83900209A
:1017C000B82800202DE9F04F824C93B0FFF72AFD96
:1017D00000234FF000084FF000090BAD7E4FDFF8FB
:1017E000FCA10A93ADF834300B936B604FF0000B03
:1017F00001265B463846CDE900890DF11D0207A997
:101800008DF81C608DF81DB001F0A0F99DF81C301A
:10181000002B40F09F80204601F0A0FE05460028E6
:1018200043D101F037FB6E4F3B6898423DD301F046
:1018300031FB8046FFF77CFB4FF4C873B0FBF3F23B
:1018400002FB130008F5167883B243443B60654FF2
:101850000EA897F80090B9FA89F3C9F110085FFA59
:1018600088F85B098DF82830FFF77AFBB8F1060F8E
:1018700028BF4FF006080EAB03EB090142460DF1FD
:10188000290000F033F90AAB0393182308F1010291
:101890000293554BD2B2CDE900630492204649A38E
:1018A000D3E9002301F09EFE3D7001F0F3FA4F4AA8
:1018B0004F4D1368C31AB3F57A7F2FD3106001F030
:1018C000EBFA02460B46204601F024FF204601F0C9
:1018D00045FE18B32B7A474E002B0CBF022303237F
:1018E000737101F0D7FA4FF47A73B0FBF3F00EAFD7
:1018F000012230603946304600F002FA1823029384
:101900003D4B80B2019340F25513CDE90370009333
:1019100020462EA3D3E9002301F064FE2B7AB3B155
:1019200001F0B8FA002607464FF48A7895F8D900F6
:10193000304400F0030008FB005393F8E8206AB33A
:101940000136042EF2D12B7A002B7FF43FAF13B077
:10195000BDE8F08FDAF80C30594683F01003CAF86E
:101960000C3010220EA800F0CDF80DF11E0308AACD
:101970000AA9384600F052FE95E803000FAB83E851
:1019800003009DF8343020468DF844300A9B0EA9A0
:101990000E93DDE9082302F08FF827E7D3F8E02063
:1019A00042B12B68BA1AFA2B38BFFA230533B2EBCF
:1019B000430FC5D3FFF7E6FB0028C1D1C3E700BF43
:1019C000AFF30080401DA12026812A0BF1C6A7C1DC
:1019D000D068080FBC490020D02800200008014032
:1019E000B8280020B4280020C82800207C2300202C
:1019F00084230020BC2800208023002008B505484F
:101A000000F0A6FEBDE808400020034A034903F0A9
:101A1000A5B800BFD0280020244A0020F1120008F9
:101A200070B502F0A1FC0025084E094C30802068FA
:101A30003388834208D902F093FC236805440133BC
:101A4000B5F5C84F2360F2D370BD00BF144A002023
:101A5000184A002002F012BD00F10060920000F56B
:101A6000C84002F0BDBC0000054B1A68054B1B883E
:101A70009B1A834202D9104402F072BC00207047C6
:101A8000184A0020144A0020024B1B68184402F038
:101A90006DBC00BF184A0020024B1B68184402F0BE
:101AA00079BC00BF184A0020064991F8243033B1B0
:101AB00000230822086A81F82430FFF7CDBF0120F7
:101AC000704700BFEC490020022802BF4FF480128B
:101AD000014B1A61704700BF00080140022802BF95
:101AE0001022014B1A61704700080140002310B515
:101AF000934200D110BDCC5CC4540133F8E7000020
:101B0000FFF7FEBF03460244934200D1704703F83B
:101B1000011BF9E72DE9F8431F4D144695F82420E1
:101B20000746884622B9DFF870906CB9012009E0B9
:101B30002B6A03EB82038342F5D0FFF7B5FF002841
:101B4000F1D10020BDE8F88395F824302BB920228C
:101B5000FF2148462F62FFF7D5FF95F82400414644
:101B6000C0F10802A24228BF224605EB8000D6B28F
:101B70009200FFF7BBFF95F82430A41B1E44F6B279
:101B8000082E17449044E4B285F82460CDD1FFF7C5
:101B90008BFF0028C9D1D4E7EC4900202DE9F34799
:101BA0000D46044600219046284640F27912FFF780
:101BB000A9FF234620220021284601F01BFF022214
:101BC00020212846231D01F015FF0322222128464B
:101BD000631D01F00FFF032225212846A31D01F0FC
:101BE00009FF10222821284604F1080301F002FF12
:101BF00008223821284604F1100301F0FBFE0822D8
:101C00004021284604F1110301F0F4FE0822482186
:101C1000284604F1120301F0EDFE2022502128464F
:101C200004F1140301F0E6FE40227021284604F17D
:101C3000180301F0DFFE0822B021284604F120033A
:101C400001F0D8FE0822B821284604F1210301F052
:101C5000D1FEC02604F122073B4631460822284621
:101C6000083601F0C7FEB6F5A07F07F10107F3D1F2
:101C700094F8323031468DF80730082228460DF1AD
:101C8000070301F0B7FE002604F1330A9DF8073080
:101C90004FEAC6099E4209F5A47720D394F8323161
:101CA000502B28BF50238DF80730B8F1000F08D112
:101CB0003946072228460DF1070301F09BFE09F281
:101CC0004F17002604F233149DF8073007EBC601C6
:101CD0009E420DD30731C80802B0BDE8F0870AEB79
:101CE000060308223946284601F084FE0136CDE776
:101CF000A3190822284601F07DFE0136E4E7000022
:101D000038B50C460021054621600346C4F803108F
:101D10002046202201F06EFE20462B1D02222021AB
:101D200001F068FE20466B1D0322222101F062FEB5
:101D30002046AB1D0322252101F05CFE2046102227
:101D4000282105F1080301F055FE072038BD0000E9
:101D5000F7B5057F04460E462DB1838A122B02D9B2
:101D6000012003B0F0BD002307221946204600964B
:101D700001F00AFD731C0093012200230721204675
:101D800001F002FDD5B9B31C009305222B460821B2
:101D9000204601F0F9FC0D25B378102BE0D837462A
:101DA000B278BB1B934210D3237F0735A08AED087E
:101DB000B3B9A8422CBF00200120D2E7A38A08258E
:101DC000DB00083BDB08B370E6E7FB1C2946009309
:101DD00008220023204601F0D7FC08350137DFE751
:101DE000401B18BF0120BCE7F7B5047F05460E462F
:101DF0002CB1838ACA2B02D9012003B0F0BD002385
:101E0000082219462846009601F0BEFCDCB90822DB
:101E1000731C009311462346284601F0B5FC10249C
:101E20007378C82BE8D8012372785F1C013B93427A
:101E300010D32B7F0734A88AE408B3B9A0422CBF83
:101E400000200120D9E7AB8A0824DB00083BDB082F
:101E50007370E5E7F3192146009308220023284612
:101E600001F092FC08343B46DEE7001B18BF01205E
:101E7000C3E70000F7B50E4604460021154630467C
:101E80008122FFF73FFE234608220021304601F061
:101E9000B1FD63787F2B28BF7F238DF807309DB974
:101EA0000722082130460DF1070301F0A3FD0F279B
:101EB000002502349DF8073007EBC5019D4205D38C
:101EC0000731C80803B0F0BD0827F1E763190822FD
:101ED000304601F08FFD0135ECE70000F7B50E4606
:101EE0000546002114463046CE22FFF70BFE2B4656
:101EF00028220021304601F07DFD2B7AC82B28BF17
:101F0000C8238DF807308CB90822282130460DF1FE
:101F1000070301F06FFD30242F469DF807207B1B3F
:101F2000934205D3E01DC00803B0F0BD2824F3E7B9
:101F3000214607F109030822304601F05BFD083411
:101F40000137EAE7F7B5047F05460E4634B1838AC8
:101F5000B3F5827F02D9012003B0F0BD0123102226
:101F600000212846009601F00FFCDCB9B31C009359
:101F7000092223461021284601F006FC1924738803
:101F8000B3F5807FE7D837467288BB1B934210D3E6
:101F90002A7F0734AB8AE408B2B99C4294BF002080
:101FA0000120D9E7AB8A1024DB00103BDB087380EB
:101FB000E5E73B1D2146009308220023284601F057
:101FC000E3FB08340137DFE7E01A18BF0120C3E75D
:101FD00030B5094D0A44914200D130BD11F8013BA2
:101FE0005840082340F30004013B2C4013F0FF034A
:101FF00084EA5000F6D1EEE72083B8ED4FF0FF33CE
:10200000F7B500EB81061946DFF848C0DFF848E075
:10201000B04203D1D843C94303B0F0BD50F8042BFC
:1020200001AF0192042217F8014B81EA04610824F0
:102030000D46DB184941013C002DBCBF83EA0C036F
:1020400081EA0E0114F0FF04F2D1013A12F0FF020E
:10205000E9D1DDE79336EAA9EBE1F042F7B56B464B
:10206000344A106851686A4603C30823324933482A
:10207000FEF772FD044610B30369B3F5CE3F52D8A4
:10208000428BB2F57A7F50D12D4A024402F1100101
:102090008B424CD3103B294900209D1AFFF798FF33
:1020A00006462A46002004F11801FFF791FFA368B5
:1020B0009E4202D1E368984231D00D2500E00A2506
:1020C0006B46204A106851686A4603C308231E49BC
:1020D0001A48FEF741FD044610B30369B3F5CE3F3D
:1020E0001ED8B0F86620B2F57A7F19D1144A02449E
:1020F00002F15C018B4213D35C3B104900209E1A15
:10210000FFF766FF07463246002004F16401FFF73F
:102110005FFFA3689F4203D1E368984200D1002586
:10212000284603B0F0BD0B25CAE70C25C8E71025EB
:10213000C6E700BF844B0008DC9B01000064000878
:10214000089CFFF78D4B0008909B010010B5037CA5
:10215000044613B90068FEF7F1FA204610BD0000EE
:102160000023BFF35B8FC360BFF35B8FBFF35B8F55
:102170008360BFF35B8F7047BFF35B8F0068BFF373
:102180005B8F704770B505460C30FFF7F5FF05F122
:10219000080604463046FFF7EFFFA04206D9304656
:1021A0006D68FFF7E9FF2544281A70BD3046FFF738
:1021B000E3FF201AF9E7000070B505464068A0B1BA
:1021C00005F10800FFF7D8FF05F10C06044630467C
:1021D000FFF7D2FF844288BF0025304698BF6D6864
:1021E000FFF7CAFF013C2C44201A70BD38B50C46DD
:1021F0000546FFF7C7FFA04210D305F10800FFF71F
:10220000BBFF6B680444B4FBF3F2BFF35B8F03FBCB
:102210001244AC60BFF35B8F012038BD0020FCE7A7
:102220002DE9F041144607460D46FFF7C5FF8442ED
:1022300028BF0446D4B1B84658F80C6B4046FFF7A7
:102240009BFF06442E6040467E68FFF795FF331AD9
:102250009C4203D801206C60BDE8F0816B603B6854
:10226000A61B3044E860AB600220F5E72046F3E7A8
:1022700038B50C460546FFF79FFFA04210D305F185
:102280000C00FFF779FF6B680444B4FBF3F2BFF373
:102290005B8F03FB1244EC60BFF35B8F012038BD02
:1022A0000020FCE72DE9F04385B0884669460646E4
:1022B0006C46FFF7B5FF002504EBC007BC4207D111
:1022C00029463046FFF7D4FF284605B0BDE8F08325
:1022D000D4F8049008EB05014A4654F8080BFFF7C0
:1022E00005FC4D44EAE70000F8B505460C300F4602
:1022F000FFF742FF05F1080604463046FFF73CFFB2
:10230000A042304688BF6C68FFF736FF201A38605D
:1023100020B130462C68FFF72FFF2044F8BD0000A5
:1023200073B5144606460D46FFF72CFF844228BFBE
:102330000446DCB1304601A9FFF7D6FF019B3BB94B
:102340003268C5E90233C5E90024012002B070BD3E
:102350009C4238BF0194019B28609C426B60F4D979
:102360003268E41A0220AA60EC60EFE72046EDE74D
:102370002DE9FF410F466946FFF7D2FF6C46002565
:1023800004EBC006B44203D1284604B0BDE8F08196
:10239000D4F804807819424654F8081BFFF7A6FBCE
:1023A0004544EFE738B50546FFF7E2FF044601462E
:1023B0002846FFF71BFF204638BD00000121884258
:1023C00038BF0846FEF79AB908B1FEF7B7B97047AB
:1023D00010B4026854681A46234610BC184700001F
:1023E00000207047002070477047000000207047B1
:1023F0000E20704700F5805090F8D800C0F34000E0
:102400007047000000F5805090F9E0007047000030
:1024100000F58050C0F8DC1001207047F7B50C685B
:10242000BDF8207014F000546ED10D7B082D6BD8D0
:10243000302585F31188456AAE6876010CD4AC6806
:10244000240108D4AC6814F080545BD184F3118863
:10245000204603B0F0BD01240E6804F1180C002ED4
:10246000BABFF60046F0040676054FEA0C1C45F8A4
:102470000C600E684FEA041C16F0804F1CBF05EB81
:102480000C0EDEF88061AC441CBF46F00206CEF8AC
:1024900080610E7B05EB0415CCF884618E68C5F86D
:1024A0008C614E68C5F88861DCF8805145F0010503
:1024B000CCF88051650100EB441404F58356C6E95D
:1024C00006230E4604F5845401F10C0C56F804EB77
:1024D000664544F804EBF9D136882680441904F5A2
:1024E000805494F8946007F0030526F00B063543FA
:1024F00084F89450002484F31188009700F01EFDA6
:102500000120A6E70224A7E74FF0FF30A1E7000073
:1025100038B500F58054E06E0D46FFF74DFE1F28DC
:1025200009D920222946E06EFFF7BCFEA0F1200366
:102530005842584138BD0020FCE7000008B5302360
:1025400083F3118800F58050C06EFFF709FE002369
:1025500083F3118808BD000000220260828142607E
:10256000826070470022002310B5C0E900230023D9
:10257000044603810C30FFF7EFFF204610BD00003A
:10258000F0B500F5805595F8D830044613F0040FE7
:10259000C3F3800008BF104660F3820385F8D8308B
:1025A00004EB411505F5845310331B7989B0D80726
:1025B0004FEA41162DD572B319072CD46846FFF7A0
:1025C000D1FF05F5845303AA03F1080715461868DF
:1025D0005968083303C5BB422A46F7D118686946D3
:1025E00028609B882046AB80DDE90E23CDE90023DF
:1025F0000123ADF8083023681B6C9847344404F578
:102600008454237D10341A075CBF43F00803237100
:1026100001E0002AF2D109B0F0BD00002DE9F04739
:102620009A46074688469146302388B083F311883E
:10263000684607F58054FFF795FFE06EFFF7A2FDAF
:102640001F282AD920226946E06EFFF7ABFE20281A
:1026500023D1444603AD05AB2E4603CE9E422060F7
:102660006160354604F10804F6D130682060B38813
:10267000A380DDE90023C9E90023BDF80830AAF8EA
:102680000030002383F3118853464A4641463846BA
:1026900008B0BDE8F04700F00BBC002080F31188C3
:1026A00008B0BDE8F08700002DE9F84F0446182275
:1026B0000F4604300021FFF725FA2046214B04F194
:1026C000580840F8283BFFF747FF04F13800FFF7B0
:1026D00049FF464604F58255183530462036FFF747
:1026E00041FFAE42F9D14FF480534FF0000A04F598
:1026F0008055C5E9173A0123C5F858804FF0000905
:102700004FF00008EE66C5F864A085F8683085F8DB
:10271000703004F5845604F5875B46E9028930463B
:10272000FFF71AFF203646F810AC5E45F5D185F864
:10273000E07017B1044800F0A7FB044B2046636229
:10274000BDE8F88FC04B0008964B000800640040BD
:1027500010B50446034B19784A1C1A70FFF7A4FF02
:10276000204610BD1C4A00202DE9F04311B900207D
:10277000BDE8F083264B274D994294BF11230A23CD
:10278000B5FBF1F4013BDBB2581CB4FBF0FC00FBE1
:102790001C405FFA83FEB0BB0CF1FF36B6F5806FCC
:1027A000E5D24FF47A77C3EBC303DC1C4FEAE409AC
:1027B00009FB0777C4F3C704AEEB0400C0B209F10C
:1027C00001088044B7FBF8F7B7F5617FC1BF03F19B
:1027D000FF33C3F3C704AEEB0403D8B2631CDBB210
:1027E00003440CFB03F3B5FBF3F58D42BFD1013875
:1027F000C0B20728BBD80023013C1071168001200D
:102800009370D470B4E7BEF1020FB0D0013BBBE7C8
:102810003F420F000051250270B505460E464FF4A9
:102820007A746B6A01205B6803F00103B34204D041
:1028300001F0E0FC013CF4D1204670BD30B5426AA5
:10284000936913F0700F17D0002341F29004936145
:1028500000EB4312224411794D070AD5890708D5A8
:10286000064D416A55F823508D60117941F00401FD
:1028700011710133032BEBD130BD00BF044C0008B4
:1028800073B51D46436A16469A680446D20709D5B1
:1028900001219A689960C2F340020021CDE90065E8
:1028A000FFF76EFE636A9A68D1050BD54FF480710D
:1028B0009A6820469960C2F340220121CDE9006563
:1028C000FFF75EFE636A9A68D2030BD54FF480313E
:1028D0009A6820469960C2F340420221CDE9006522
:1028E000FFF74EFE04F58053D3F8DC0010B1036807
:1028F0001B699847204602B0BDE87040FFF79EBFB5
:10290000F8B50446466A002977D106F10C07386805
:10291000800775D0386806EB01104FEA011CD0F82B
:10292000B011D0F8B051490746BFED0845F0004559
:102930006D0DA562D0F8B011890744BF45F0804500
:10294000A562D0F8B41104F1340501F00F0184F848
:10295000341006EB0C01D1F8B80184F82C00D1F842
:10296000B801000A84F82D00D1F8B801000C84F8F1
:102970002E00D1F8B801000E84F82F00D1F8BC0168
:1029800084F83000D1F8BC01000A84F83100D1F895
:10299000BC01000C84F83200D1F8BC1104F14400F1
:1029A000090E84F833103821396004F1280151F8F8
:1029B000046BA94240F8046BF9D109880180C4E98D
:1029C0000E2300232146A4F8403051F8383B20461E
:1029D0001B6C984704F5805393F8D820D3F8DC009B
:1029E00042F0040283F8D82010B103681B699847AD
:1029F0002046BDE8F840FFF721BF06F1100786E743
:102A0000F8BD000010B5044600F046FA02460B4639
:102A100052EA030102D0013A63F100030449086855
:102A200020B12146BDE81040FFF76ABF10BD00BFCE
:102A3000204A0020F0B5302181F31188002441F2B2
:102A4000900C00F58351183100EB441565442E7944
:102A500077070FD4F6060DD5D1E9007697429E414F
:102A600008D2094F466A57F82470B7602E7946F0AD
:102A700004062E710134032C01F12001E4D100235E
:102A800083F31188F0BD00BF044C000808B5302363
:102A900083F31188FFF7D2FE002383F3118808BD6A
:102AA0002DE9F041436A044698680E4600F0E05074
:102AB000B0F1E05F22D0B0B1302383F3118800255C
:102AC00041F2900804F5845704EB451343441B7905
:102AD0001A070AD50135032D07F12007F4D101208B
:102AE000002383F31188BDE8F0815B07F2D43946F7
:102AF000304600F071FA0028ECD1F1E70120F2E74E
:102B000008B5302383F3118800F58050C06EFFF7BD
:102B100039FB002383F3118840090CBF01201846BC
:102B200008BD0000F8B51D46002313700F46064689
:102B30001446FFF7E5FF80F00100387025B1294603
:102B40003046FFF7ADFF2070F8BD0000F8B50C4629
:102B500015461E46074600F09FF90B4621780246AF
:102B600009B9287850B13846FFF764FFFFF78EFFA8
:102B700033462A462146FFF7D5FF0120F8BD000065
:102B800070B5302686F31188174BDA6942F000726F
:102B9000DA611A6942F000721A611A6922F0007251
:102BA0001A61002383F3118800F5805494F8D8301B
:102BB00013F0010516D1A9B186F311880321132062
:102BC00001F00CFA0321142001F008FA032115206A
:102BD00001F004FA94F8D83043F0010384F8D830B7
:102BE00085F3118870BD00BF001002402DE9F04749
:102BF00000F5805595F8E0300446012B88461646CE
:102C000088B07AD8DFF8FC9159F823200AB949F83E
:102C10002300D9F800A0C4F81C8084F82060BAF121
:102C2000000F0BD141F2E800FFF7C8FB0746002870
:102C300061D05146FFF738FDC9F8007095F8E030D3
:102C4000012B5ED001212046FFF79AFF302383F34A
:102C500011880027626A136823F002031360626A16
:102C6000136843F001031360636A5F6187F311889F
:102C700001212046FFF7D0FD002800F08480E86E97
:102C8000FFF76EFA04F5835909F118092022002193
:102C90006846FEF737FF02A8FFF75EFC6A4609EBBD
:102CA00007030DF1180E9446BCE80300F4451860C4
:102CB0005960624603F10803F5D1DCF800002037C3
:102CC00018609CF80420602F1A71DFD1002795F856
:102CD000D8306A4623F0040385F8D83041462046B0
:102CE00000978DF80470FFF73FFD636AF8B94FF461
:102CF00000421A6001E0C9F80000002008B0BDE8F9
:102D0000F087D9F8000003681B6B9847014600283C
:102D100098D1D9F80000FFF733FFD9F80000324608
:102D2000036841465B68984700288BD1E5E761223C
:102D30001A609DF802309DF803201B06120402F46D
:102D4000702203F040731343BDF80020616AC2F3A0
:102D5000090213439DF804202046120502F4E00204
:102D60001343B21E56425641132243EAC673CB6147
:102D7000636A39465A61626A136823F0010313607B
:102D8000FFF74AFD08B9636AB1E795F8E02092BB06
:102D9000616AD1F8003243F00103C1F80032616A80
:102DA000D1F8003223F47C5323F00E03C1F8003233
:102DB000616AD1F8003243F46063C1F8003241F631
:102DC000FF71636AC3F81422636AC3F80422636A5A
:102DD000C3F80C12636AC3F84022636AC3F8442242
:102DE0000122636AC3F81C22626AD2F8003223F01F
:102DF0000103C2F8003295F8D83043F0020385F899
:102E0000D8307BE7204A002008B500F045F802469C
:102E10000B4652EA030102D0013A63F10003044970
:102E2000086808B1FFF72CFDBDE8084001F0B4B810
:102E3000204A002008B50020FFF7E4FDBDE8084067
:102E400001F0AAB808B50120FFF7DCFDBDE8084095
:102E500001F0A2B8EFF30983EFF30583014B9B6BFD
:102E6000FEE700BF00ED00E008B5FFF7F3FF00004C
:102E7000EFF30983EFF30583014B5B6BFEE700BFC4
:102E800000ED00E0FEE700000FB408B5029801F085
:102E900061F9FEE701F06CBB01F018BB0139C9B262
:102EA00002299EBF002300EBC100C0E90133704737
:102EB0002DE9F8431E461B8805465B07884605D466
:102EC00000F10C0400F12409A14502D10120BDE864
:102ED000F88354F8083C13B954F8043C6BB12B68E0
:102EE0002846DB6B98473388C1B2424654F8047CCD
:102EF00054F8080C43F00403B8470834E4E7000032
:102F000073B56C4684E80600014600224E68551CE5
:102F100066B98E6856B900EBC200021D94E8030042
:102F200082E8030001201D7002B070BD032D2A4607
:102F300001F10801EAD10020F6E700002DE9F04791
:102F400004460E46002788B0BDF8408000F10C050D
:102F500000F1240908F0040AA94503D1012008B0B2
:102F6000BDE8F08755F8083C13B955F8043C63B147
:102F7000BAF1000F0BD123682046DB6B984743461C
:102F8000C1B2324655E9020CE0470835E4E70FBB11
:102F900000220023CDE900233346ADF8087003AAD0
:102FA00006F1080C174618685968083303C76345CB
:102FB0003A46F7D1186838609B88BB80FFF76CFFF2
:102FC0000423ADF808302368CDE900011B6C694685
:102FD000204698470127D8E710B50368086823F012
:102FE000604493EA000F20F060420DD5002BB8BF7B
:102FF000A40C0028B8BF920C944201D1C00F10BDA0
:1030000034BF01200020FAE7944205D1C0F380705C
:10301000C3F380738342F2D194422CBF002001207D
:10302000EDE700000E2809D8DFE800F015151515AA
:1030300015151515150A0C0E1012140040207047B6
:103040000C207047102070471420704718207047DC
:1030500020207047302070472DE9F043456A35B98C
:103060004162BDE8F083CEF800100B60F9E74E68CE
:10307000AE4626F0604CC6F38A4717EA260738BFEB
:1030800067462B46C6F380785C6894EA060F24F006
:1030900060420CD5002C1EDA920CBA4201D0BA4222
:1030A0000FD99D42DFD10D60DAE71346ECE7944576
:1030B00005D104F08049C4F38074444507D1944598
:1030C000EFD31A689E46002AEFD11960C9E7B9F11B
:1030D000000FF6D0E5E7BA42F3D0E0E72DE9F0477C
:1030E0004FF47F49089E01F007054FEAD6082A44AD
:1030F00006F0070600EBD101954201D1BDE8F0874B
:1031000005F0070C06F0070AD445674638BF574656
:10311000501BC7F10807874228BF0746EC080C5D23
:1031200008EBD60013F800E004FA0CF429FA07FCC7
:1031300024FA0AF45FFA8CFC8EEA04044CFA0AFCC6
:1031400004EA0C048EEA040E03F800E03D443E4419
:10315000D2E70000082341F2210280EA012001B2F7
:103160004000002980B203F1FF33B8BF504013F094
:10317000FF03F4D17047000038B50C468D18A54206
:1031800000D138BD14F8011BFFF7E4FFF7E700009A
:103190000346406848B1026899895A605A890132E9
:1031A00092B291425A8138BF9A81704770B50446F5
:1031B0000D4688B0202200216846FEF7A3FC204679
:1031C0000495FFF7E5FF024658B16B46054608AE89
:1031D0001C4603CCB44228606960234605F108050B
:1031E000F6D1104608B070BD2DE9F843078C0446AF
:1031F000072F1ED9D0E9029800254FF6FF73C5F1BD
:103200002006A5F1200029FA05F108FA06F628FAA9
:1032100000F031430143C9B21846FFF79BFF083560
:10322000402D0346EBD13A46E169BDE8F843FFF78C
:10323000A3BF4FF6FF70BDE8F883000010B54B68E0
:1032400023B9CA8A63F30902CA8210BD04691A68E5
:103250001C600361C38A013BC3824A60EFE7000040
:103260002DE9F84F1C46CB8A8046C3F30900052898
:103270000F46914603462ED000221A319DB2042DEE
:1032800096B211D8B44203F1010308D80444FB8A72
:10329000C4F3090464F309030120FB8219E019F85F
:1032A00002500132CD54E9E7B442EFD91C23A0F11A
:1032B000050ABAFBF3F203FB12AA7D681FFA8AF231
:1032C00095BB4046FFF764FF054630B978606FF064
:1032D0000200BDE8F88F0026E8E70022026078606F
:1032E0004FF0000AB44242D9D31C2B44901B25E076
:1032F0001D46013189B22B68002BF9D1631F0344AD
:103300001C20B3FBF0F301339BB29942E8D2BAF12F
:10331000000FE5D14046FFF73BFF38B1C0F800A0F1
:10332000524628600546DBE70121E4E7C5F800A026
:10333000CDE719F80610013603F8011F1FFA86FBC6
:103340000BEB000189B21B2903D85C45F1D85E461E
:10335000C8E75C45FBD94046FFF71AFF28B1C0F823
:1033600000A0002228600546F1E72860AFE7FB8A4D
:103370001C448CE72DE9F74F1C465B6907468846DD
:103380000092002B00F0B680238C2BB1E269002A5A
:1033900000F0B080072B4AD807F10C00FFF7F8FEC9
:1033A000054620B96FF0020003B0BDE8F08F14228B
:1033B0000021FEF7A7FB228CE16905F10800FEF76A
:1033C00095FB208C013080B208280DD90C2824D917
:1033D000102824D9142824D9182824D9202824D9FD
:1033E000312834BF0E200F20FFF71CFE013880B2B9
:1033F0002084013028746369228C1B782A4403F0EE
:103400001F0363F03F03137248F000433846294618
:103410006B60FFF721FE0120C6E70920E4E70A20E0
:10342000E2E70B20E0E70C20DEE70D20DCE70722D7
:1034300002339BB20633B3FBF2F3C18A828A9BB29A
:10344000521A92B29342ADD800254FF08009AA4695
:103450002E4600F10C030193238CB34201D128B214
:10346000A2E70198FFF794FE834600289AD0142221
:103470000021FEF747FB56B90222009BABF808304B
:103480000BF1080C218CB14203D890B20BE0002262
:10349000F6E7E169895D01360CF80210013290B25D
:1034A0000728B6B2EED1013080B2FFF7BBFD228C07
:1034B0006169B24208BF4FF040090978421E01F02D
:1034C0001F0192B241EA4A110BEB020049EA0101E5
:1034D0000172013248F00041CBF8041038465946D9
:1034E0008BF81020FFF7B8FD4FF000098AF0010AB1
:1034F0000135B1E76FF0010056E70000F8B5154659
:10350000044630220E4600211F46FEF7FBFAB5F5B1
:10351000001F28BF4FF6FF72069B38BF6A09636021
:10352000079B95B2A760A362E66104F1100006EB69
:103530004212964206D100230360A582E3822383D0
:10354000E360F8BD066030462036F2E703781BB929
:103550004BB2002BC8BF0170704700000078704765
:10356000F8B50C46C969074609B9238CB3BB257E5B
:103570001F2D33D83B7823BB228C072A2BD8268AD1
:10358000032E2BD84FF6FF70FFF7F6FD4FF6FF72B4
:1035900020F001003602400446EA0566400C46EA87
:1035A0004025234629463846FFF7E4FE002807DD7C
:1035B000626913780133DBB21F2B88BF00231370BD
:1035C000F8BD228A2D0645EA022520461D43FFF755
:1035D0000BFE0246E5E76FF00300F1E76FF0010034
:1035E000EEE7000070B504461D4616468AB0282254
:1035F00000216846FEF786FABDF838306946ADF816
:1036000010300F9B204605939DF84030CDE90265B0
:103610008DF81830119B0793BDF84830ADF8203075
:10362000FFF79EFF0AB070BD2DE9F041D369054652
:103630000C4616460BB9138C5BBB377E1F2F28D860
:1036400095F80080B8F1000F26D03046FFF7CCFD8A
:103650003378210241EAC33141EA0801338A41EA61
:10366000076141EA034102463346284641F08001A2
:10367000FFF780FE00280ADD3378012B07D172693D
:1036800013780133DBB21F2B88BF00231370BDE812
:10369000F0816FF00100FAE76FF00300F7E7000038
:1036A000F0B504460D461E4617468BB02822002171
:1036B0006846FEF727FA9DF84C3029465A1E5342B9
:1036C00053418DF800309DF840306A46ADF8103017
:1036D000119B204605939DF84830CDE902768DF880
:1036E0001830149B0793BDF85430ADF82030FFF725
:1036F0009BFF0BB0F0BD0000406A00B10430704782
:10370000436A1A68426202691A600361C38A013B14
:10371000C38270472DE9F843D0F8209014461E4626
:1037200049464FF00008174F09B9BDE8F883D1E9C1
:103730000252651B66EB0202AF4278EB02021ED218
:10374000036A8B420DD1FFF779FD036A1B680362A0
:1037500003690B60C38A0161016A013B8946C38228
:10376000E2E7FFF76BFD0B68C9F8003003690B60F7
:10377000C38A0161013BC382D9F80010D4E78946AE
:103780000968D1E780841E002DE9F04F8BB00D460B
:1037900014468246DDF850800493002800F0198119
:1037A000B8F1000F00F01581531E3F2B00F211817C
:1037B000012A03D1049B002B40F00B810023BAF8AF
:1037C00014B0CDE90833B5EBCB0F4FEACB0703D3E9
:1037D00000200BB0BDE8F08F2B199F42DAF80C30B7
:1037E00036BF7F1B2746FFB203931BB9DAF81030B0
:1037F000002B76D0272D4AD8C5F12806B7424FF0C6
:10380000000334BF3E46F6B2009329463246DAF84A
:10381000080008ABFFF762FCA7EB060935445FFA26
:1038200089F928210BF1005BABF1050B4FEACB0BBB
:10383000039B13B1B9F1000F2CD1DAF8100040B19D
:10384000B9F1000F05D04A46009608AB691AFFF798
:1038500045FC38B2002FBBD067070AD00AAB03EB98
:10386000D40111F8083C624202F00702134101F84A
:10387000083C082C3CD9102C40F2B680202C40F299
:10388000AE80049B002B00F09880082333E0B946FB
:103890000026C6E75B46E02B28BFE02306930B44D7
:1038A000AB42059315D95A1B914538BF4A46039838
:1038B00028BFD2B20096691A08AB04300792FFF70E
:1038C0000DFC079A16441544A9EB0202F6B25FFA02
:1038D00082F9069B0599ABEB030B039B1B680393D3
:1038E000A6E700933A462946DAF8080008ABAEE7A7
:1038F000049B93B10123B4EBC30F63D0082C11D800
:103900009DF82030621E23FA02F2D60705D54FF04B
:10391000FF32A24013438DF820309DF8203088F804
:10392000003056E7102C11D8BDF82030621E23FA63
:1039300002F2D50705D54FF0FF32A2401343ADF890
:103940002030BDF82030A8F8003042E7202C0ED8F7
:10395000089A631E22FA03F3D90704D54FF0FF3308
:10396000A34013430893089BC8F8003031E7402C6C
:1039700032D0DDE90851631EC4F12106A4F1210211
:1039800025FA03F301FA06F6334321FA02F2134350
:10399000DB0712D50123A4F12002C4F1200603FAAB
:1039A00002F223FA06F6A3405B4242EA060262EB09
:1039B00042022B430A43CDE90832DDE90823C8E976
:1039C000002306E7082CA8D0102CBAD0202CF4D164
:1039D000C9E76FF00100FCE66FF00800F9E6049B10
:1039E000002BC0D0042386E7049B002BA9D0022320
:1039F00081E70000012A30B5144638BF01220025B6
:103A0000402A28BF402285B0012CCDE902550ED8AE
:103A10001B788DF8083004AB03EBD20515F8083C91
:103A2000544204F00704A34005F8083C06E0082CC3
:103A30000CD81B788DF808305307ECD10346009161
:103A400002A80021FFF74AFB05B030BD102C03D8B7
:103A50001B88ADF80830EFE7202C02D81B680293D2
:103A6000EAE7D3E90045CDE90245E5E710B5CB68C3
:103A70001BB98B600B618B8210BD04691A681C60D6
:103A80000361C38A013BC382CA60F0E703064CBFEF
:103A9000C0F3C0300220704708B50246FFF7F6FFBA
:103AA000022806D15306C2F30F2001D100F0030013
:103AB00008BDC2F30740FBE72DE9F04FD1F80080C5
:103AC00095B004464046CDE90323FFF7DFFF022807
:103AD0000CBF0025C8F30625B8F1000F0E46029072
:103AE00080F2EF8118F0C04A40F0EB81097B002999
:103AF00000F0E781029B022B03D02378AB4240F019
:103B0000E38108F07F0340460693FFF7C5FF08F006
:103B10007F034FEA8349029B002249EA03490023BD
:103B2000314491F803B049EA45695FEADB15CDE914
:103B30000A23059049EA000976D008F07F03009334
:103B4000024667682046029B0AA9B847002800F091
:103B5000BE81276A002F55D1494604F10C00FFF7BA
:103B600025FB0746002800F0E2802762737B0BF0FC
:103B70001F090893BB7ED7E902120993FB7DD7F892
:103B800004E0C3F38403A3EB09001FFA80FC0028C0
:103B9000B8BF0CF1200CA9EB0303B8BF0FFA8CF0EF
:103BA0001FFA83FC002BB8BF0CF1200C0793BCBF9D
:103BB0000FFA8CF3079351EA020C00F0A281002364
:103BC000DDF80CC0BCEB0101DDF810C06CEB0202AB
:103BD000DFF8B4C28C459341C0F09381DDE908C39E
:103BE0009C4540F080815DB3012800F38A81BEF1DD
:103BF000000F40F08681A54888427EEB0202C0F0AB
:103C00007C8126E03B699945B0D03F68002FF9D10F
:103C1000494604F10C00FFF7C9FA0746002800F0F6
:103C20008680236A3B60A0E7276A27B96FF00C0003
:103C300015B0BDE8F08F3B69994597D03F68F4E730
:103C4000924B8B4275EB020203D2727BBB7E9A428F
:103C500039D1C8F30468002D37D01BF0400F34D0A1
:103C6000039B1422BB60049B0021FB600FA8FDF79F
:103C700049FF039B20460C93049B8DF849900D93BC
:103C8000331D0E93337B8DF84A80013BDBB2ADF8D8
:103C90004430059B0CA9ADF84630029B8DF84830A6
:103CA000069B8DF84B3094F82C3083F001038DF88F
:103CB0004C30A3689847FB7DC3F38403013303F0C2
:103CC0001F039B02FB820020B2E7FB7DCBF3401277
:103CD000B2EBD31F40F0FE80C3F384034B4540F0AA
:103CE000FC80337B002D51D0032B40F2F980039BE5
:103CF000B51DBB60049B2A46FB60FB8A39466FF307
:103D00000903FB82337B04F10C00033BDBB2FFF7BA
:103D1000A7FA00280EDA39462046FFF78FFAFB7D16
:103D2000C3F38403013303F01F039B02FB826FF094
:103D300002007DE7B388DDE90A843B834FF6FF7319
:103D4000CAF12000AAF1200228FA0AF104FA00F0D0
:103D5000014324FA02F211431846C9B2FFF7FAF9F7
:103D60000AF1080ABAF1400F0346E9D12946B882A0
:103D7000327B033AD2B2FFF7FFF9FB7DB882DA4318
:103D8000C2F3C01262F3C713FB759CE7013B5FEA05
:103D90009B1BDBB20ED1351D2A46394604F10C00BF
:103DA000FFF75EFA0028B6DB327B2946013AB88A73
:103DB000D2B2E0E7FA8AC2F30902042A5ED86BB1F4
:103DC000F11C07F11B0011F801CF013500F802C00A
:103DD0000132052AEDB201D09D42F4D39D4228BFA5
:103DE0000025039A38BF04350C92049A38BFEDB20F
:103DF0000D9207F11B020E927A6838BFAD190F922F
:103E00001095FA8A8DF84990C2F309021344ADF86F
:103E10004430059B8DF84A80ADF84630029B311D39
:103E20008DF84830069B8DF84B3094F82C3083F099
:103E300001038DF84C3000237B60327BB88A013A55
:103E4000FFF79AF93B8BB882834203D12046A368DF
:103E50000CA9984720460CA9FFF708FEFB7DBA8AFB
:103E6000C3F38403013303F01F039B02FB823B8BEC
:103E70009A4214BF6FF010000020D9E6786800283D
:103E8000ACD0052106E000BF80841E0040420F0038
:103E900028461C310568002DFAD1521AD11C06F1B2
:103EA000030C014402EB0A001B285FFA8AF595D83F
:103EB0009D4293D21CF8010F0AF1010A01F8010F8B
:103EC000F0E76FF00900B3E66FF00A00B0E66FF0BC
:103ED0000B00ADE66FF00D00AAE66FF00E00A7E64E
:103EE0006FF00F00A4E600231348884273EB020230
:103EF000BFF4E9AE002D3FF4A8AE079B0F2B3FF7B0
:103F0000A4AEFA7D4FEA8B0302F0030203F07C03B8
:103F10001343FB7539462046FFF790F9737BBB7658
:103F2000002D7FF492AEFB7DC3F38402013262F375
:103F30008603FB757AE600BF40420F00EFF309836A
:103F4000203383F30988002383F31188704700002E
:103F5000302080F3118862B60C4B0D4AD96821F4E9
:103F6000E0610904090C0A43DA60D3F8FC2009492E
:103F700042F08072C3F8FC200A6842F001020A6035
:103F80002022DA7783F82200704700BF00ED00E0BE
:103F90000003FA05001000E0302310B583F3118808
:103FA0000B4B5B6813F400630FD0EFF309844FF001
:103FB0008073203CE36184F3098800F095F810B128
:103FC000044BA36110BD044BFBE783F31188F9E7B1
:103FD00000ED00E0370600083A060008012209015A
:103FE00000F1604303F56143C9B283F8001300F0A8
:103FF0001F039A4043099B0003F1604303F56143AB
:10400000C3F880211A607047090100F16040C9B20D
:1040100000F56D40017670470023826803750369DF
:104020001B6899689142FBD25A6803604260106035
:104030005860704700238268037503691B6899689C
:104040009142FBD85A680360426010605860704724
:1040500008B50846302383F311880B7D032B05D068
:10406000042B0DD02BB983F3118808BD00228B6976
:104070001A604FF0FF338361FFF7CEFF0023F2E7B2
:10408000D1E9003213605A60F3E70000FFF7C4BFC4
:10409000054BD96808751868026853601A600122D8
:1040A0000275D860FCF7B6BA284B002030B50C4B2F
:1040B0000446DD684B1C87B00FD02B466846094A82
:1040C00000F0BCF82046FFF7E3FF009B13B1684601
:1040D00000F0BCF8A86907B030BDFFF7D9FFF9E7D9
:1040E000284B002051400008044B1A68DB68906898
:1040F0009B68984294BF002001207047284B002005
:10410000084B10B51C68D868226853601A600122F9
:104110002275DC60FFF78EFF01462046BDE81040A7
:10412000FCF778BA284B002038B501230025064C4F
:10413000064907482370656000F0F4FA02232370F3
:1041400085F3118838BD00BF804B0020104C00085B
:10415000284B002008B572B6044B186500F0A2F990
:1041600000F072FA0322024B1A70FEE7284B00207F
:10417000804B002000F07CB88B60022308618B82AA
:10418000084670478368A3F1440243F8142C02697F
:1041900043F8442C426943F8402C094A43F8242C44
:1041A000C268A3F1200043F8182C022203F80C2C5B
:1041B000002203F80B2C034A43F8102C704700BF71
:1041C00025060008284B002008B5FFF7DBFFBDE8F7
:1041D0000840FFF75BBF0000024BDB6898610F20CF
:1041E000FFF756BF284B0020302383F31188FFF7D9
:1041F000F3BF000008B50146302383F3118808207F
:10420000FFF754FF002383F3118808BD10B50A4C53
:1042100023699A6891420CD85A68816003604260B1
:1042200010609A685860521A9A604FF0FF33A36189
:1042300010BD1B68891AECE7284B0020C0E9032356
:10424000002310B410BC4361FFF7E0BF036881682E
:104250009A680A449A60426813605A6000234FF0DB
:10426000FF320360014B9A61704700BF284B00206A
:1042700070B5124D2A46EB690133EB6152F8103FDD
:10428000934206D030269A68013A9A602C69A36856
:1042900003B170BDD4E900210A605160236083F34B
:1042A00011882046D4E90331984786F31188616963
:1042B0000029EBD02046FFF7A9FFE7E7284B0020B5
:1042C000054A30B5D369D2E908451B1B181945F1D9
:1042D0000001C2E9080130BD284B002000207047D2
:1042E000FEE70000704700004FF0FF30704700000D
:1042F000BFF34F8F024AD368DB07FCD4704700BF7F
:104300000020024008B5074B1B7853B9FFF7F0FFB8
:10431000054B1A69120641BF044A5A6002F18832FD
:104320005A6008BD984B00200020024023016745D9
:1043300008B5054B1B7833B9FFF7DAFF034A136959
:1043400043F08003136108BD984B00200020024019
:104350007F289ABF00F500308002002070470000DF
:104360004FF4806070470000802070477F2808B5B8
:104370000ED8FFF7EDFF0368013309D100F5806324
:104380000430834201D1012008BD02680132F7D018
:104390000020F9E77F2810B504461CD8FFF7A8FFD6
:1043A000FFF7B0FFF3220D4B4FF48061DA60022279
:1043B0001A61FFF7CDFF58611A6942F040021A6195
:1043C000FFF796FF00F03CF9FFF7B2FF2046BDE88B
:1043D0001040FFF7CBBF002010BD00BF00200240FF
:1043E000D3072DE9F041144606D54FF451721D4B09
:1043F0001A600020BDE8F0811B4B82189A4203D955
:1044000040F24932174BF3E7FFF77CFF4FF001080A
:10441000FFF76EFF154F401A012C0E4600EB010509
:1044200003D8FFF785FF0120E4E73388C7F8108041
:104430002B80FFF75DFF00233B612B8831F8022BB7
:104440009BB29A420CD04FF45872064B1A60084B3C
:104450001D60084B1C60084B1E60FFF769FFC8E732
:10446000023CD9E7944B00200000020800200240E3
:10447000904B00208C4B0020884B0020084908B549
:104480000B7828B11BB9FFF73DFF01230B7008BD66
:10449000002BFCD0BDE808400870FFF749BF00BF03
:1044A000984B00204FF49E41014800F0CBB800BF6C
:1044B0000001002008461146FCF720B90120FCF756
:1044C0001DB900000846FCF739B9000038B5EFF314
:1044D0001185BDBBEFF30584C4F308043023C4B1D8
:1044E00083F31188FFF7ECFE44014B01241A43EAE1
:1044F000D06363EB0103A2009B00121843EA94739C
:1045000041EB0301C900D00041EA527185F31188E3
:1045100038BD83F31188FFF7D3FE45014B012D1AF7
:1045200043EAD06363EB0103AA009B00121843EA3D
:10453000957341EB0301C900D00041EA527184F345
:10454000118838BDFFF7BCFE44014B01241A43EA31
:10455000D06363EB0103A2009B00121843EA94733B
:1045600041EB0301C900D00041EA527138BD00BFE0
:1045700038B5FFF7ABFF00230F4A104CC00840EAE4
:104580004170A0FB025EA0FB040CC9081CEB0500F7
:10459000A1FB04455B410019A1FB021043EB05039D
:1045A00011EB0E0140F100005B1840F100001B0907
:1045B00043EA007038BD00BFA59BC420CFF753E38A
:1045C00010B5094C013AD2B2FF2A00D110BD5308F0
:1045D0009800043054F8233000599BB243EA00435A
:1045E00041F8043BEEE700BF046C004030B50748DB
:1045F000013AD2B2FF2A00D130BD0D88540840F8EC
:104600002450A3004C8804331C50F1E7046C004094
:1046100007B50122002001A9FFF7D2FF019803B0DE
:104620005DF804FB13B50446FFF7F2FFA04205D086
:104630000122002001A90194FFF7D8FF02B010BDAC
:1046400070470000704700007047000045F2555267
:10465000064B1A6003225A6040F2FF729A604CF6D1
:10466000CC421A600122024B1A70704700300040A1
:10467000994B0020034B1B781BB14AF6AA22024B30
:104680001A607047994B002000300040044B1A68B4
:104690002AB902F1804202F50432526A1A60704768
:1046A0009C4B00204FF08072014B5A62704700BF54
:1046B0000010024008B5FFF7E9FF024B1868C0F38D
:1046C000407008BD9C4B002008B5FFF7DFFF024B90
:1046D0001868C0F3007008BD9C4B002070470000B4
:1046E000FEE700000A4B0B480B4A90420BD30B4BE2
:1046F000C11EDA1C121A22F00302994288BF00225E
:104700000021FDF7FFB953F8041B40F8041BECE748
:10471000C44C0008204C0020204C0020204C0020DD
:10472000FEE7000070B5002504461A4B86B085628E
:1047300001630E465860FFF70BFC04F11003C4E957
:1047400004334FF0FF33A361134BE561D9692B4666
:104750000A462046C4E9082304F134018023C4E951
:1047600000440E4AA560E5622565FFF705FD0123BB
:104770000B4AE06003750092726868460192B26865
:10478000CDE90223074BCDE90435FFF71DFD06B047
:1047900070BD00BF804B0020284B0020AD4B0008AF
:1047A000B24B00082147000800F030B808B500F00F
:1047B00063F9FFF7B9FCBDE80840FFF767BF0000E9
:1047C000704700004FF0FF310E4B1A6919611A69EA
:1047D00000221A611869D868D960D968DA60DA6885
:1047E000DA6942F08052DA61DA69DA6942F000622D
:1047F000DA61054ADB69136843F48073136000F0E3
:104800001BB900BF0010024000700040194B1A682D
:1048100042F001021A601A689007FCD51A6802F08B
:10482000F9021A6000225A605A6812F00C0FFBD18C
:104830001A6842F480321A601A689103FCD55A68EB
:1048400042F4E8125A601A6842F080721A601A68DC
:104850009201FCD51221084A5A60084A11605A6830
:1048600042F002025A605A6802F00C02082AFAD199
:10487000704700BF0010024000641D00002002408D
:10488000084A08B5516913680B4003F001035361EE
:1048900023B1054A13680BB150689847BDE808403A
:1048A000FFF77ABB00040140A04B0020084A08B57E
:1048B000516913680B4003F00203536123B1054AA9
:1048C00093680BB1D0689847BDE80840FFF764BB18
:1048D00000040140A04B0020084A08B55169136844
:1048E0000B4003F00403536123B1054A13690BB174
:1048F00050699847BDE80840FFF74EBB00040140EF
:10490000A04B0020084A08B5516913680B4003F01A
:104910000803536123B1054A93690BB1D0699847E5
:10492000BDE80840FFF738BB00040140A04B002061
:10493000084A08B5516913680B4003F0100353612E
:1049400023B1054A136A0BB1506A9847BDE8084085
:10495000FFF722BB00040140A04B0020174B10B50D
:104960005A691C68144004F478725A61A30604D58D
:10497000134A936A0BB1D06A9847600604D5104A6F
:10498000136B0BB1506B9847210604D50C4A936BFF
:104990000BB1D06B9847E20504D5094A136C0BB1F3
:1049A000506C9847A30504D5054A936C0BB1D06CA5
:1049B0009847BDE81040FFF7EFBA00BF0004014080
:1049C000A04B00201A4B10B55A691C68144004F41F
:1049D0007C425A61620504D5164A136D0BB1506DC5
:1049E0009847230504D5134A936D0BB1D06D9847B2
:1049F000E00404D50F4A136E0BB1506E9847A10422
:104A000004D50C4A936E0BB1D06E9847620404D55E
:104A1000084A136F0BB1506F9847230404D5054A19
:104A2000936F0BB1D06F9847BDE81040FFF7B4BA51
:104A300000040140A04B0020062108B50846FFF7FE
:104A4000CDFA06210720FFF7C9FA06210820FFF753
:104A5000C5FA06210920FFF7C1FA06210A20FFF74F
:104A6000BDFA06211720FFF7B9FABDE80840062174
:104A70002820FFF7B3BA000008B5FFF7A3FE0448EB
:104A800000F00AF8FFF79CFEBDE8084000F002B80D
:104A90001C4C000800F042B8002319461C4A0133A0
:104AA000102BC2E9001102F10802F8D1194B9A69E2
:104AB00042F07D029A619B690268174BDA60826856
:104AC0005A6042681A60C26803F58063DA6042691E
:104AD0005A6002691A608269C3F80C24026AC3F83A
:104AE0000424C269C3F80024426AC3F80C28C26ACD
:104AF000C3F80428826AC3F80028026BC3F80C2CA0
:104B0000826BC3F8042C426BC3F8002C704700BFC3
:104B1000A04B002000100240000801404FF0E023AD
:104B2000044A08215A6100229A6107220B201A6167
:104B3000FFF76ABA3F19010008B5302383F31188E3
:104B4000FFF718FB002383F3118808BD08B5FFF7B2
:104B5000F3FFBDE80840FFF71FBA00000B4601460F
:104B60001846FBF7D5BD00006F72672E6172647541
:104B700070696C6F742E6D79663130332D72656C8F
:104B80006179360040A2E4F1646891060041A3E532
:104B9000F265699207004261642043414E496661B3
:104BA000636520696E6465782E006330006D61690D
:104BB0006E0069646C6500000000000000000000E9
:104BC000D1230008ED2B00084D2B0008112400080C
:104BD0001D2400081D260008E1230008F123000819
:104BE000E5230008ED230008E92300083D2500081F
:104BF000F5230008012F00089D2E00080524000859
:104C000011250008800000000080000000008000E6
:104C1000AA4B0008284A0020284B0020001800005A
:104C20004444414444544944000000004444444442
:104C30004444444400000000444444444444444444
:104C40000000000044444444444444440000000044
:104C500044444444444444440423002000000000ED
:104C60000000000068000000D0000000000000000C
:104C70000000000000000000000000000000000034
:104C80000000000000000000000000000000000024
:104C90000000000000000000000000000000000014
:104CA0000000000000000000E80300000000000019
:104CB000009C010000000000FE2A0100D204000058
:044CC00040420F005F
:00000001FF
